{
  "contractName": "DefioneToken",
  "abi": [
    {
      "inputs": [
        {
          "internalType": "contract IDefioneVote",
          "name": "_voteAddress",
          "type": "address"
        }
      ],
      "stateMutability": "nonpayable",
      "type": "constructor"
    },
    {
      "anonymous": false,
      "inputs": [
        {
          "indexed": true,
          "internalType": "address",
          "name": "owner",
          "type": "address"
        },
        {
          "indexed": true,
          "internalType": "address",
          "name": "spender",
          "type": "address"
        },
        {
          "indexed": false,
          "internalType": "uint256",
          "name": "value",
          "type": "uint256"
        }
      ],
      "name": "Approval",
      "type": "event"
    },
    {
      "anonymous": false,
      "inputs": [
        {
          "indexed": true,
          "internalType": "address",
          "name": "oldAddr",
          "type": "address"
        },
        {
          "indexed": true,
          "internalType": "address",
          "name": "newAddr",
          "type": "address"
        }
      ],
      "name": "BridgeAddressChange",
      "type": "event"
    },
    {
      "anonymous": false,
      "inputs": [
        {
          "indexed": false,
          "internalType": "bool",
          "name": "isClosed",
          "type": "bool"
        }
      ],
      "name": "BridgeClosed",
      "type": "event"
    },
    {
      "anonymous": false,
      "inputs": [
        {
          "indexed": true,
          "internalType": "address",
          "name": "user",
          "type": "address"
        },
        {
          "indexed": false,
          "internalType": "uint256",
          "name": "amount",
          "type": "uint256"
        }
      ],
      "name": "BridgeMint",
      "type": "event"
    },
    {
      "anonymous": false,
      "inputs": [
        {
          "indexed": true,
          "internalType": "address",
          "name": "oldAddr",
          "type": "address"
        },
        {
          "indexed": true,
          "internalType": "address",
          "name": "newAddr",
          "type": "address"
        }
      ],
      "name": "DevChanged",
      "type": "event"
    },
    {
      "anonymous": false,
      "inputs": [
        {
          "indexed": true,
          "internalType": "address",
          "name": "user",
          "type": "address"
        },
        {
          "indexed": false,
          "internalType": "uint256",
          "name": "amount",
          "type": "uint256"
        }
      ],
      "name": "Mint",
      "type": "event"
    },
    {
      "anonymous": false,
      "inputs": [
        {
          "indexed": true,
          "internalType": "address",
          "name": "previousOwner",
          "type": "address"
        },
        {
          "indexed": true,
          "internalType": "address",
          "name": "newOwner",
          "type": "address"
        }
      ],
      "name": "OwnershipTransferred",
      "type": "event"
    },
    {
      "anonymous": false,
      "inputs": [
        {
          "indexed": true,
          "internalType": "address",
          "name": "from",
          "type": "address"
        },
        {
          "indexed": true,
          "internalType": "address",
          "name": "to",
          "type": "address"
        },
        {
          "indexed": false,
          "internalType": "uint256",
          "name": "value",
          "type": "uint256"
        }
      ],
      "name": "Transfer",
      "type": "event"
    },
    {
      "inputs": [
        {
          "internalType": "address",
          "name": "owner",
          "type": "address"
        },
        {
          "internalType": "address",
          "name": "spender",
          "type": "address"
        }
      ],
      "name": "allowance",
      "outputs": [
        {
          "internalType": "uint256",
          "name": "",
          "type": "uint256"
        }
      ],
      "stateMutability": "view",
      "type": "function",
      "constant": true
    },
    {
      "inputs": [
        {
          "internalType": "address",
          "name": "spender",
          "type": "address"
        },
        {
          "internalType": "uint256",
          "name": "amount",
          "type": "uint256"
        }
      ],
      "name": "approve",
      "outputs": [
        {
          "internalType": "bool",
          "name": "",
          "type": "bool"
        }
      ],
      "stateMutability": "nonpayable",
      "type": "function"
    },
    {
      "inputs": [
        {
          "internalType": "address",
          "name": "account",
          "type": "address"
        }
      ],
      "name": "balanceOf",
      "outputs": [
        {
          "internalType": "uint256",
          "name": "",
          "type": "uint256"
        }
      ],
      "stateMutability": "view",
      "type": "function",
      "constant": true
    },
    {
      "inputs": [],
      "name": "bridgeAddress",
      "outputs": [
        {
          "internalType": "address",
          "name": "",
          "type": "address"
        }
      ],
      "stateMutability": "view",
      "type": "function",
      "constant": true
    },
    {
      "inputs": [],
      "name": "bridgeOpen",
      "outputs": [
        {
          "internalType": "bool",
          "name": "",
          "type": "bool"
        }
      ],
      "stateMutability": "view",
      "type": "function",
      "constant": true
    },
    {
      "inputs": [],
      "name": "bridgeSet",
      "outputs": [
        {
          "internalType": "bool",
          "name": "",
          "type": "bool"
        }
      ],
      "stateMutability": "view",
      "type": "function",
      "constant": true
    },
    {
      "inputs": [],
      "name": "burnCount",
      "outputs": [
        {
          "internalType": "uint256",
          "name": "",
          "type": "uint256"
        }
      ],
      "stateMutability": "view",
      "type": "function",
      "constant": true
    },
    {
      "inputs": [],
      "name": "claimOwnership",
      "outputs": [],
      "stateMutability": "nonpayable",
      "type": "function"
    },
    {
      "inputs": [],
      "name": "decimals",
      "outputs": [
        {
          "internalType": "uint8",
          "name": "",
          "type": "uint8"
        }
      ],
      "stateMutability": "view",
      "type": "function",
      "constant": true
    },
    {
      "inputs": [
        {
          "internalType": "address",
          "name": "spender",
          "type": "address"
        },
        {
          "internalType": "uint256",
          "name": "subtractedValue",
          "type": "uint256"
        }
      ],
      "name": "decreaseAllowance",
      "outputs": [
        {
          "internalType": "bool",
          "name": "",
          "type": "bool"
        }
      ],
      "stateMutability": "nonpayable",
      "type": "function"
    },
    {
      "inputs": [],
      "name": "devAddr",
      "outputs": [
        {
          "internalType": "address",
          "name": "",
          "type": "address"
        }
      ],
      "stateMutability": "view",
      "type": "function",
      "constant": true
    },
    {
      "inputs": [
        {
          "internalType": "address",
          "name": "spender",
          "type": "address"
        },
        {
          "internalType": "uint256",
          "name": "addedValue",
          "type": "uint256"
        }
      ],
      "name": "increaseAllowance",
      "outputs": [
        {
          "internalType": "bool",
          "name": "",
          "type": "bool"
        }
      ],
      "stateMutability": "nonpayable",
      "type": "function"
    },
    {
      "inputs": [],
      "name": "name",
      "outputs": [
        {
          "internalType": "string",
          "name": "",
          "type": "string"
        }
      ],
      "stateMutability": "view",
      "type": "function",
      "constant": true
    },
    {
      "inputs": [],
      "name": "owner",
      "outputs": [
        {
          "internalType": "address",
          "name": "",
          "type": "address"
        }
      ],
      "stateMutability": "view",
      "type": "function",
      "constant": true
    },
    {
      "inputs": [],
      "name": "pendingOwner",
      "outputs": [
        {
          "internalType": "address",
          "name": "",
          "type": "address"
        }
      ],
      "stateMutability": "view",
      "type": "function",
      "constant": true
    },
    {
      "inputs": [],
      "name": "symbol",
      "outputs": [
        {
          "internalType": "string",
          "name": "",
          "type": "string"
        }
      ],
      "stateMutability": "view",
      "type": "function",
      "constant": true
    },
    {
      "inputs": [],
      "name": "totalSupply",
      "outputs": [
        {
          "internalType": "uint256",
          "name": "",
          "type": "uint256"
        }
      ],
      "stateMutability": "view",
      "type": "function",
      "constant": true
    },
    {
      "inputs": [
        {
          "internalType": "address",
          "name": "recipient",
          "type": "address"
        },
        {
          "internalType": "uint256",
          "name": "amount",
          "type": "uint256"
        }
      ],
      "name": "transfer",
      "outputs": [
        {
          "internalType": "bool",
          "name": "",
          "type": "bool"
        }
      ],
      "stateMutability": "nonpayable",
      "type": "function"
    },
    {
      "inputs": [
        {
          "internalType": "address",
          "name": "sender",
          "type": "address"
        },
        {
          "internalType": "address",
          "name": "recipient",
          "type": "address"
        },
        {
          "internalType": "uint256",
          "name": "amount",
          "type": "uint256"
        }
      ],
      "name": "transferFrom",
      "outputs": [
        {
          "internalType": "bool",
          "name": "",
          "type": "bool"
        }
      ],
      "stateMutability": "nonpayable",
      "type": "function"
    },
    {
      "inputs": [
        {
          "internalType": "address",
          "name": "newOwner",
          "type": "address"
        },
        {
          "internalType": "bool",
          "name": "direct",
          "type": "bool"
        },
        {
          "internalType": "bool",
          "name": "renounce",
          "type": "bool"
        }
      ],
      "name": "transferOwnership",
      "outputs": [],
      "stateMutability": "nonpayable",
      "type": "function"
    },
    {
      "inputs": [],
      "name": "voteToken",
      "outputs": [
        {
          "internalType": "contract IDefioneVote",
          "name": "",
          "type": "address"
        }
      ],
      "stateMutability": "view",
      "type": "function",
      "constant": true
    },
    {
      "inputs": [
        {
          "internalType": "address",
          "name": "_to",
          "type": "address"
        },
        {
          "internalType": "uint256",
          "name": "_amount",
          "type": "uint256"
        }
      ],
      "name": "mint",
      "outputs": [],
      "stateMutability": "nonpayable",
      "type": "function"
    },
    {
      "inputs": [
        {
          "internalType": "address",
          "name": "_to",
          "type": "address"
        },
        {
          "internalType": "uint256",
          "name": "_amount",
          "type": "uint256"
        }
      ],
      "name": "bridgeMint",
      "outputs": [],
      "stateMutability": "nonpayable",
      "type": "function"
    },
    {
      "inputs": [
        {
          "internalType": "address",
          "name": "_bridgeAddress",
          "type": "address"
        }
      ],
      "name": "setBridgeAddress",
      "outputs": [],
      "stateMutability": "nonpayable",
      "type": "function"
    },
    {
      "inputs": [],
      "name": "closeBridge",
      "outputs": [],
      "stateMutability": "nonpayable",
      "type": "function"
    },
    {
      "inputs": [
        {
          "internalType": "address",
          "name": "_dev",
          "type": "address"
        }
      ],
      "name": "dev",
      "outputs": [],
      "stateMutability": "nonpayable",
      "type": "function"
    },
    {
      "inputs": [
        {
          "internalType": "address",
          "name": "_account",
          "type": "address"
        },
        {
          "internalType": "uint256",
          "name": "_amount",
          "type": "uint256"
        }
      ],
      "name": "burn",
      "outputs": [],
      "stateMutability": "nonpayable",
      "type": "function"
    }
  ],
  "bytecode": "0x60806040526009805460ff60a81b1960ff60a01b19909116600160a01b171690553480156200002d57600080fd5b50604051620018ae380380620018ae833981810160405260208110156200005357600080fd5b5051604080518082018252600d81526c2232b334b7b732902a37b5b2b760991b602082810191825283518085019094526004845263444f4e4560e01b908401528151919291620000a69160039162000146565b508051620000bc90600490602084019062000146565b505060058054601260ff1990911617610100600160a81b03191661010033908102919091179091556040519091506000907f8be0079c531659141344cd1fd0a4f28419497f9722a3daafe3b4186f6b6457e0908290a360088054336001600160a01b031991821617909155600780549091166001600160a01b0392909216919091179055620001e2565b828054600181600116156101000203166002900490600052602060002090601f016020900481019282601f106200018957805160ff1916838001178555620001b9565b82800160010185558215620001b9579182015b82811115620001b95782518255916020019190600101906200019c565b50620001c7929150620001cb565b5090565b5b80821115620001c75760008155600101620001cc565b6116bc80620001f26000396000f3fe608060405234801561001057600080fd5b50600436106101a95760003560e01c8063524773ce116100f95780639dc29fac11610097578063a9059cbb11610071578063a9059cbb146104c3578063da09c72c146104ef578063dd62ed3e146104f7578063e30c397814610525576101a9565b80639dc29fac14610463578063a3c573eb1461048f578063a457c2d714610497576101a9565b80638c2a993e116100d35780638c2a993e146104015780638d88a90e1461042d5780638da5cb5b1461045357806395d89b411461045b576101a9565b8063524773ce146103ad57806370a08231146103b55780637f5a22f9146103db576101a9565b80631b89ee31116101665780633950935111610140578063395093511461034557806339afd14e1461037157806340c10f19146103795780634e71e0c8146103a5576101a9565b80631b89ee31146102e957806323b872dd146102f1578063313ce56714610327576101a9565b806306fdde03146101ae578063078dfbe71461022b57806308702e0914610263578063095ea7b31461027f578063160d66ae146102ab57806318160ddd146102cf575b600080fd5b6101b661052d565b6040805160208082528351818301528351919283929083019185019080838360005b838110156101f05781810151838201526020016101d8565b50505050905090810190601f16801561021d5780820380516001836020036101000a031916815260200191505b509250505060405180910390f35b6102616004803603606081101561024157600080fd5b506001600160a01b038135169060208101351515906040013515156105c3565b005b61026b61071f565b604080519115158252519081900360200190f35b61026b6004803603604081101561029557600080fd5b506001600160a01b03813516906020013561072f565b6102b361074c565b604080516001600160a01b039092168252519081900360200190f35b6102d761075b565b60408051918252519081900360200190f35b610261610761565b61026b6004803603606081101561030757600080fd5b506001600160a01b038135811691602081013590911690604001356107bb565b61032f610842565b6040805160ff9092168252519081900360200190f35b61026b6004803603604081101561035b57600080fd5b506001600160a01b03813516906020013561084b565b61026b610899565b6102616004803603604081101561038f57600080fd5b506001600160a01b0381351690602001356108a9565b6102616109c7565b6102d7610a9e565b6102d7600480360360208110156103cb57600080fd5b50356001600160a01b0316610aa4565b610261600480360360208110156103f157600080fd5b50356001600160a01b0316610abf565b6102616004803603604081101561041757600080fd5b506001600160a01b038135169060200135610b96565b6102616004803603602081101561044357600080fd5b50356001600160a01b0316610d59565b6102b3610dcc565b6101b6610de0565b6102616004803603604081101561047957600080fd5b506001600160a01b038135169060200135610e41565b6102b3610e9e565b61026b600480360360408110156104ad57600080fd5b506001600160a01b038135169060200135610ead565b61026b600480360360408110156104d957600080fd5b506001600160a01b038135169060200135610f15565b6102b3610f29565b6102d76004803603604081101561050d57600080fd5b506001600160a01b0381358116916020013516610f38565b6102b3610f63565b60038054604080516020601f60026000196101006001881615020190951694909404938401819004810282018101909252828152606093909290918301828280156105b95780601f1061058e576101008083540402835291602001916105b9565b820191906000526020600020905b81548152906001019060200180831161059c57829003601f168201915b5050505050905090565b60055461010090046001600160a01b03163314610627576040805162461bcd60e51b815260206004820181905260248201527f4f776e61626c653a2063616c6c6572206973206e6f7420746865206f776e6572604482015290519081900360640190fd5b81156106fe576001600160a01b0383161515806106415750805b61068a576040805162461bcd60e51b81526020600482015260156024820152744f776e61626c653a207a65726f206164647265737360581b604482015290519081900360640190fd5b6005546040516001600160a01b0380861692610100900416907f8be0079c531659141344cd1fd0a4f28419497f9722a3daafe3b4186f6b6457e090600090a360058054610100600160a81b0319166101006001600160a01b03861602179055600680546001600160a01b031916905561071a565b600680546001600160a01b0319166001600160a01b0385161790555b505050565b600954600160a01b900460ff1681565b600061074361073c610f72565b8484610f76565b50600192915050565b6007546001600160a01b031681565b60025490565b6008546001600160a01b0316331461077857600080fd5b6009805460ff60a01b19169055604080516001815290517f881ba03d4a15e36ab81a2104076e89c6c509ca69371b7b4aacc6c54921de66119181900360200190a1565b60006107c8848484611062565b610838846107d4610f72565b6108338560405180606001604052806028815260200161158c602891396001600160a01b038a16600090815260016020526040812090610812610f72565b6001600160a01b0316815260208101919091526040016000205491906111bd565b610f76565b5060019392505050565b60055460ff1690565b6000610743610858610f72565b846108338560016000610869610f72565b6001600160a01b03908116825260208083019390935260409182016000908120918c168152925290205490611254565b600954600160a81b900460ff1681565b60055461010090046001600160a01b0316331461090d576040805162461bcd60e51b815260206004820181905260248201527f4f776e61626c653a2063616c6c6572206973206e6f7420746865206f776e6572604482015290519081900360640190fd5b600754604080516340c10f1960e01b81526001600160a01b03858116600483015260248201859052915191909216916340c10f1991604480830192600092919082900301818387803b15801561096257600080fd5b505af1158015610976573d6000803e3d6000fd5b5050505061098482826112b5565b6040805182815290516001600160a01b038416917f0f6798a560793a54c3bcfe86a93cde1e73087d944c0ea20544137d4121396885919081900360200190a25050565b6006546001600160a01b0316338114610a27576040805162461bcd60e51b815260206004820181905260248201527f4f776e61626c653a2063616c6c657220213d2070656e64696e67206f776e6572604482015290519081900360640190fd5b6005546040516001600160a01b0380841692610100900416907f8be0079c531659141344cd1fd0a4f28419497f9722a3daafe3b4186f6b6457e090600090a3600580546001600160a01b0390921661010002610100600160a81b0319909216919091179055600680546001600160a01b0319169055565b600a5481565b6001600160a01b031660009081526020819052604090205490565b6008546001600160a01b03163314610ad657600080fd5b600954600160a81b900460ff1615610b2c576040805162461bcd60e51b815260206004820152601460248201527343616e206f6e6c7920626520736574206f6e636560601b604482015290519081900360640190fd5b6009546040516001600160a01b038084169216907fbd3222ede8945253aebc8d1aac208df0baf898be3ef32e45c97346b64b5b310c90600090a36009805460ff60a81b196001600160a01b039093166001600160a01b03199091161791909116600160a81b179055565b6009546001600160a01b03163314610bdf5760405162461bcd60e51b815260040180806020018281038252602181526020018061161e6021913960400191505060405180910390fd5b6009546001600160a01b0316610c3c576040805162461bcd60e51b815260206004820152601b60248201527f5265766572743a20427269646765206d757374206265207365742e0000000000604482015290519081900360640190fd5b600954600160a01b900460ff161515600114610c9f576040805162461bcd60e51b815260206004820152601c60248201527f5265766572743a20427269646765206d757374206265206f70656e2e00000000604482015290519081900360640190fd5b600754604080516340c10f1960e01b81526001600160a01b03858116600483015260248201859052915191909216916340c10f1991604480830192600092919082900301818387803b158015610cf457600080fd5b505af1158015610d08573d6000803e3d6000fd5b50505050610d1682826112b5565b6040805182815290516001600160a01b038416917f397b33b307fc137878ebfc75b295289ec0ee25a31bb5bf034f33256fe8ea2aa6919081900360200190a25050565b6008546001600160a01b03163314610d7057600080fd5b6008546040516001600160a01b038084169216907f5d777218f34a12264a9fec685df1868059eeec6d632b17a1775a00089e57533a90600090a3600880546001600160a01b0319166001600160a01b0392909216919091179055565b60055461010090046001600160a01b031681565b60048054604080516020601f60026000196101006001881615020190951694909404938401819004810282018101909252828152606093909290918301828280156105b95780601f1061058e576101008083540402835291602001916105b9565b6001600160a01b0382163314610e885760405162461bcd60e51b815260040180806020018281038252602381526020018061163f6023913960400191505060405180910390fd5b610e9282826113a5565b600a8054909101905550565b6009546001600160a01b031681565b6000610743610eba610f72565b84610833856040518060600160405280602581526020016116626025913960016000610ee4610f72565b6001600160a01b03908116825260208083019390935260409182016000908120918d168152925290205491906111bd565b6000610743610f22610f72565b8484611062565b6008546001600160a01b031681565b6001600160a01b03918216600090815260016020908152604080832093909416825291909152205490565b6006546001600160a01b031681565b3390565b6001600160a01b038316610fbb5760405162461bcd60e51b81526004018080602001828103825260248152602001806115fa6024913960400191505060405180910390fd5b6001600160a01b0382166110005760405162461bcd60e51b81526004018080602001828103825260228152602001806115446022913960400191505060405180910390fd5b6001600160a01b03808416600081815260016020908152604080832094871680845294825291829020859055815185815291517f8c5be1e5ebec7d5bd14f71427d1e84f3dd0314c0f7b2291e5b200ac8c7c3b9259281900390910190a3505050565b6001600160a01b0383166110a75760405162461bcd60e51b81526004018080602001828103825260258152602001806115d56025913960400191505060405180910390fd5b6001600160a01b0382166110ec5760405162461bcd60e51b81526004018080602001828103825260238152602001806114ff6023913960400191505060405180910390fd5b6110f783838361071a565b61113481604051806060016040528060268152602001611566602691396001600160a01b03861660009081526020819052604090205491906111bd565b6001600160a01b0380851660009081526020819052604080822093909355908416815220546111639082611254565b6001600160a01b038084166000818152602081815260409182902094909455805185815290519193928716927fddf252ad1be2c89b69c2b068fc378daa952ba7f163c4a11628f55a4df523b3ef92918290030190a3505050565b6000818484111561124c5760405162461bcd60e51b81526004018080602001828103825283818151815260200191508051906020019080838360005b838110156112115781810151838201526020016111f9565b50505050905090810190601f16801561123e5780820380516001836020036101000a031916815260200191505b509250505060405180910390fd5b505050900390565b6000828201838110156112ae576040805162461bcd60e51b815260206004820152601b60248201527f536166654d6174683a206164646974696f6e206f766572666c6f770000000000604482015290519081900360640190fd5b9392505050565b6001600160a01b038216611310576040805162461bcd60e51b815260206004820152601f60248201527f45524332303a206d696e7420746f20746865207a65726f206164647265737300604482015290519081900360640190fd5b61131c6000838361071a565b6002546113299082611254565b6002556001600160a01b03821660009081526020819052604090205461134f9082611254565b6001600160a01b0383166000818152602081815260408083209490945583518581529351929391927fddf252ad1be2c89b69c2b068fc378daa952ba7f163c4a11628f55a4df523b3ef9281900390910190a35050565b6001600160a01b0382166113ea5760405162461bcd60e51b81526004018080602001828103825260218152602001806115b46021913960400191505060405180910390fd5b6113f68260008361071a565b61143381604051806060016040528060228152602001611522602291396001600160a01b03851660009081526020819052604090205491906111bd565b6001600160a01b03831660009081526020819052604090205560025461145990826114a1565b6002556040805182815290516000916001600160a01b038516917fddf252ad1be2c89b69c2b068fc378daa952ba7f163c4a11628f55a4df523b3ef9181900360200190a35050565b6000828211156114f8576040805162461bcd60e51b815260206004820152601e60248201527f536166654d6174683a207375627472616374696f6e206f766572666c6f770000604482015290519081900360640190fd5b5090039056fe45524332303a207472616e7366657220746f20746865207a65726f206164647265737345524332303a206275726e20616d6f756e7420657863656564732062616c616e636545524332303a20617070726f766520746f20746865207a65726f206164647265737345524332303a207472616e7366657220616d6f756e7420657863656564732062616c616e636545524332303a207472616e7366657220616d6f756e74206578636565647320616c6c6f77616e636545524332303a206275726e2066726f6d20746865207a65726f206164647265737345524332303a207472616e736665722066726f6d20746865207a65726f206164647265737345524332303a20617070726f76652066726f6d20746865207a65726f20616464726573735265766572743a206d7573742062652063616c6c6564206279206272696467652e596f752063616e2774206275726e20746f6b656e7320796f7520646f6e74206f776e2e45524332303a2064656372656173656420616c6c6f77616e63652062656c6f77207a65726fa26469706673582212201c2f1c8e4c8d93e03220cf47a431da8a34286016a984973836fbda3c964ca62f64736f6c634300060c0033",
  "immutableReferences": {},
  "source": "// SPDX-License-Identifier: MIT\r\n\r\npragma solidity 0.6.12;\r\n\r\nimport \"@openzeppelin/contracts/token/ERC20/ERC20.sol\";\r\nimport \"./interfaces/IDefioneVote.sol\";\r\nimport \"./Ownable.sol\";\r\n\r\n\r\n// Defione Token with bridge token logic and non-transferable non-valuable Vote token\r\n\r\n//Bridge\r\n// it can only be closed.\r\n// it can only be set once\r\n// Bridge Setter is set during deployement to add bridge address after deployement, //Bridge needs Defione to be deployed prior\r\n// then it is set at 0 address to remove the right to change bridge address.\r\n// Dev address can only change itself, and close bridge. has no power over anything.\r\n\r\n//Defione Token\r\n//Can Only be minted by Masterchef\r\n//Can be burnt\r\n//Is the owner of VoteTokens\r\n//Mints VoteTokens 1:1 Defione Tokens\r\n\r\n\r\ncontract DefioneToken is ERC20(\"Defione Token\", \"DONE\"), Ownable {\r\n    IDefioneVote public voteToken;\r\n    address public devAddr;\r\n    address public bridgeAddress;\r\n    bool public bridgeOpen = true;\r\n    bool public bridgeSet = false;\r\n\r\n    uint256 public burnCount;\r\n\r\n\r\n    event Mint(address indexed user, uint amount);\r\n    event BridgeMint(address indexed user, uint amount);\r\n    event BridgeAddressChange(address indexed oldAddr, address indexed newAddr);\r\n    event BridgeClosed(bool isClosed);\r\n    event DevChanged(address indexed oldAddr, address indexed newAddr);\r\n   \r\n    modifier bridgeChecks{\r\n        require(msg.sender == bridgeAddress, \"Revert: must be called by bridge.\");\r\n        require(bridgeAddress != address(0), 'Revert: Bridge must be set.');\r\n        require(bridgeOpen == true, 'Revert: Bridge must be open.');\r\n        _;\r\n    }\r\n\r\n    modifier onlyDev{\r\n        require(msg.sender == devAddr);\r\n        _;\r\n    }\r\n\r\n    constructor(IDefioneVote _voteAddress) public{\r\n        devAddr = msg.sender;\r\n        voteToken = _voteAddress;\r\n    }\r\n\r\n    function mint(address _to, uint256 _amount) public onlyOwner {\r\n        voteToken.mint(_to, _amount);\r\n        _mint(_to, _amount);\r\n        emit Mint(_to, _amount);\r\n    }\r\n\r\n    function bridgeMint(address _to, uint256 _amount) public bridgeChecks {\r\n        voteToken.mint(_to, _amount);\r\n        _mint(_to, _amount);\r\n        emit BridgeMint(_to, _amount);\r\n    }\r\n\r\n    function setBridgeAddress(address _bridgeAddress) public onlyDev {\r\n        require(bridgeSet == false, \"Can only be set once\");\r\n        emit BridgeAddressChange(bridgeAddress,_bridgeAddress);\r\n        bridgeAddress = _bridgeAddress;\r\n        bridgeSet = true;\r\n    }\r\n\r\n    function closeBridge() public onlyDev{\r\n        bridgeOpen = false;\r\n        emit BridgeClosed(true);\r\n    }\r\n\r\n    function dev(address _dev) public onlyDev{\r\n        emit DevChanged(devAddr,_dev);\r\n        devAddr = _dev;\r\n    }\r\n\r\n    function burn(address _account, uint256 _amount) public {\r\n        require(_account == msg.sender, \"You can't burn tokens you dont own.\");\r\n        _burn(_account, _amount);\r\n        burnCount = burnCount + _amount;\r\n    }\r\n}",
  "sourcePath": "/opt/defione/defione-core/contracts/DefioneToken.sol",
  "compiler": {
    "name": "solc",
    "version": "0.6.12+commit.27d51765.Emscripten.clang"
  },
  "schemaVersion": "3.2.4",
  "updatedAt": "2022-01-17T07:37:00.368Z",
  "networkType": "ethereum",
  "devdoc": {
    "kind": "dev",
    "methods": {
      "allowance(address,address)": {
        "details": "See {IERC20-allowance}."
      },
      "approve(address,uint256)": {
        "details": "See {IERC20-approve}. Requirements: - `spender` cannot be the zero address."
      },
      "balanceOf(address)": {
        "details": "See {IERC20-balanceOf}."
      },
      "decimals()": {
        "details": "Returns the number of decimals used to get its user representation. For example, if `decimals` equals `2`, a balance of `505` tokens should be displayed to a user as `5,05` (`505 / 10 ** 2`). Tokens usually opt for a value of 18, imitating the relationship between Ether and Wei. This is the value {ERC20} uses, unless {_setupDecimals} is called. NOTE: This information is only used for _display_ purposes: it in no way affects any of the arithmetic of the contract, including {IERC20-balanceOf} and {IERC20-transfer}."
      },
      "decreaseAllowance(address,uint256)": {
        "details": "Atomically decreases the allowance granted to `spender` by the caller. This is an alternative to {approve} that can be used as a mitigation for problems described in {IERC20-approve}. Emits an {Approval} event indicating the updated allowance. Requirements: - `spender` cannot be the zero address. - `spender` must have allowance for the caller of at least `subtractedValue`."
      },
      "increaseAllowance(address,uint256)": {
        "details": "Atomically increases the allowance granted to `spender` by the caller. This is an alternative to {approve} that can be used as a mitigation for problems described in {IERC20-approve}. Emits an {Approval} event indicating the updated allowance. Requirements: - `spender` cannot be the zero address."
      },
      "name()": {
        "details": "Returns the name of the token."
      },
      "symbol()": {
        "details": "Returns the symbol of the token, usually a shorter version of the name."
      },
      "totalSupply()": {
        "details": "See {IERC20-totalSupply}."
      },
      "transfer(address,uint256)": {
        "details": "See {IERC20-transfer}. Requirements: - `recipient` cannot be the zero address. - the caller must have a balance of at least `amount`."
      },
      "transferFrom(address,address,uint256)": {
        "details": "See {IERC20-transferFrom}. Emits an {Approval} event indicating the updated allowance. This is not required by the EIP. See the note at the beginning of {ERC20}. Requirements: - `sender` and `recipient` cannot be the zero address. - `sender` must have a balance of at least `amount`. - the caller must have allowance for ``sender``'s tokens of at least `amount`."
      }
    },
    "version": 1
  },
  "userdoc": {
    "kind": "user",
    "methods": {},
    "version": 1
  }
}