{
  "contractName": "DefioneBridge",
  "abi": [
    {
      "inputs": [
        {
          "internalType": "contract IERC20",
          "name": "_defioneV1",
          "type": "address"
        },
        {
          "internalType": "contract DefioneToken",
          "name": "_defioneV2",
          "type": "address"
        }
      ],
      "stateMutability": "nonpayable",
      "type": "constructor"
    },
    {
      "anonymous": false,
      "inputs": [
        {
          "indexed": true,
          "internalType": "address",
          "name": "user",
          "type": "address"
        },
        {
          "indexed": false,
          "internalType": "uint256",
          "name": "amount",
          "type": "uint256"
        }
      ],
      "name": "Bridge",
      "type": "event"
    },
    {
      "inputs": [],
      "name": "burnAddress",
      "outputs": [
        {
          "internalType": "address",
          "name": "",
          "type": "address"
        }
      ],
      "stateMutability": "view",
      "type": "function"
    },
    {
      "inputs": [],
      "name": "defioneV1",
      "outputs": [
        {
          "internalType": "contract IERC20",
          "name": "",
          "type": "address"
        }
      ],
      "stateMutability": "view",
      "type": "function"
    },
    {
      "inputs": [],
      "name": "defioneV2",
      "outputs": [
        {
          "internalType": "contract DefioneToken",
          "name": "",
          "type": "address"
        }
      ],
      "stateMutability": "view",
      "type": "function"
    },
    {
      "inputs": [
        {
          "internalType": "uint256",
          "name": "_amount",
          "type": "uint256"
        }
      ],
      "name": "convert",
      "outputs": [],
      "stateMutability": "nonpayable",
      "type": "function"
    }
  ],
  "bytecode": "0x6080604052600380546001600160a01b03191661dead60901b17905534801561002757600080fd5b506040516103d13803806103d18339818101604052604081101561004a57600080fd5b5080516020909101516001600081905580546001600160a01b039384166001600160a01b0319918216179091556002805493909216921691909117905561033b806100966000396000f3fe608060405234801561001057600080fd5b506004361061004c5760003560e01c8063328d327e1461005157806370d5ae0514610075578063a3908e1b1461007d578063da116f9a1461009c575b600080fd5b6100596100a4565b604080516001600160a01b039092168252519081900360200190f35b6100596100b3565b61009a6004803603602081101561009357600080fd5b50356100c2565b005b6100596102f6565b6001546001600160a01b031681565b6003546001600160a01b031681565b6002600054141561011a576040805162461bcd60e51b815260206004820152601f60248201527f5265656e7472616e637947756172643a207265656e7472616e742063616c6c00604482015290519081900360640190fd5b6002600055333214610173576040805162461bcd60e51b815260206004820152601760248201527f4d7573742062652063616c6c6564206469726563746c79000000000000000000604482015290519081900360640190fd5b600154600354604080516323b872dd60e01b81523360048201526001600160a01b03928316602482015260448101859052905160009392909216916323b872dd9160648082019260209290919082900301818787803b1580156101d557600080fd5b505af11580156101e9573d6000803e3d6000fd5b505050506040513d60208110156101ff57600080fd5b5051905060018115151461024c576040805162461bcd60e51b815260206004820152600f60248201526e1d1c985b9cd9995c8819985a5b1959608a1b604482015290519081900360640190fd5b600254604080516346154c9f60e11b81523360048201526024810185905290516001600160a01b0390921691638c2a993e9160448082019260009290919082900301818387803b15801561029f57600080fd5b505af11580156102b3573d6000803e3d6000fd5b50506040805185815290513393507f22e3f162fca16dc0fcfb65eddf406531a0c555a2c24c58cf5d10fc2d202a882e92509081900360200190a250506001600055565b6002546001600160a01b03168156fea2646970667358221220dc6a81ba0a98b2abdab08ff38db3a7048a161f55976c273942567543ec6f451564736f6c634300060c0033",
  "immutableReferences": {},
  "source": "// SPDX-License-Identifier: MIT\r\n\r\npragma solidity 0.6.12;\r\n\r\nimport \"@openzeppelin/contracts/token/ERC20/IERC20.sol\";\r\nimport \"@openzeppelin/contracts/utils/ReentrancyGuard.sol\";\r\nimport \"./DefioneToken.sol\";\r\n\r\n\r\ncontract DefioneBridge is ReentrancyGuard {\r\n\tIERC20 public defioneV1;\r\n\tDefioneToken public defioneV2;\r\n\taddress public burnAddress = 0xdEad000000000000000000000000000000000000;\r\n\r\n\tconstructor(IERC20 _defioneV1, DefioneToken _defioneV2) public {\r\n\t\tdefioneV1 = _defioneV1;\r\n\t\tdefioneV2 = _defioneV2;\r\n\t}\r\n\r\n\tevent Bridge(address indexed user, uint amount);\r\n\r\n\tfunction convert(uint256 _amount) public nonReentrant {\r\n\t\trequire(msg.sender == tx.origin, \"Must be called directly\");\r\n\r\n\t\tbool success = false;\r\n\r\n\t\tsuccess = defioneV1.transferFrom(msg.sender, burnAddress, _amount);\r\n\r\n\t\trequire(success == true, 'transfer failed');\r\n\r\n\t\tdefioneV2.bridgeMint(msg.sender, _amount);\r\n\t\temit Bridge(msg.sender, _amount);\r\n\t\t\r\n\t}\r\n}",
  "sourcePath": "/opt/defione/defione-core/contracts/DefioneBridge.sol",
  "compiler": {
    "name": "solc",
    "version": "0.6.12+commit.27d51765.Emscripten.clang"
  },
  "schemaVersion": "3.2.4",
  "updatedAt": "2022-01-20T03:32:03.647Z",
  "devdoc": {
    "kind": "dev",
    "methods": {},
    "version": 1
  },
  "userdoc": {
    "kind": "user",
    "methods": {},
    "version": 1
  }
}