{
  "contractName": "delegateContract",
  "abi": [
    {
      "anonymous": false,
      "inputs": [
        {
          "indexed": true,
          "internalType": "address",
          "name": "previousOwner",
          "type": "address"
        },
        {
          "indexed": true,
          "internalType": "address",
          "name": "newOwner",
          "type": "address"
        }
      ],
      "name": "OwnershipTransferred",
      "type": "event"
    },
    {
      "inputs": [],
      "name": "bbusd",
      "outputs": [
        {
          "internalType": "address",
          "name": "",
          "type": "address"
        }
      ],
      "stateMutability": "view",
      "type": "function"
    },
    {
      "inputs": [],
      "name": "claimOwnership",
      "outputs": [],
      "stateMutability": "nonpayable",
      "type": "function"
    },
    {
      "inputs": [
        {
          "internalType": "address",
          "name": "",
          "type": "address"
        }
      ],
      "name": "delegatorStats",
      "outputs": [
        {
          "internalType": "address",
          "name": "delegatorAddr",
          "type": "address"
        },
        {
          "internalType": "uint256",
          "name": "oneStaked",
          "type": "uint256"
        },
        {
          "internalType": "uint256",
          "name": "oxratio",
          "type": "uint256"
        },
        {
          "internalType": "uint256",
          "name": "earnedOne",
          "type": "uint256"
        },
        {
          "internalType": "uint256",
          "name": "earnedDone",
          "type": "uint256"
        },
        {
          "internalType": "uint256",
          "name": "earnedUsd",
          "type": "uint256"
        }
      ],
      "stateMutability": "view",
      "type": "function"
    },
    {
      "inputs": [],
      "name": "done",
      "outputs": [
        {
          "internalType": "address",
          "name": "",
          "type": "address"
        }
      ],
      "stateMutability": "view",
      "type": "function"
    },
    {
      "inputs": [],
      "name": "factory",
      "outputs": [
        {
          "internalType": "contract IUniswapV2Factory",
          "name": "",
          "type": "address"
        }
      ],
      "stateMutability": "view",
      "type": "function"
    },
    {
      "inputs": [],
      "name": "owner",
      "outputs": [
        {
          "internalType": "address",
          "name": "",
          "type": "address"
        }
      ],
      "stateMutability": "view",
      "type": "function"
    },
    {
      "inputs": [],
      "name": "pendingOwner",
      "outputs": [
        {
          "internalType": "address",
          "name": "",
          "type": "address"
        }
      ],
      "stateMutability": "view",
      "type": "function"
    },
    {
      "inputs": [
        {
          "internalType": "address",
          "name": "newOwner",
          "type": "address"
        },
        {
          "internalType": "bool",
          "name": "direct",
          "type": "bool"
        },
        {
          "internalType": "bool",
          "name": "renounce",
          "type": "bool"
        }
      ],
      "name": "transferOwnership",
      "outputs": [],
      "stateMutability": "nonpayable",
      "type": "function"
    },
    {
      "inputs": [],
      "name": "weth",
      "outputs": [
        {
          "internalType": "address",
          "name": "",
          "type": "address"
        }
      ],
      "stateMutability": "view",
      "type": "function"
    },
    {
      "inputs": [
        {
          "internalType": "address",
          "name": "_contract",
          "type": "address"
        }
      ],
      "name": "setMultiTransfer",
      "outputs": [],
      "stateMutability": "nonpayable",
      "type": "function"
    },
    {
      "inputs": [
        {
          "internalType": "uint256",
          "name": "_ratio",
          "type": "uint256"
        }
      ],
      "name": "setRatioPercentageDefione",
      "outputs": [],
      "stateMutability": "nonpayable",
      "type": "function"
    },
    {
      "inputs": [
        {
          "internalType": "address",
          "name": "_user",
          "type": "address"
        }
      ],
      "name": "getRatio",
      "outputs": [
        {
          "internalType": "uint256",
          "name": "",
          "type": "uint256"
        }
      ],
      "stateMutability": "view",
      "type": "function"
    },
    {
      "inputs": [
        {
          "internalType": "address",
          "name": "userAddr",
          "type": "address"
        },
        {
          "internalType": "uint256",
          "name": "stakedAmount",
          "type": "uint256"
        },
        {
          "internalType": "uint256",
          "name": "doneAmount",
          "type": "uint256"
        },
        {
          "internalType": "uint256",
          "name": "oneAmount",
          "type": "uint256"
        }
      ],
      "name": "logUser",
      "outputs": [],
      "stateMutability": "nonpayable",
      "type": "function"
    },
    {
      "inputs": [
        {
          "internalType": "address",
          "name": "fromToken",
          "type": "address"
        },
        {
          "internalType": "address",
          "name": "toToken",
          "type": "address"
        },
        {
          "internalType": "uint256",
          "name": "amountIn",
          "type": "uint256"
        }
      ],
      "name": "valueUSD",
      "outputs": [
        {
          "internalType": "uint256",
          "name": "",
          "type": "uint256"
        }
      ],
      "stateMutability": "nonpayable",
      "type": "function"
    }
  ],
  "bytecode": "0x60a0604052600480546001600160a01b0319908116730ab43550a6915f9f67d0c454c2e90385e6497eaa17909155600580548216732efb50049c2db2309934f1cc48fe1163c5607b771790556006805490911673cf664087a5bb0237a0bad6742852ec6c8d69a27a1790557fc77c11b0374861c59da20101c972c2ff63c90e8a00000000000000000000000060805234801561009a57600080fd5b50600080546001600160a01b0319163390811782556040519091907f8be0079c531659141344cd1fd0a4f28419497f9722a3daafe3b4186f6b6457e0908290a360805160601c610b5b6100fc600039806105b852806109555250610b5b6000f3fe608060405234801561001057600080fd5b50600436106100ea5760003560e01c8063754b27071161008c578063af02c04211610066578063af02c04214610262578063c45a01551461029a578063df64b220146102a2578063e30c3978146102bf576100ea565b8063754b27071461022c5780638da5cb5b14610252578063ae8421e11461025a576100ea565b80633fc8cef3116100c85780633fc8cef3146101ae5780634e71e0c8146101b65780635a5a770a146101be5780635e5dddd7146101e4576100ea565b8063078dfbe7146100ef57806328a670a61461012757806328b39bcf1461018a575b600080fd5b6101256004803603606081101561010557600080fd5b506001600160a01b038135169060208101351515906040013515156102c7565b005b61014d6004803603602081101561013d57600080fd5b50356001600160a01b031661040f565b604080516001600160a01b0390971687526020870195909552858501939093526060850191909152608084015260a0830152519081900360c00190f35b610192610450565b604080516001600160a01b039092168252519081900360200190f35b61019261045f565b61012561046e565b610125600480360360208110156101d457600080fd5b50356001600160a01b0316610530565b61021a600480360360608110156101fa57600080fd5b506001600160a01b038135811691602081013590911690604001356105b1565b60408051918252519081900360200190f35b61021a6004803603602081101561024257600080fd5b50356001600160a01b03166107ee565b610192610826565b610192610835565b6101256004803603608081101561027857600080fd5b506001600160a01b038135169060208101359060408101359060600135610844565b610192610953565b610125600480360360208110156102b857600080fd5b5035610977565b610192610a39565b6000546001600160a01b03163314610326576040805162461bcd60e51b815260206004820181905260248201527f4f776e61626c653a2063616c6c6572206973206e6f7420746865206f776e6572604482015290519081900360640190fd5b81156103ee576001600160a01b0383161515806103405750805b610389576040805162461bcd60e51b81526020600482015260156024820152744f776e61626c653a207a65726f206164647265737360581b604482015290519081900360640190fd5b600080546040516001600160a01b03808716939216917f8be0079c531659141344cd1fd0a4f28419497f9722a3daafe3b4186f6b6457e091a3600080546001600160a01b0385166001600160a01b03199182161790915560018054909116905561040a565b600180546001600160a01b0319166001600160a01b0385161790555b505050565b60026020819052600091825260409091208054600182015492820154600383015460048401546005909401546001600160a01b039093169493919290919086565b6004546001600160a01b031681565b6006546001600160a01b031681565b6001546001600160a01b03163381146104ce576040805162461bcd60e51b815260206004820181905260248201527f4f776e61626c653a2063616c6c657220213d2070656e64696e67206f776e6572604482015290519081900360640190fd5b600080546040516001600160a01b03808516939216917f8be0079c531659141344cd1fd0a4f28419497f9722a3daafe3b4186f6b6457e091a3600080546001600160a01b039092166001600160a01b0319928316179055600180549091169055565b6000546001600160a01b0316331461058f576040805162461bcd60e51b815260206004820181905260248201527f4f776e61626c653a2063616c6c6572206973206e6f7420746865206f776e6572604482015290519081900360640190fd5b600380546001600160a01b0319166001600160a01b0392909216919091179055565b60008060007f00000000000000000000000000000000000000000000000000000000000000006001600160a01b031663e6a4390587876040518363ffffffff1660e01b815260040180836001600160a01b03168152602001826001600160a01b031681526020019250505060206040518083038186803b15801561063457600080fd5b505afa158015610648573d6000803e3d6000fd5b505050506040513d602081101561065e57600080fd5b505160408051630240bc6b60e21b8152905191925060009182916001600160a01b03851691630902f1ac91600480820192606092909190829003018186803b1580156106a957600080fd5b505afa1580156106bd573d6000803e3d6000fd5b505050506040513d60608110156106d357600080fd5b5080516020909101516dffffffffffffffffffffffffffff91821693501690506000610701876103e5610a48565b9050836001600160a01b0316630dfe16816040518163ffffffff1660e01b815260040160206040518083038186803b15801561073c57600080fd5b505afa158015610750573d6000803e3d6000fd5b505050506040513d602081101561076657600080fd5b50516001600160a01b038a8116911614156107b6576107918161078b856103e8610a48565b90610aaa565b6107a7836107a18a6103e5610a48565b90610a48565b816107ae57fe5b0494506107e1565b6107c68161078b846103e8610a48565b6107d6846107a18a6103e5610a48565b816107dd57fe5b0494505b5092979650505050505050565b6001600160a01b038116600090815260026020819052604082209081015461081a576064915050610821565b6002015490505b919050565b6000546001600160a01b031681565b6005546001600160a01b031681565b6003546001600160a01b0316331461088c576040805162461bcd60e51b815260206004808301919091526024820152632737b71760e11b604482015290519081900360640190fd5b6001600160a01b03841660009081526002602052604081209082156108cb576006546004546108c8916001600160a01b039081169116856105b1565b90505b6005546004546000916108eb916001600160a01b039182169116876105b1565b600584018054820184019055600384018054860190556004840180548701905583549091506001600160a01b03166109375782546001600160a01b0319166001600160a01b0388161783555b8260010154861461094a57600183018690555b50505050505050565b7f000000000000000000000000000000000000000000000000000000000000000081565b601e8110156109cd576040805162461bcd60e51b815260206004820152601b60248201527f4d696e696d756d206d7573742062652033302520444f4e452e2e2e0000000000604482015290519081900360640190fd5b6064811115610a23576040805162461bcd60e51b815260206004820152601b60248201527f4f6e6c7920757020746f20313030252e204c6f76652c206465762e0000000000604482015290519081900360640190fd5b3260009081526002602081905260409091200155565b6001546001600160a01b031681565b600082610a5757506000610aa4565b82820282848281610a6457fe5b0414610aa15760405162461bcd60e51b8152600401808060200182810382526021815260200180610b056021913960400191505060405180910390fd5b90505b92915050565b600082820183811015610aa1576040805162461bcd60e51b815260206004820152601b60248201527f536166654d6174683a206164646974696f6e206f766572666c6f770000000000604482015290519081900360640190fdfe536166654d6174683a206d756c7469706c69636174696f6e206f766572666c6f77a26469706673582212208bc43dbd8ce2a1b6ff94c46ffebf0cc0aa84ce6ef2bd080eb1bb58db2510223b64736f6c634300060c0033",
  "immutableReferences": {
    "4934": [
      {
        "length": 32,
        "start": 1464
      },
      {
        "length": 32,
        "start": 2389
      }
    ]
  },
  "source": "// SPDX-License-Identifier: MIT\n\npragma solidity 0.6.12;\n\nimport \"./Ownable.sol\";\nimport \"@openzeppelin/contracts/math/SafeMath.sol\";\nimport \"./uniswapv2/interfaces/IUniswapV2ERC20.sol\";\nimport \"./uniswapv2/interfaces/IUniswapV2Pair.sol\";\nimport \"./uniswapv2/interfaces/IUniswapV2Factory.sol\";\n\ncontract delegateContract is Ownable{\n\tusing SafeMath for uint256;\n\tmapping(address => delegatorData) public delegatorStats;\n\taddress private multiTransfer;\n\taddress public bbusd = 0x0aB43550A6915F9f67d0c454C2E90385E6497EaA;\n\taddress public done = 0x2eFb50049C2dB2309934f1Cc48fE1163C5607b77;\n\taddress public weth = 0xcF664087a5bB0237a0BAd6742852ec6c8d69A27a;\n\n\tIUniswapV2Factory public immutable factory = IUniswapV2Factory(0xc77C11b0374861C59da20101C972c2fF63C90E8A);\n\n\tstruct delegatorData {\n\t   address delegatorAddr;\n\t   uint256 oneStaked;\n\t   uint256 oxratio;\n\t   uint256 earnedOne;\n\t   uint256 earnedDone;\n\t   uint256 earnedUsd;\n\t}\n\n\tmodifier onlyMultiTransfer{\n\t\trequire(msg.sender == multiTransfer, \"Non.\");\n\t\t _;\n\t}\n\n\tfunction setMultiTransfer(address _contract) public onlyOwner{\n\t\tmultiTransfer = _contract;\n\t}\n\n\tfunction setRatioPercentageDefione(uint256 _ratio) public {\n\t\trequire(_ratio >= 30, \"Minimum must be 30% DONE...\");\n\t\trequire(_ratio <= 100, \"Only up to 100%. Love, dev.\");\n\t\tdelegatorData storage del = delegatorStats[tx.origin];\n\n\t\tdel.oxratio = _ratio;\n\t}\n\tfunction getRatio(address _user) public view returns(uint256){\n\t\tdelegatorData storage del = delegatorStats[_user];\n\t\tif(del.oxratio == 0)\n\t\t{\n\t\t\treturn uint256(100);\n\t\t}\n\t\telse{\n\t\t\treturn del.oxratio;\n\t\t}\t\n\t}\n\n\n\tfunction logUser(address userAddr,uint256 stakedAmount,uint256 doneAmount,uint256 oneAmount) public onlyMultiTransfer {\n\t\tdelegatorData storage del = delegatorStats[userAddr];\n\t\tuint256 usdOne;\n\t\tif(oneAmount != 0){\n\t\t\tusdOne = valueUSD(weth, bbusd, oneAmount);\n\t\t}\n\t\n\t\tuint256 usdDONE = valueUSD(done, bbusd, doneAmount);\n\t\tdel.earnedUsd = del.earnedUsd + usdDONE + usdOne;\n\n\t\tdel.earnedOne += oneAmount;\n\t\tdel.earnedDone += doneAmount;\n\n\t\tif(del.delegatorAddr == address(0)){\n\t\t\tdel.delegatorAddr = userAddr;\n\t\t}\n\n\t\tif(stakedAmount != del.oneStaked){\n\t\t\tdel.oneStaked = stakedAmount;\n\t\t}\n\n\n\t}\n\tfunction valueUSD(address fromToken,address toToken,uint256 amountIn)public returns(uint256){\n\t\t // X1 - X5: OK\n\t\tuint256 amountOut;\n        IUniswapV2Pair pair = IUniswapV2Pair(factory.getPair(fromToken, toToken));\n   \n        (uint256 reserve0, uint256 reserve1,) = pair.getReserves();\n        uint256 amountInWithFee = amountIn.mul(997);\n\n        if (fromToken == pair.token0()) {\n         amountOut = amountIn.mul(997).mul(reserve1) / reserve0.mul(1000).add(amountInWithFee);\n         } else {\n         amountOut = amountIn.mul(997).mul(reserve0) / reserve1.mul(1000).add(amountInWithFee);\n         }\n      return amountOut;\n\t}\n}",
  "sourcePath": "/opt/defione/defione-core/contracts/delegateContract.sol",
  "compiler": {
    "name": "solc",
    "version": "0.6.12+commit.27d51765.Emscripten.clang"
  },
  "schemaVersion": "3.2.4",
  "updatedAt": "2022-01-20T03:32:03.702Z",
  "devdoc": {
    "kind": "dev",
    "methods": {},
    "version": 1
  },
  "userdoc": {
    "kind": "user",
    "methods": {},
    "version": 1
  }
}