{
  "contractName": "MasterChef",
  "abi": [
    {
      "inputs": [
        {
          "internalType": "contract DefioneToken",
          "name": "_sushi",
          "type": "address"
        },
        {
          "internalType": "address",
          "name": "_devaddr",
          "type": "address"
        },
        {
          "internalType": "uint256",
          "name": "_sushiPerBlock",
          "type": "uint256"
        },
        {
          "internalType": "uint256",
          "name": "_sushiPerSecond",
          "type": "uint256"
        },
        {
          "internalType": "uint256",
          "name": "_startBlock",
          "type": "uint256"
        },
        {
          "internalType": "uint256",
          "name": "_bonusEndBlock",
          "type": "uint256"
        },
        {
          "internalType": "uint256",
          "name": "_currentBlocktime",
          "type": "uint256"
        },
        {
          "internalType": "uint256",
          "name": "_lastBlocktime",
          "type": "uint256"
        }
      ],
      "stateMutability": "nonpayable",
      "type": "constructor"
    },
    {
      "anonymous": false,
      "inputs": [
        {
          "indexed": true,
          "internalType": "address",
          "name": "user",
          "type": "address"
        },
        {
          "indexed": true,
          "internalType": "uint256",
          "name": "pid",
          "type": "uint256"
        },
        {
          "indexed": false,
          "internalType": "uint256",
          "name": "amount",
          "type": "uint256"
        }
      ],
      "name": "Deposit",
      "type": "event"
    },
    {
      "anonymous": false,
      "inputs": [
        {
          "indexed": false,
          "internalType": "uint8",
          "name": "currentAmount",
          "type": "uint8"
        }
      ],
      "name": "DevFundLowered",
      "type": "event"
    },
    {
      "anonymous": false,
      "inputs": [
        {
          "indexed": true,
          "internalType": "address",
          "name": "user",
          "type": "address"
        },
        {
          "indexed": true,
          "internalType": "uint256",
          "name": "pid",
          "type": "uint256"
        },
        {
          "indexed": false,
          "internalType": "uint256",
          "name": "amount",
          "type": "uint256"
        }
      ],
      "name": "EmergencyWithdraw",
      "type": "event"
    },
    {
      "anonymous": false,
      "inputs": [
        {
          "indexed": true,
          "internalType": "address",
          "name": "previousOwner",
          "type": "address"
        },
        {
          "indexed": true,
          "internalType": "address",
          "name": "newOwner",
          "type": "address"
        }
      ],
      "name": "OwnershipTransferred",
      "type": "event"
    },
    {
      "anonymous": false,
      "inputs": [
        {
          "indexed": false,
          "internalType": "uint256",
          "name": "DefionePerBlock",
          "type": "uint256"
        },
        {
          "indexed": false,
          "internalType": "uint256",
          "name": "Blocktime",
          "type": "uint256"
        }
      ],
      "name": "RewardChange",
      "type": "event"
    },
    {
      "anonymous": false,
      "inputs": [
        {
          "indexed": true,
          "internalType": "address",
          "name": "user",
          "type": "address"
        },
        {
          "indexed": true,
          "internalType": "uint256",
          "name": "pid",
          "type": "uint256"
        },
        {
          "indexed": false,
          "internalType": "uint256",
          "name": "amount",
          "type": "uint256"
        }
      ],
      "name": "Withdraw",
      "type": "event"
    },
    {
      "inputs": [],
      "name": "BONUS_MULTIPLIER",
      "outputs": [
        {
          "internalType": "uint256",
          "name": "",
          "type": "uint256"
        }
      ],
      "stateMutability": "view",
      "type": "function",
      "constant": true
    },
    {
      "inputs": [],
      "name": "Defione",
      "outputs": [
        {
          "internalType": "contract DefioneToken",
          "name": "",
          "type": "address"
        }
      ],
      "stateMutability": "view",
      "type": "function",
      "constant": true
    },
    {
      "inputs": [],
      "name": "DefionePerBlock",
      "outputs": [
        {
          "internalType": "uint256",
          "name": "",
          "type": "uint256"
        }
      ],
      "stateMutability": "view",
      "type": "function",
      "constant": true
    },
    {
      "inputs": [],
      "name": "DefionePerSecond",
      "outputs": [
        {
          "internalType": "uint256",
          "name": "",
          "type": "uint256"
        }
      ],
      "stateMutability": "view",
      "type": "function",
      "constant": true
    },
    {
      "inputs": [],
      "name": "bonusEndBlock",
      "outputs": [
        {
          "internalType": "uint256",
          "name": "",
          "type": "uint256"
        }
      ],
      "stateMutability": "view",
      "type": "function",
      "constant": true
    },
    {
      "inputs": [],
      "name": "claimOwnership",
      "outputs": [],
      "stateMutability": "nonpayable",
      "type": "function"
    },
    {
      "inputs": [],
      "name": "currentBlocktime",
      "outputs": [
        {
          "internalType": "uint256",
          "name": "",
          "type": "uint256"
        }
      ],
      "stateMutability": "view",
      "type": "function",
      "constant": true
    },
    {
      "inputs": [],
      "name": "devDivisor",
      "outputs": [
        {
          "internalType": "uint8",
          "name": "",
          "type": "uint8"
        }
      ],
      "stateMutability": "view",
      "type": "function",
      "constant": true
    },
    {
      "inputs": [],
      "name": "devaddr",
      "outputs": [
        {
          "internalType": "address",
          "name": "",
          "type": "address"
        }
      ],
      "stateMutability": "view",
      "type": "function",
      "constant": true
    },
    {
      "inputs": [
        {
          "internalType": "address",
          "name": "",
          "type": "address"
        }
      ],
      "name": "isUserRegisty",
      "outputs": [
        {
          "internalType": "bool",
          "name": "",
          "type": "bool"
        }
      ],
      "stateMutability": "view",
      "type": "function",
      "constant": true
    },
    {
      "inputs": [],
      "name": "lastBlocktime",
      "outputs": [
        {
          "internalType": "uint256",
          "name": "",
          "type": "uint256"
        }
      ],
      "stateMutability": "view",
      "type": "function",
      "constant": true
    },
    {
      "inputs": [],
      "name": "lpDepositor",
      "outputs": [
        {
          "internalType": "address",
          "name": "",
          "type": "address"
        }
      ],
      "stateMutability": "view",
      "type": "function",
      "constant": true
    },
    {
      "inputs": [],
      "name": "owner",
      "outputs": [
        {
          "internalType": "address",
          "name": "",
          "type": "address"
        }
      ],
      "stateMutability": "view",
      "type": "function",
      "constant": true
    },
    {
      "inputs": [],
      "name": "pendingOwner",
      "outputs": [
        {
          "internalType": "address",
          "name": "",
          "type": "address"
        }
      ],
      "stateMutability": "view",
      "type": "function",
      "constant": true
    },
    {
      "inputs": [
        {
          "internalType": "contract IERC20",
          "name": "",
          "type": "address"
        }
      ],
      "name": "poolExistence",
      "outputs": [
        {
          "internalType": "bool",
          "name": "",
          "type": "bool"
        }
      ],
      "stateMutability": "view",
      "type": "function",
      "constant": true
    },
    {
      "inputs": [
        {
          "internalType": "uint256",
          "name": "",
          "type": "uint256"
        }
      ],
      "name": "poolInfo",
      "outputs": [
        {
          "internalType": "contract IERC20",
          "name": "lpToken",
          "type": "address"
        },
        {
          "internalType": "uint256",
          "name": "allocPoint",
          "type": "uint256"
        },
        {
          "internalType": "uint256",
          "name": "lastRewardBlock",
          "type": "uint256"
        },
        {
          "internalType": "uint256",
          "name": "accDefionePerShare",
          "type": "uint256"
        }
      ],
      "stateMutability": "view",
      "type": "function",
      "constant": true
    },
    {
      "inputs": [],
      "name": "rewardCollector",
      "outputs": [
        {
          "internalType": "address",
          "name": "",
          "type": "address"
        }
      ],
      "stateMutability": "view",
      "type": "function",
      "constant": true
    },
    {
      "inputs": [],
      "name": "startBlock",
      "outputs": [
        {
          "internalType": "uint256",
          "name": "",
          "type": "uint256"
        }
      ],
      "stateMutability": "view",
      "type": "function",
      "constant": true
    },
    {
      "inputs": [],
      "name": "totalAllocPoint",
      "outputs": [
        {
          "internalType": "uint256",
          "name": "",
          "type": "uint256"
        }
      ],
      "stateMutability": "view",
      "type": "function",
      "constant": true
    },
    {
      "inputs": [
        {
          "internalType": "address",
          "name": "newOwner",
          "type": "address"
        },
        {
          "internalType": "bool",
          "name": "direct",
          "type": "bool"
        },
        {
          "internalType": "bool",
          "name": "renounce",
          "type": "bool"
        }
      ],
      "name": "transferOwnership",
      "outputs": [],
      "stateMutability": "nonpayable",
      "type": "function"
    },
    {
      "inputs": [
        {
          "internalType": "uint256",
          "name": "",
          "type": "uint256"
        },
        {
          "internalType": "address",
          "name": "",
          "type": "address"
        }
      ],
      "name": "userInfo",
      "outputs": [
        {
          "internalType": "uint256",
          "name": "amount",
          "type": "uint256"
        },
        {
          "internalType": "uint256",
          "name": "rewardDebt",
          "type": "uint256"
        }
      ],
      "stateMutability": "view",
      "type": "function",
      "constant": true
    },
    {
      "inputs": [],
      "name": "poolLength",
      "outputs": [
        {
          "internalType": "uint256",
          "name": "",
          "type": "uint256"
        }
      ],
      "stateMutability": "view",
      "type": "function",
      "constant": true
    },
    {
      "inputs": [],
      "name": "updateBlockIssuanceWithBlocktime",
      "outputs": [],
      "stateMutability": "nonpayable",
      "type": "function"
    },
    {
      "inputs": [
        {
          "internalType": "uint256",
          "name": "_currentBlocktime",
          "type": "uint256"
        }
      ],
      "name": "changeBlocktime",
      "outputs": [],
      "stateMutability": "nonpayable",
      "type": "function"
    },
    {
      "inputs": [
        {
          "internalType": "uint256",
          "name": "_allocPoint",
          "type": "uint256"
        },
        {
          "internalType": "contract IERC20",
          "name": "_lpToken",
          "type": "address"
        },
        {
          "internalType": "bool",
          "name": "_withUpdate",
          "type": "bool"
        }
      ],
      "name": "add",
      "outputs": [],
      "stateMutability": "nonpayable",
      "type": "function"
    },
    {
      "inputs": [
        {
          "internalType": "uint256",
          "name": "_pid",
          "type": "uint256"
        },
        {
          "internalType": "uint256",
          "name": "_allocPoint",
          "type": "uint256"
        },
        {
          "internalType": "bool",
          "name": "_withUpdate",
          "type": "bool"
        }
      ],
      "name": "set",
      "outputs": [],
      "stateMutability": "nonpayable",
      "type": "function"
    },
    {
      "inputs": [
        {
          "internalType": "uint256",
          "name": "_from",
          "type": "uint256"
        },
        {
          "internalType": "uint256",
          "name": "_to",
          "type": "uint256"
        }
      ],
      "name": "getMultiplier",
      "outputs": [
        {
          "internalType": "uint256",
          "name": "",
          "type": "uint256"
        }
      ],
      "stateMutability": "view",
      "type": "function",
      "constant": true
    },
    {
      "inputs": [
        {
          "internalType": "uint256",
          "name": "_pid",
          "type": "uint256"
        },
        {
          "internalType": "address",
          "name": "_user",
          "type": "address"
        }
      ],
      "name": "pendingDefione",
      "outputs": [
        {
          "internalType": "uint256",
          "name": "",
          "type": "uint256"
        }
      ],
      "stateMutability": "view",
      "type": "function",
      "constant": true
    },
    {
      "inputs": [
        {
          "internalType": "uint256",
          "name": "_pid",
          "type": "uint256"
        },
        {
          "internalType": "address",
          "name": "_user",
          "type": "address"
        }
      ],
      "name": "amountStaked",
      "outputs": [
        {
          "internalType": "uint256",
          "name": "",
          "type": "uint256"
        }
      ],
      "stateMutability": "view",
      "type": "function",
      "constant": true
    },
    {
      "inputs": [],
      "name": "massUpdatePools",
      "outputs": [],
      "stateMutability": "nonpayable",
      "type": "function"
    },
    {
      "inputs": [
        {
          "internalType": "uint256",
          "name": "_pid",
          "type": "uint256"
        }
      ],
      "name": "updatePool",
      "outputs": [],
      "stateMutability": "nonpayable",
      "type": "function"
    },
    {
      "inputs": [
        {
          "internalType": "uint256",
          "name": "_pid",
          "type": "uint256"
        },
        {
          "internalType": "uint256",
          "name": "_amount",
          "type": "uint256"
        }
      ],
      "name": "deposit",
      "outputs": [],
      "stateMutability": "nonpayable",
      "type": "function"
    },
    {
      "inputs": [
        {
          "internalType": "uint256",
          "name": "_pid",
          "type": "uint256"
        },
        {
          "internalType": "uint256",
          "name": "_amount",
          "type": "uint256"
        },
        {
          "internalType": "address",
          "name": "_user",
          "type": "address"
        }
      ],
      "name": "extDeposit",
      "outputs": [],
      "stateMutability": "nonpayable",
      "type": "function"
    },
    {
      "inputs": [
        {
          "internalType": "uint256",
          "name": "_pid",
          "type": "uint256"
        },
        {
          "internalType": "uint256",
          "name": "_amount",
          "type": "uint256"
        }
      ],
      "name": "withdraw",
      "outputs": [],
      "stateMutability": "nonpayable",
      "type": "function"
    },
    {
      "inputs": [
        {
          "internalType": "uint256",
          "name": "_pid",
          "type": "uint256"
        },
        {
          "internalType": "address",
          "name": "_user",
          "type": "address"
        }
      ],
      "name": "extWithdraw",
      "outputs": [],
      "stateMutability": "nonpayable",
      "type": "function"
    },
    {
      "inputs": [],
      "name": "collectAll",
      "outputs": [],
      "stateMutability": "nonpayable",
      "type": "function"
    },
    {
      "inputs": [
        {
          "internalType": "uint256",
          "name": "_pid",
          "type": "uint256"
        }
      ],
      "name": "emergencyWithdraw",
      "outputs": [],
      "stateMutability": "nonpayable",
      "type": "function"
    },
    {
      "inputs": [],
      "name": "lowerDevFund",
      "outputs": [],
      "stateMutability": "nonpayable",
      "type": "function"
    },
    {
      "inputs": [
        {
          "internalType": "address",
          "name": "_devaddr",
          "type": "address"
        }
      ],
      "name": "dev",
      "outputs": [],
      "stateMutability": "nonpayable",
      "type": "function"
    },
    {
      "inputs": [
        {
          "internalType": "address",
          "name": "_collectoraddr",
          "type": "address"
        }
      ],
      "name": "collector",
      "outputs": [],
      "stateMutability": "nonpayable",
      "type": "function"
    },
    {
      "inputs": [
        {
          "internalType": "address",
          "name": "_depositoraddr",
          "type": "address"
        }
      ],
      "name": "depositor",
      "outputs": [],
      "stateMutability": "nonpayable",
      "type": "function"
    }
  ],
  "bytecode": "0x60806040526004805460ff60a01b1916600160a31b1790556000600e5534801561002857600080fd5b50604051612b2f380380612b2f833981810160405261010081101561004c57600080fd5b50805160208201516040808401516060850151608086015160a087015160c088015160e090980151600080546001600160a01b03191633908117825596519899979895979496939592949391927f8be0079c531659141344cd1fd0a4f28419497f9722a3daafe3b4186f6b6457e0908290a36001600255600380546001600160a01b03998a166001600160a01b0319918216179091556004805498909916978116881790985560058054909816909617909655600893909355600991909155600791909155600f55601191909155601055612a038061012c6000396000f3fe608060405234801561001057600080fd5b50600436106102535760003560e01c8063630b5ba111610146578063952c96fb116100c3578063cbd258b511610087578063cbd258b514610637578063d49e77cd1461065d578063d5688d8314610665578063e2bbb15814610682578063e30c3978146106a5578063ef69b4a8146106ad57610253565b8063952c96fb146105a3578063a1066bd4146105ab578063ab1bbd48146105d7578063afffd5b7146105fd578063cab3c3921461060557610253565b80638d88a90e1161010a5780638d88a90e146105055780638da5cb5b1461052b5780638dbb1e3a146105335780638e1665a31461055657806393f1a40b1461055e57610253565b8063630b5ba1146104ba57806364482f79146104c257806368daf7d6146104ed5780636b61a19f146104f55780638aa28550146104fd57610253565b80633a40799e116101d457806351eb05a61161019857806351eb05a6146104445780635312ea8e146104615780635333ee141461047e5780635cce7b35146104aa57806361cf753b146104b257610253565b80633a40799e146103c7578063441a3e70146103e557806348cd4cb1146104085780634e71e0c8146104105780634e9ad15a1461041857610253565b80631aed65531161021b5780631aed6553146103235780631eaaa0451461032b5780632d29cba11461035f5780632e7a3f1e14610367578063387e971c146103a157610253565b806302f283be14610258578063078dfbe71461027c578063081e3eda146102b45780631526fe27146102ce57806317caf6f11461031b575b600080fd5b6102606106b5565b604080516001600160a01b039092168252519081900360200190f35b6102b26004803603606081101561029257600080fd5b506001600160a01b038135169060208101351515906040013515156106c4565b005b6102bc6107fa565b60408051918252519081900360200190f35b6102eb600480360360208110156102e457600080fd5b5035610800565b604080516001600160a01b0390951685526020850193909352838301919091526060830152519081900360800190f35b6102bc610841565b6102bc610847565b6102b26004803603606081101561034157600080fd5b508035906001600160a01b036020820135169060400135151561084d565b6102bc610b13565b61038d6004803603602081101561037d57600080fd5b50356001600160a01b0316610b19565b604080519115158252519081900360200190f35b6102b2600480360360208110156103b757600080fd5b50356001600160a01b0316610b2e565b6103cf610bba565b6040805160ff9092168252519081900360200190f35b6102b2600480360360408110156103fb57600080fd5b5080359060200135610bca565b6102bc610db9565b6102b2610dbf565b6102b26004803603604081101561042e57600080fd5b50803590602001356001600160a01b0316610e81565b6102b26004803603602081101561045a57600080fd5b5035611071565b6102b26004803603602081101561047757600080fd5b50356112ef565b6102bc6004803603604081101561049457600080fd5b50803590602001356001600160a01b0316611424565b6102b26115d3565b6102bc6116ca565b6102b26116d0565b6102b2600480360360608110156104d857600080fd5b508035906020810135906040013515156116ef565b6102bc611800565b6102bc611806565b6102bc61180c565b6102b26004803603602081101561051b57600080fd5b50356001600160a01b0316611811565b610260611887565b6102bc6004803603604081101561054957600080fd5b5080359060200135611896565b610260611902565b61058a6004803603604081101561057457600080fd5b50803590602001356001600160a01b0316611911565b6040805192835260208301919091528051918290030190f35b6102b2611935565b6102bc600480360360408110156105c157600080fd5b50803590602001356001600160a01b031661195c565b6102b2600480360360208110156105ed57600080fd5b50356001600160a01b03166119d3565b610260611a5f565b6102b26004803603606081101561061b57600080fd5b50803590602081013590604001356001600160a01b0316611a6e565b61038d6004803603602081101561064d57600080fd5b50356001600160a01b0316611d40565b610260611d55565b6102b26004803603602081101561067b57600080fd5b5035611d64565b6102b26004803603604081101561069857600080fd5b5080359060200135611e5e565b6102606120dd565b6102b26120ec565b6006546001600160a01b031681565b6000546001600160a01b03163314610711576040805162461bcd60e51b81526020600482018190526024820152600080516020612984833981519152604482015290519081900360640190fd5b81156107d9576001600160a01b03831615158061072b5750805b610774576040805162461bcd60e51b81526020600482015260156024820152744f776e61626c653a207a65726f206164647265737360581b604482015290519081900360640190fd5b600080546040516001600160a01b03808716939216917f8be0079c531659141344cd1fd0a4f28419497f9722a3daafe3b4186f6b6457e091a3600080546001600160a01b0385166001600160a01b0319918216179091556001805490911690556107f5565b600180546001600160a01b0319166001600160a01b0385161790555b505050565b600a5490565b600a818154811061080d57fe5b600091825260209091206004909102018054600182015460028301546003909301546001600160a01b039092169350919084565b600e5481565b60075481565b6000546001600160a01b0316331461089a576040805162461bcd60e51b81526020600482018190526024820152600080516020612984833981519152604482015290519081900360640190fd5b816000816001600160a01b03166370a08231306040518263ffffffff1660e01b815260040180826001600160a01b0316815260200191505060206040518083038186803b1580156108ea57600080fd5b505afa92505050801561090f57506040513d602081101561090a57600080fd5b505160015b61091b57506000610921565b50600190505b6001600160a01b0382166000908152600d602052604090205460ff16156109795760405162461bcd60e51b81526004018080602001828103825260238152602001806129406023913960400191505060405180910390fd5b6001811515146109d0576040805162461bcd60e51b815260206004820152601d60248201527f43616e27742063616c6c2062616c616e63654f662e205265766572742e000000604482015290519081900360640190fd5b82156109de576109de6116d0565b6000600f5443116109f157600f546109f3565b435b600e54909150610a0390876121ee565b600e556001600160a01b039485166000818152600d602090815260408083208054600160ff1990911681179091558151608081018352948552918401998a52830193845260608301818152600a8054928301815590925291517fc65a7bb8d6351c1cf70c95a316cc6a92839c986682d98bc35f958f4883f9d2a8600490930292830180546001600160a01b031916919098161790965595517fc65a7bb8d6351c1cf70c95a316cc6a92839c986682d98bc35f958f4883f9d2a9870155517fc65a7bb8d6351c1cf70c95a316cc6a92839c986682d98bc35f958f4883f9d2aa860155505090517fc65a7bb8d6351c1cf70c95a316cc6a92839c986682d98bc35f958f4883f9d2ab9092019190915550565b60085481565b600c6020526000908152604090205460ff1681565b6006546001600160a01b0316331480610b5157506004546001600160a01b031633145b610b98576040805162461bcd60e51b815260206004820152601360248201527202a3432903232bb1039b0bcb99d102737b7171606d1b604482015290519081900360640190fd5b600680546001600160a01b0319166001600160a01b0392909216919091179055565b600454600160a01b900460ff1681565b600a5482908110610c14576040805162461bcd60e51b815260206004820152600f60248201526e12539590531251081413d3d3081251608a1b604482015290519081900360640190fd5b600280541415610c59576040805162461bcd60e51b815260206004820152601f60248201526000805160206128b6833981519152604482015290519081900360640190fd5b600280819055506000600a8481548110610c6f57fe5b60009182526020808320878452600b825260408085203386529092529220805460049092029092019250841115610ce2576040805162461bcd60e51b81526020600482015260126024820152711dda5d1a191c985dce881b9bdd0819dbdbd960721b604482015290519081900360640190fd5b610ceb85611071565b6000610d258260010154610d1f64e8d4a51000610d198760030154876000015461224f90919063ffffffff16565b906122a8565b9061230f565b9050610d31338261236c565b8154610d3d908661230f565b8083556003840154610d5a9164e8d4a5100091610d19919061224f565b60018301558254610d75906001600160a01b0316338761253f565b604080518681529051879133917ff279e6a1f5e320cca91135676d9cb6e44ca8a08c0b88342bcdb1144f6511b5689181900360200190a35050600160025550505050565b600f5481565b6001546001600160a01b0316338114610e1f576040805162461bcd60e51b815260206004820181905260248201527f4f776e61626c653a2063616c6c657220213d2070656e64696e67206f776e6572604482015290519081900360640190fd5b600080546040516001600160a01b03808516939216917f8be0079c531659141344cd1fd0a4f28419497f9722a3daafe3b4186f6b6457e091a3600080546001600160a01b039092166001600160a01b0319928316179055600180549091169055565b6005546001600160a01b03163314610e9857600080fd5b600a5482908110610ee2576040805162461bcd60e51b815260206004820152600f60248201526e12539590531251081413d3d3081251608a1b604482015290519081900360640190fd5b600280541415610f27576040805162461bcd60e51b815260206004820152601f60248201526000805160206128b6833981519152604482015290519081900360640190fd5b60028081905550600080600a8581548110610f3e57fe5b60009182526020808320888452600b825260408085206001600160a01b038a1686529092529220805460049092029092019250831115610fba576040805162461bcd60e51b81526020600482015260126024820152711dda5d1a191c985dce881b9bdd0819dbdbd960721b604482015290519081900360640190fd5b610fc386611071565b6000610ff18260010154610d1f64e8d4a51000610d198760030154876000015461224f90919063ffffffff16565b9050801561100357611003868261236c565b6003830154825461101e9164e8d4a5100091610d199161224f565b600183015560408051858152905188916001600160a01b038916917ff279e6a1f5e320cca91135676d9cb6e44ca8a08c0b88342bcdb1144f6511b5689181900360200190a3505060016002555050505050565b600a54819081106110bb576040805162461bcd60e51b815260206004820152600f60248201526e12539590531251081413d3d3081251608a1b604482015290519081900360640190fd5b6000600a83815481106110ca57fe5b90600052602060002090600402019050806002015443116110eb57506112eb565b8054604080516370a0823160e01b815230600482015290516000926001600160a01b0316916370a08231916024808301926020929190829003018186803b15801561113557600080fd5b505afa158015611149573d6000803e3d6000fd5b505050506040513d602081101561115f57600080fd5b50519050806111755750436002909101556112eb565b6000611185836002015443611896565b905060006111b2600e54610d1986600101546111ac6008548761224f90919063ffffffff16565b9061224f565b6003546004549192506001600160a01b03908116916340c10f19918116906111e5908590600160a01b900460ff166122a8565b6040518363ffffffff1660e01b815260040180836001600160a01b0316815260200182815260200192505050600060405180830381600087803b15801561122b57600080fd5b505af115801561123f573d6000803e3d6000fd5b5050600354604080516340c10f1960e01b81523060048201526024810186905290516001600160a01b0390921693506340c10f19925060448082019260009290919082900301818387803b15801561129657600080fd5b505af11580156112aa573d6000803e3d6000fd5b505050506112d86112cd84610d1964e8d4a510008561224f90919063ffffffff16565b6003860154906121ee565b6003850155505043600290920191909155505b5050565b600a5481908110611339576040805162461bcd60e51b815260206004820152600f60248201526e12539590531251081413d3d3081251608a1b604482015290519081900360640190fd5b60028054141561137e576040805162461bcd60e51b815260206004820152601f60248201526000805160206128b6833981519152604482015290519081900360640190fd5b600280819055506000600a838154811061139457fe5b60009182526020808320868452600b825260408085203380875293529093208054600490930290930180549094506113d9926001600160a01b0391909116919061253f565b80546040805191825251859133917fbb757047c2b5f3974fe26b7c10f732e7bce710b0952a71082702781e62ae05959181900360200190a36000808255600191820155600255505050565b600a5460009083908110611471576040805162461bcd60e51b815260206004820152600f60248201526e12539590531251081413d3d3081251608a1b604482015290519081900360640190fd5b6000600a858154811061148057fe5b60009182526020808320888452600b825260408085206001600160a01b038a8116875290845281862060049586029093016003810154815484516370a0823160e01b81523098810198909852935191985093969395939492909116926370a08231926024808301939192829003018186803b1580156114fe57600080fd5b505afa158015611512573d6000803e3d6000fd5b505050506040513d602081101561152857600080fd5b505160028501549091504311801561153f57508015155b1561159f576000611554856002015443611896565b9050600061157b600e54610d1988600101546111ac6008548761224f90919063ffffffff16565b905061159a61159384610d198464e8d4a5100061224f565b85906121ee565b935050505b6115c78360010154610d1f64e8d4a51000610d1986886000015461224f90919063ffffffff16565b98975050505050505050565b6000546001600160a01b03163314611620576040805162461bcd60e51b81526020600482018190526024820152600080516020612984833981519152604482015290519081900360640190fd5b60115460105414156116635760405162461bcd60e51b815260040180806020018281038252602281526020018061291e6022913960400191505060405180910390fd5b6116806103e8610d1960095460115461224f90919063ffffffff16565b6008819055601154601081905560408051928352602083019190915280517ff84fdc31bbfc176687fb0c295c02db5def2e1e50c89107ab0d4be860a3d1bdd99281900390910190a1565b60105481565b600a5460005b818110156112eb576116e781611071565b6001016116d6565b6000546001600160a01b0316331461173c576040805162461bcd60e51b81526020600482018190526024820152600080516020612984833981519152604482015290519081900360640190fd5b600a5483908110611786576040805162461bcd60e51b815260206004820152600f60248201526e12539590531251081413d3d3081251608a1b604482015290519081900360640190fd5b8115611794576117946116d0565b6117d1836117cb600a87815481106117a857fe5b906000526020600020906004020160010154600e5461230f90919063ffffffff16565b906121ee565b600e8190555082600a85815481106117e557fe5b90600052602060002090600402016001018190555050505050565b60095481565b60115481565b600181565b6004546001600160a01b03163314611865576040805162461bcd60e51b81526020600482015260126024820152712a3432902232bb1039b0bcb99d102737b71760711b604482015290519081900360640190fd5b600480546001600160a01b0319166001600160a01b0392909216919091179055565b6000546001600160a01b031681565b600060075482116118b7576118b060016111ac848661230f565b90506118fc565b60075483106118ca576118b0828461230f565b6118b06118e26007548461230f90919063ffffffff16565b6117cb60016111ac8760075461230f90919063ffffffff16565b92915050565b6003546001600160a01b031681565b600b6020908152600092835260408084209091529082529020805460019091015482565b60005b600a546000190181101561195957611951816000610bca565b600101611938565b50565b600a54600090839081106119a9576040805162461bcd60e51b815260206004820152600f60248201526e12539590531251081413d3d3081251608a1b604482015290519081900360640190fd5b50506000918252600b602090815260408084206001600160a01b0393909316845291905290205490565b6005546001600160a01b03163314806119f657506004546001600160a01b031633145b611a3d576040805162461bcd60e51b815260206004820152601360248201527202a3432902232bb1039b0bcb99d102737b7171606d1b604482015290519081900360640190fd5b600580546001600160a01b0319166001600160a01b0392909216919091179055565b6005546001600160a01b031681565b6006546001600160a01b03163314611a8557600080fd5b600a5483908110611acf576040805162461bcd60e51b815260206004820152600f60248201526e12539590531251081413d3d3081251608a1b604482015290519081900360640190fd5b600280541415611b14576040805162461bcd60e51b815260206004820152601f60248201526000805160206128b6833981519152604482015290519081900360640190fd5b600280819055506000600a8581548110611b2a57fe5b60009182526020808320888452600b825260408085206001600160a01b0389168652909252922060049091029091019150611b6486611071565b805415611bad576000611b998260010154610d1f64e8d4a51000610d198760030154876000015461224f90919063ffffffff16565b90508015611bab57611bab858261236c565b505b8415611cdc578154604080516370a0823160e01b815230600482015290516000926001600160a01b0316916370a08231916024808301926020929190829003018186803b158015611bfd57600080fd5b505afa158015611c11573d6000803e3d6000fd5b505050506040513d6020811015611c2757600080fd5b50518354909150611c43906001600160a01b0316333089612591565b8254604080516370a0823160e01b81523060048201529051600092611cc89285926001600160a01b03909216916370a0823191602480820192602092909190829003018186803b158015611c9657600080fd5b505afa158015611caa573d6000803e3d6000fd5b505050506040513d6020811015611cc057600080fd5b50519061230f565b8354909150611cd790826121ee565b835550505b60038201548154611cf79164e8d4a5100091610d199161224f565b6001820155604080518681529051879133917f90890809c654f11d6e72a28fa60149770a0d11ec6c92319d6ceb2bb0a4ea1a159181900360200190a35050600160025550505050565b600d6020526000908152604090205460ff1681565b6004546001600160a01b031681565b6000546001600160a01b03163314611db1576040805162461bcd60e51b81526020600482018190526024820152600080516020612984833981519152604482015290519081900360640190fd5b806010541415611df25760405162461bcd60e51b815260040180806020018281038252602281526020018061291e6022913960400191505060405180910390fd5b610fa0811115611e49576040805162461bcd60e51b815260206004820152601b60248201527f43616e27742073657420626c6f636b696d65206f7665722034732e0000000000604482015290519081900360640190fd5b611e516116d0565b60118190556119596115d3565b600a5482908110611ea8576040805162461bcd60e51b815260206004820152600f60248201526e12539590531251081413d3d3081251608a1b604482015290519081900360640190fd5b600280541415611eed576040805162461bcd60e51b815260206004820152601f60248201526000805160206128b6833981519152604482015290519081900360640190fd5b600280819055506000600a8481548110611f0357fe5b60009182526020808320878452600b82526040808520338652909252922060049091029091019150611f3485611071565b805415611f7d576000611f698260010154610d1f64e8d4a51000610d198760030154876000015461224f90919063ffffffff16565b90508015611f7b57611f7b338261236c565b505b831561207a578154604080516370a0823160e01b815230600482015290516000926001600160a01b0316916370a08231916024808301926020929190829003018186803b158015611fcd57600080fd5b505afa158015611fe1573d6000803e3d6000fd5b505050506040513d6020811015611ff757600080fd5b50518354909150612013906001600160a01b0316333088612591565b8254604080516370a0823160e01b815230600482015290516000926120669285926001600160a01b03909216916370a0823191602480820192602092909190829003018186803b158015611c9657600080fd5b835490915061207590826121ee565b835550505b600382015481546120959164e8d4a5100091610d199161224f565b6001820155604080518581529051869133917f90890809c654f11d6e72a28fa60149770a0d11ec6c92319d6ceb2bb0a4ea1a159181900360200190a350506001600255505050565b6001546001600160a01b031681565b6000546001600160a01b03163314612139576040805162461bcd60e51b81526020600482018190526024820152600080516020612984833981519152604482015290519081900360640190fd5b60045460ff600160a01b90910481161061218d576040805162461bcd60e51b815260206004820152601060248201526f546861747320697420466f6c6b73202160801b604482015290519081900360640190fd5b6004805460ff600160a01b80830482166001018216810260ff60a01b199093169290921792839055604080519290930416815290517fee9c626a5ecbf59c6fa35d3ea1ada36622db84d50bcca6e2e2880627f38388739181900360200190a1565b600082820183811015612248576040805162461bcd60e51b815260206004820152601b60248201527f536166654d6174683a206164646974696f6e206f766572666c6f770000000000604482015290519081900360640190fd5b9392505050565b60008261225e575060006118fc565b8282028284828161226b57fe5b04146122485760405162461bcd60e51b81526004018080602001828103825260218152602001806129636021913960400191505060405180910390fd5b60008082116122fe576040805162461bcd60e51b815260206004820152601a60248201527f536166654d6174683a206469766973696f6e206279207a65726f000000000000604482015290519081900360640190fd5b81838161230757fe5b049392505050565b600082821115612366576040805162461bcd60e51b815260206004820152601e60248201527f536166654d6174683a207375627472616374696f6e206f766572666c6f770000604482015290519081900360640190fd5b50900390565b600354604080516370a0823160e01b815230600482015290516000926001600160a01b0316916370a08231916024808301926020929190829003018186803b1580156123b757600080fd5b505afa1580156123cb573d6000803e3d6000fd5b505050506040513d60208110156123e157600080fd5b50519050600081831115612478576003546040805163a9059cbb60e01b81526001600160a01b038781166004830152602482018690529151919092169163a9059cbb9160448083019260209291908290030181600087803b15801561244557600080fd5b505af1158015612459573d6000803e3d6000fd5b505050506040513d602081101561246f57600080fd5b505190506124fd565b6003546040805163a9059cbb60e01b81526001600160a01b038781166004830152602482018790529151919092169163a9059cbb9160448083019260209291908290030181600087803b1580156124ce57600080fd5b505af11580156124e2573d6000803e3d6000fd5b505050506040513d60208110156124f857600080fd5b505190505b806125395760405162461bcd60e51b81526004018080602001828103825260228152602001806128fc6022913960400191505060405180910390fd5b50505050565b604080516001600160a01b038416602482015260448082018490528251808303909101815260649091019091526020810180516001600160e01b031663a9059cbb60e01b1790526107f59084906125e7565b604080516001600160a01b0380861660248301528416604482015260648082018490528251808303909101815260849091019091526020810180516001600160e01b03166323b872dd60e01b1790526125399085905b606061263c826040518060400160405280602081526020017f5361666545524332303a206c6f772d6c6576656c2063616c6c206661696c6564815250856001600160a01b03166126989092919063ffffffff16565b8051909150156107f55780806020019051602081101561265b57600080fd5b50516107f55760405162461bcd60e51b815260040180806020018281038252602a8152602001806129a4602a913960400191505060405180910390fd5b60606126a784846000856126af565b949350505050565b6060824710156126f05760405162461bcd60e51b81526004018080602001828103825260268152602001806128d66026913960400191505060405180910390fd5b6126f98561280b565b61274a576040805162461bcd60e51b815260206004820152601d60248201527f416464726573733a2063616c6c20746f206e6f6e2d636f6e7472616374000000604482015290519081900360640190fd5b60006060866001600160a01b031685876040518082805190602001908083835b602083106127895780518252601f19909201916020918201910161276a565b6001836020036101000a03801982511681845116808217855250505050505090500191505060006040518083038185875af1925050503d80600081146127eb576040519150601f19603f3d011682016040523d82523d6000602084013e6127f0565b606091505b5091509150612800828286612811565b979650505050505050565b3b151590565b60608315612820575081612248565b8251156128305782518084602001fd5b8160405162461bcd60e51b81526004018080602001828103825283818151815260200191508051906020019080838360005b8381101561287a578181015183820152602001612862565b50505050905090810190601f1680156128a75780820380516001836020036101000a031916815260200191505b509250505060405180910390fdfe5265656e7472616e637947756172643a207265656e7472616e742063616c6c00416464726573733a20696e73756666696369656e742062616c616e636520666f722063616c6c73616665546f6b656e5472616e736665723a207472616e73666572206661696c6564446566696f6e65203a20426c6f636b74696d65206861736e2774206368616e67656443616e27742061646420616e20616c7265616479206578697374696e67204661726d2e536166654d6174683a206d756c7469706c69636174696f6e206f766572666c6f774f776e61626c653a2063616c6c6572206973206e6f7420746865206f776e65725361666545524332303a204552433230206f7065726174696f6e20646964206e6f742073756363656564a2646970667358221220542ec9dd1cfd9ef803ac6616fc1e80f7ec369403765c55b8e353d6a642282cec64736f6c634300060c0033",
  "immutableReferences": {},
  "source": "// SPDX-License-Identifier: MIT\r\n\r\npragma solidity 0.6.12;\r\n\r\nimport \"@openzeppelin/contracts/token/ERC20/IERC20.sol\";\r\nimport \"@openzeppelin/contracts/token/ERC20/SafeERC20.sol\";\r\nimport \"@openzeppelin/contracts/utils/EnumerableSet.sol\";\r\nimport \"@openzeppelin/contracts/utils/ReentrancyGuard.sol\";\r\n\r\nimport \"@openzeppelin/contracts/math/SafeMath.sol\";\r\nimport \"./Ownable.sol\";\r\nimport \"./DefioneToken.sol\";\r\n\r\n\r\n\r\n// MasterChef is the master of Sushi. He can make Sushi and he is a fair guy.\r\n//\r\n// Note that it's ownable and the owner wields tremendous power. The ownership\r\n// will be transferred to a governance smart contract once Defione is sufficiently\r\n// distributed and the community can show to govern itself.\r\n//\r\n// Have fun reading it. Hopefully it's bug-free. God bless.\r\ncontract MasterChef is Ownable, ReentrancyGuard {\r\n    using SafeMath for uint256;\r\n    using SafeERC20 for IERC20;\r\n    // Info of each user.\r\n    struct UserInfo {\r\n        uint256 amount; // How many LP tokens the user has provided.\r\n        uint256 rewardDebt; // Reward debt. See explanation below.\r\n        //\r\n        // We do some fancy math here. Basically, any point in time, the amount of SUSHIs\r\n        // entitled to a user but is pending to be distributed is:\r\n        //\r\n        //   pending reward = (user.amount * pool.accDefionePerShare) - user.rewardDebt\r\n        //\r\n        // Whenever a user deposits or withdraws LP tokens to a pool. Here's what happens:\r\n        //   1. The pool's `accDefionePerShare` (and `lastRewardBlock`) gets updated.\r\n        //   2. User receives the pending reward sent to his/her address.\r\n        //   3. User's `amount` gets updated.\r\n        //   4. User's `rewardDebt` gets updated.\r\n    }\r\n    // Info of each pool.\r\n    struct PoolInfo {\r\n        IERC20 lpToken; // Address of LP token contract.\r\n        uint256 allocPoint; // How many allocation points assigned to this pool. SUSHIs to distribute per block.\r\n        uint256 lastRewardBlock; // Last block number that SUSHIs distribution occurs.\r\n        uint256 accDefionePerShare; // Accumulated SUSHIs per share, times 1e12. See below.\r\n    }\r\n\r\n    // The Defione TOKEN!\r\n    DefioneToken public Defione;\r\n    // Dev address.\r\n    address public devaddr;\r\n    //Dev mint devisor, can only be increased, reducing percentage.\r\n    uint8 public devDivisor = 8; // 8 == 12.5% // 9 == 11% // 10 == 10%  // 11 == 9%\r\n    // Reward collector address for blocktime change\r\n    address public rewardCollector;\r\n    // LP Depositor address for blocktime change\r\n    address public lpDepositor;\r\n    // Block number when bonus Defione period ends.\r\n    uint256 public bonusEndBlock;\r\n    // Defione tokens created per block.\r\n    uint256 public DefionePerBlock;\r\n    //Amount of sushis per Second\r\n    uint256 public DefionePerSecond;\r\n    // Bonus muliplier for early Defione makers.\r\n    uint256 public constant BONUS_MULTIPLIER = 1;\r\n    // Info of each pool.\r\n    PoolInfo[] public poolInfo;\r\n    // Info of each user that stakes LP tokens.\r\n    mapping(uint256 => mapping(address => UserInfo)) public userInfo;\r\n    // Mapping to know if the User has been added to the registry\r\n    mapping(address => bool) public isUserRegisty;\r\n    //Mapping to check if farm exists\r\n    mapping(IERC20 => bool) public poolExistence;\r\n    // Total allocation poitns. Must be the sum of all allocation points in all pools.\r\n    uint256 public totalAllocPoint = 0;\r\n    // The block number when Defione mining starts.\r\n    uint256 public startBlock;\r\n    // Last Blocktime in Milliseconds\r\n    uint256 public lastBlocktime;\r\n    // Current Blocktime in Milliseconds\r\n    uint256 public currentBlocktime;\r\n\r\n    event DevFundLowered(uint8 currentAmount);\r\n    event Deposit(address indexed user, uint256 indexed pid, uint256 amount);\r\n    event RewardChange(uint256 DefionePerBlock, uint256 Blocktime);\r\n    event Withdraw(address indexed user, uint256 indexed pid, uint256 amount);\r\n    event EmergencyWithdraw(\r\n        address indexed user,\r\n        uint256 indexed pid,\r\n        uint256 amount\r\n    );\r\n\r\n    modifier onlyCollector {\r\n      require(msg.sender == rewardCollector);\r\n      _;\r\n   }\r\n\r\n   modifier onlyDepositor {\r\n      require(msg.sender == lpDepositor);\r\n      _;\r\n   }\r\n\r\n   modifier validPID(uint256 _pid){\r\n    require(_pid < poolInfo.length, \"INVALID POOL ID\");\r\n    _;\r\n   }\r\n\r\n    modifier nonDuplicateAndValid(IERC20 _lpToken) {       \r\n        bool isToken = false; \r\n        try _lpToken.balanceOf(address(this)){\r\n            isToken = true;\r\n        } catch {\r\n            isToken = false;\r\n        }\r\n        require(poolExistence[_lpToken] == false, \"Can't add an already existing Farm.\");\r\n        require(isToken == true, \"Can't call balanceOf. Revert.\");\r\n        _;\r\n    }\r\n\r\n    constructor(\r\n        DefioneToken _sushi,\r\n        address _devaddr,\r\n        uint256 _sushiPerBlock,\r\n        uint256 _sushiPerSecond,\r\n        uint256 _startBlock,\r\n        uint256 _bonusEndBlock,\r\n        uint256 _currentBlocktime,\r\n        uint256 _lastBlocktime\r\n    ) public {\r\n        Defione = _sushi;\r\n        devaddr = _devaddr;\r\n        rewardCollector = _devaddr;\r\n        DefionePerBlock = _sushiPerBlock;\r\n        DefionePerSecond = _sushiPerSecond;\r\n        bonusEndBlock = _bonusEndBlock;\r\n        startBlock = _startBlock;\r\n        currentBlocktime = _currentBlocktime;\r\n        lastBlocktime = _lastBlocktime;\r\n    }\r\n\r\n    function poolLength() external view returns (uint256) {\r\n        return poolInfo.length;\r\n    }\r\n    //Changes rewards per block in Case an eventual Change in Harmony BlockTime\r\n    function updateBlockIssuanceWithBlocktime()\r\n        public onlyOwner {\r\n        require(lastBlocktime != currentBlocktime , \"Defione : Blocktime hasn't changed\");\r\n        DefionePerBlock = currentBlocktime.mul(DefionePerSecond).div(1000);\r\n        lastBlocktime = currentBlocktime;\r\n        emit RewardChange(DefionePerBlock, currentBlocktime);\r\n    }\r\n\r\n    //Changes the Blocktime Parameter and updates the Rewards per Block\r\n    function changeBlocktime(uint _currentBlocktime)\r\n        public onlyOwner {\r\n        require(lastBlocktime != _currentBlocktime , \"Defione : Blocktime hasn't changed\");\r\n        require(_currentBlocktime <= 4000, \"Can't set blockime over 4s.\");\r\n        \r\n        massUpdatePools();\r\n\r\n        currentBlocktime = _currentBlocktime;\r\n        updateBlockIssuanceWithBlocktime();\r\n        \r\n    }\r\n\r\n    // Add a new lp to the pool. Can only be called by the owner.\r\n    function add(\r\n        uint256 _allocPoint,\r\n        IERC20 _lpToken,\r\n        bool _withUpdate\r\n    ) public onlyOwner nonDuplicateAndValid(_lpToken) {\r\n        if (_withUpdate) {\r\n            massUpdatePools();\r\n        }\r\n        uint256 lastRewardBlock =\r\n            block.number > startBlock ? block.number : startBlock;\r\n        totalAllocPoint = totalAllocPoint.add(_allocPoint);\r\n        poolExistence[_lpToken] = true;\r\n        poolInfo.push(\r\n            PoolInfo({\r\n                lpToken: _lpToken,\r\n                allocPoint: _allocPoint,\r\n                lastRewardBlock: lastRewardBlock,\r\n                accDefionePerShare: 1\r\n            })\r\n        );\r\n    }\r\n\r\n    // Update the given pool's Defione allocation point. Can only be called by the owner.\r\n    function set(\r\n        uint256 _pid,\r\n        uint256 _allocPoint,\r\n        bool _withUpdate\r\n    ) public onlyOwner validPID(_pid){\r\n        if (_withUpdate) {\r\n            massUpdatePools();\r\n        }\r\n        totalAllocPoint = totalAllocPoint.sub(poolInfo[_pid].allocPoint).add(\r\n            _allocPoint\r\n        );\r\n        poolInfo[_pid].allocPoint = _allocPoint;\r\n    }\r\n\r\n\r\n    // Return reward multiplier over the given _from to _to block.\r\n    function getMultiplier(uint256 _from, uint256 _to)\r\n        public\r\n        view\r\n        returns (uint256)\r\n    {\r\n        if (_to <= bonusEndBlock) {\r\n            return _to.sub(_from).mul(BONUS_MULTIPLIER);\r\n        } else if (_from >= bonusEndBlock) {\r\n            return _to.sub(_from);\r\n        } else {\r\n            return\r\n                bonusEndBlock.sub(_from).mul(BONUS_MULTIPLIER).add(\r\n                    _to.sub(bonusEndBlock)\r\n                );\r\n        }\r\n    }\r\n\r\n    // View function to see pending SUSHIs on frontend.\r\n    function pendingDefione(uint256 _pid, address _user)\r\n        external\r\n        view\r\n        validPID(_pid)\r\n        returns (uint256)\r\n        {\r\n        PoolInfo storage pool = poolInfo[_pid];\r\n        UserInfo storage user = userInfo[_pid][_user];\r\n        uint256 accDefionePerShare = pool.accDefionePerShare;\r\n        uint256 lpSupply = pool.lpToken.balanceOf(address(this));\r\n        if (block.number > pool.lastRewardBlock && lpSupply != 0) {\r\n            uint256 multiplier =\r\n                getMultiplier(pool.lastRewardBlock, block.number);\r\n            uint256 DefioneReward =\r\n                multiplier.mul(DefionePerBlock).mul(pool.allocPoint).div(\r\n                    totalAllocPoint\r\n                );\r\n            accDefionePerShare = accDefionePerShare.add(\r\n                DefioneReward.mul(1e12).div(lpSupply)\r\n            );\r\n        }\r\n        return user.amount.mul(accDefionePerShare).div(1e12).sub(user.rewardDebt);\r\n    }\r\n    function amountStaked(uint256 _pid, address _user)\r\n        external\r\n        view\r\n        validPID(_pid)\r\n        returns (uint256)\r\n    {\r\n        UserInfo storage user = userInfo[_pid][_user];\r\n        return user.amount;\r\n\r\n    }\r\n\r\n    // Update reward vairables for all pools. Be careful of gas spending!\r\n    function massUpdatePools() public {\r\n        uint256 length = poolInfo.length;\r\n        for (uint256 pid = 0; pid < length; ++pid) {\r\n            updatePool(pid);\r\n        }\r\n    }\r\n\r\n    // Update reward variables of the given pool to be up-to-date.\r\n    function updatePool(uint256 _pid) public validPID(_pid) {\r\n        PoolInfo storage pool = poolInfo[_pid];\r\n        if (block.number <= pool.lastRewardBlock) {\r\n            return;\r\n        }\r\n        uint256 lpSupply = pool.lpToken.balanceOf(address(this));\r\n        if (lpSupply == 0) {\r\n            pool.lastRewardBlock = block.number;\r\n            return;\r\n        }\r\n        uint256 multiplier = getMultiplier(pool.lastRewardBlock, block.number);\r\n        uint256 DefioneReward =\r\n            multiplier.mul(DefionePerBlock).mul(pool.allocPoint).div(\r\n                totalAllocPoint\r\n            );\r\n        Defione.mint(devaddr, DefioneReward.div(devDivisor));\r\n        Defione.mint(address(this), DefioneReward);\r\n        pool.accDefionePerShare = pool.accDefionePerShare.add(\r\n            DefioneReward.mul(1e12).div(lpSupply)\r\n        );\r\n        pool.lastRewardBlock = block.number;\r\n    }\r\n\r\n    // Deposit LP tokens to MasterChef for Defione allocation.\r\n    function deposit(uint256 _pid, uint256 _amount) public validPID(_pid) nonReentrant {\r\n        PoolInfo storage pool = poolInfo[_pid];\r\n        UserInfo storage user = userInfo[_pid][msg.sender];\r\n        updatePool(_pid);\r\n\r\n        if (user.amount > 0) {\r\n            uint256 pending = user.amount.mul(pool.accDefionePerShare).div(1e12).sub(user.rewardDebt);\r\n            if (pending > 0) {\r\n                safeTokenTransfer(msg.sender, pending);\r\n            }\r\n        }\r\n\r\n        if (_amount > 0) {\r\n            uint256 balanceBefore = pool.lpToken.balanceOf(address(this));\r\n            pool.lpToken.safeTransferFrom(address(msg.sender), address(this), _amount);\r\n            uint256 finalAmount = pool.lpToken.balanceOf(address(this)).sub(balanceBefore);\r\n            user.amount = user.amount.add(finalAmount);\r\n        }\r\n        \r\n        user.rewardDebt = user.amount.mul(pool.accDefionePerShare).div(1e12);\r\n        emit Deposit(msg.sender, _pid, _amount);\r\n    }\r\n\r\n    // ext deposit is to be called by a contract that must have the lp tokens. it will credit the account passed in as _user\r\n    // allows 1 click deposit and stake of LP.\r\n    // it also collects and send the user's farm rewards to his wallet.\r\n    // does NOT transfer _user LP tokens.\r\n    function extDeposit(uint256 _pid, uint256 _amount, address _user) public onlyDepositor validPID(_pid) nonReentrant {\r\n        PoolInfo storage pool = poolInfo[_pid];\r\n        UserInfo storage user = userInfo[_pid][_user];//gets the user info passed in as parameter\r\n        updatePool(_pid);\r\n\r\n        if (user.amount > 0) {\r\n            uint256 pending = user.amount.mul(pool.accDefionePerShare).div(1e12).sub(user.rewardDebt);\r\n            if (pending > 0) {\r\n                safeTokenTransfer(_user, pending); //Send rewards to _user not msg.sender\r\n            }\r\n        }\r\n\r\n        if (_amount > 0) {\r\n            uint256 balanceBefore = pool.lpToken.balanceOf(address(this));\r\n\r\n            //does not take _user but msg.sender to take the LP tokens\r\n            pool.lpToken.safeTransferFrom(address(msg.sender), address(this), _amount);\r\n            uint256 finalAmount = pool.lpToken.balanceOf(address(this)).sub(balanceBefore);\r\n            user.amount = user.amount.add(finalAmount);\r\n        }\r\n        \r\n        user.rewardDebt = user.amount.mul(pool.accDefionePerShare).div(1e12);\r\n        emit Deposit(msg.sender, _pid, _amount);\r\n    }\r\n\r\n    // Withdraw LP tokens from MasterChef.\r\n    function withdraw(uint256 _pid, uint256 _amount) public validPID(_pid) nonReentrant{\r\n        PoolInfo storage pool = poolInfo[_pid];\r\n        UserInfo storage user = userInfo[_pid][msg.sender];\r\n        require(user.amount >= _amount, \"withdraw: not good\");\r\n        updatePool(_pid);\r\n        uint256 pending =\r\n            user.amount.mul(pool.accDefionePerShare).div(1e12).sub(\r\n                user.rewardDebt\r\n            );\r\n        safeTokenTransfer(msg.sender, pending);\r\n        user.amount = user.amount.sub(_amount);\r\n        user.rewardDebt = user.amount.mul(pool.accDefionePerShare).div(1e12);\r\n        pool.lpToken.safeTransfer(address(msg.sender), _amount);\r\n        emit Withdraw(msg.sender, _pid, _amount);\r\n    }\r\n\r\n    //Withdraw users Defione token by Collector address. Allows some flexibility to the dev.\r\n    //Does not withdraw LPs\r\n    function extWithdraw(uint256 _pid, address _user)\r\n    public onlyCollector validPID(_pid) nonReentrant{\r\n        uint256 _amount = 0; //HardCoded 0 Amount: Withdraw only Defione tokens and not LP tokens\r\n        PoolInfo storage pool = poolInfo[_pid];\r\n        UserInfo storage user = userInfo[_pid][_user];\r\n        require(user.amount >= _amount, \"withdraw: not good\");\r\n        updatePool(_pid);\r\n        uint256 pending =\r\n            user.amount.mul(pool.accDefionePerShare).div(1e12).sub(\r\n                user.rewardDebt\r\n            );\r\n\r\n        if (pending > 0) {\r\n            safeTokenTransfer(_user, pending);\r\n        }\r\n\r\n        user.rewardDebt = user.amount.mul(pool.accDefionePerShare).div(1e12);\r\n        emit Withdraw(_user, _pid, _amount);\r\n    }\r\n\r\n    function collectAll() public {\r\n        for (uint256 i = 0; i < poolInfo.length-1 ; i++) {\r\n          withdraw(i, 0);\r\n        }\r\n    }\r\n\r\n    // Withdraw without caring about rewards. EMERGENCY ONLY.\r\n    function emergencyWithdraw(uint256 _pid) public validPID(_pid) nonReentrant {\r\n        PoolInfo storage pool = poolInfo[_pid];\r\n        UserInfo storage user = userInfo[_pid][msg.sender];\r\n        pool.lpToken.safeTransfer(address(msg.sender), user.amount);\r\n        emit EmergencyWithdraw(msg.sender, _pid, user.amount);\r\n        user.amount = 0;\r\n        user.rewardDebt = 0;\r\n    }\r\n\r\n    // Safe Defione transfer function, just in case if rounding error causes pool to not have enough SUSHIs.\r\n    function safeTokenTransfer(address _to, uint256 _amount) internal {\r\n        uint256 tokenBal = Defione.balanceOf(address(this));\r\n        bool transferSuccess = false;\r\n        if (_amount > tokenBal) {\r\n            transferSuccess = Defione.transfer(_to, tokenBal);\r\n        } else {\r\n            transferSuccess = Defione.transfer(_to, _amount);\r\n        }\r\n        require(transferSuccess, \"safeTokenTransfer: transfer failed\");\r\n    }\r\n    //allows dev to lower his reward mint percentage by increasing divisor.\r\n    function lowerDevFund() public onlyOwner{\r\n        require(devDivisor < 255, 'Thats it Folks !'); // prevents overflow\r\n        devDivisor += 1;\r\n        emit DevFundLowered(devDivisor);\r\n    }\r\n\r\n    // Update dev address by the previous dev.\r\n    function dev(address _devaddr) public {\r\n        require(msg.sender == devaddr, \"The Dev says: Non.\");\r\n        devaddr = _devaddr;\r\n    }\r\n\r\n    function collector(address _collectoraddr) public {\r\n        require(msg.sender == rewardCollector || msg.sender == devaddr, \"The Dev says: Non. \");\r\n        rewardCollector = _collectoraddr;\r\n    }\r\n\r\n\r\n    function depositor(address _depositoraddr) public {\r\n        require(msg.sender == lpDepositor|| msg.sender == devaddr, \"The dev says: Non. \");\r\n        lpDepositor = _depositoraddr;\r\n    }\r\n}\r\n",
  "sourcePath": "/opt/defione/defione-core/contracts/MasterChef.sol",
  "compiler": {
    "name": "solc",
    "version": "0.6.12+commit.27d51765.Emscripten.clang"
  },
  "schemaVersion": "3.2.4",
  "updatedAt": "2022-01-17T07:37:00.475Z",
  "networkType": "ethereum",
  "devdoc": {
    "kind": "dev",
    "methods": {},
    "version": 1
  },
  "userdoc": {
    "kind": "user",
    "methods": {},
    "version": 1
  }
}