{
  "contractName": "MultiTransfer",
  "abi": [
    {
      "inputs": [
        {
          "internalType": "contract delegateContract",
          "name": "_address",
          "type": "address"
        },
        {
          "internalType": "address",
          "name": "_validator",
          "type": "address"
        }
      ],
      "stateMutability": "nonpayable",
      "type": "constructor"
    },
    {
      "anonymous": false,
      "inputs": [
        {
          "indexed": true,
          "internalType": "address",
          "name": "owner",
          "type": "address"
        },
        {
          "indexed": true,
          "internalType": "address",
          "name": "spender",
          "type": "address"
        },
        {
          "indexed": false,
          "internalType": "uint256",
          "name": "value",
          "type": "uint256"
        }
      ],
      "name": "Approval",
      "type": "event"
    },
    {
      "anonymous": false,
      "inputs": [
        {
          "indexed": true,
          "internalType": "address",
          "name": "previousOwner",
          "type": "address"
        },
        {
          "indexed": true,
          "internalType": "address",
          "name": "newOwner",
          "type": "address"
        }
      ],
      "name": "OwnershipTransferred",
      "type": "event"
    },
    {
      "anonymous": false,
      "inputs": [
        {
          "indexed": true,
          "internalType": "address",
          "name": "from",
          "type": "address"
        },
        {
          "indexed": true,
          "internalType": "address",
          "name": "to",
          "type": "address"
        },
        {
          "indexed": false,
          "internalType": "uint256",
          "name": "value",
          "type": "uint256"
        }
      ],
      "name": "Transfer",
      "type": "event"
    },
    {
      "stateMutability": "payable",
      "type": "fallback"
    },
    {
      "inputs": [],
      "name": "DefioneToken",
      "outputs": [
        {
          "internalType": "contract ERC20",
          "name": "",
          "type": "address"
        }
      ],
      "stateMutability": "view",
      "type": "function"
    },
    {
      "inputs": [],
      "name": "WETH",
      "outputs": [
        {
          "internalType": "address",
          "name": "",
          "type": "address"
        }
      ],
      "stateMutability": "view",
      "type": "function"
    },
    {
      "inputs": [
        {
          "internalType": "address",
          "name": "owner",
          "type": "address"
        },
        {
          "internalType": "address",
          "name": "spender",
          "type": "address"
        }
      ],
      "name": "allowance",
      "outputs": [
        {
          "internalType": "uint256",
          "name": "",
          "type": "uint256"
        }
      ],
      "stateMutability": "view",
      "type": "function"
    },
    {
      "inputs": [
        {
          "internalType": "address",
          "name": "spender",
          "type": "address"
        },
        {
          "internalType": "uint256",
          "name": "amount",
          "type": "uint256"
        }
      ],
      "name": "approve",
      "outputs": [
        {
          "internalType": "bool",
          "name": "",
          "type": "bool"
        }
      ],
      "stateMutability": "nonpayable",
      "type": "function"
    },
    {
      "inputs": [
        {
          "internalType": "address",
          "name": "account",
          "type": "address"
        }
      ],
      "name": "balanceOf",
      "outputs": [
        {
          "internalType": "uint256",
          "name": "",
          "type": "uint256"
        }
      ],
      "stateMutability": "view",
      "type": "function"
    },
    {
      "inputs": [],
      "name": "claimOwnership",
      "outputs": [],
      "stateMutability": "nonpayable",
      "type": "function"
    },
    {
      "inputs": [],
      "name": "decimals",
      "outputs": [
        {
          "internalType": "uint8",
          "name": "",
          "type": "uint8"
        }
      ],
      "stateMutability": "view",
      "type": "function"
    },
    {
      "inputs": [
        {
          "internalType": "address",
          "name": "spender",
          "type": "address"
        },
        {
          "internalType": "uint256",
          "name": "subtractedValue",
          "type": "uint256"
        }
      ],
      "name": "decreaseAllowance",
      "outputs": [
        {
          "internalType": "bool",
          "name": "",
          "type": "bool"
        }
      ],
      "stateMutability": "nonpayable",
      "type": "function"
    },
    {
      "inputs": [],
      "name": "factory",
      "outputs": [
        {
          "internalType": "contract IUniswapV2Factory",
          "name": "",
          "type": "address"
        }
      ],
      "stateMutability": "view",
      "type": "function"
    },
    {
      "inputs": [],
      "name": "feeTo",
      "outputs": [
        {
          "internalType": "address payable",
          "name": "",
          "type": "address"
        }
      ],
      "stateMutability": "view",
      "type": "function"
    },
    {
      "inputs": [
        {
          "internalType": "address",
          "name": "spender",
          "type": "address"
        },
        {
          "internalType": "uint256",
          "name": "addedValue",
          "type": "uint256"
        }
      ],
      "name": "increaseAllowance",
      "outputs": [
        {
          "internalType": "bool",
          "name": "",
          "type": "bool"
        }
      ],
      "stateMutability": "nonpayable",
      "type": "function"
    },
    {
      "inputs": [],
      "name": "name",
      "outputs": [
        {
          "internalType": "string",
          "name": "",
          "type": "string"
        }
      ],
      "stateMutability": "view",
      "type": "function"
    },
    {
      "inputs": [],
      "name": "owner",
      "outputs": [
        {
          "internalType": "address",
          "name": "",
          "type": "address"
        }
      ],
      "stateMutability": "view",
      "type": "function"
    },
    {
      "inputs": [],
      "name": "pendingOwner",
      "outputs": [
        {
          "internalType": "address",
          "name": "",
          "type": "address"
        }
      ],
      "stateMutability": "view",
      "type": "function"
    },
    {
      "inputs": [],
      "name": "symbol",
      "outputs": [
        {
          "internalType": "string",
          "name": "",
          "type": "string"
        }
      ],
      "stateMutability": "view",
      "type": "function"
    },
    {
      "inputs": [],
      "name": "totalSupply",
      "outputs": [
        {
          "internalType": "uint256",
          "name": "",
          "type": "uint256"
        }
      ],
      "stateMutability": "view",
      "type": "function"
    },
    {
      "inputs": [
        {
          "internalType": "address",
          "name": "recipient",
          "type": "address"
        },
        {
          "internalType": "uint256",
          "name": "amount",
          "type": "uint256"
        }
      ],
      "name": "transfer",
      "outputs": [
        {
          "internalType": "bool",
          "name": "",
          "type": "bool"
        }
      ],
      "stateMutability": "nonpayable",
      "type": "function"
    },
    {
      "inputs": [
        {
          "internalType": "address",
          "name": "sender",
          "type": "address"
        },
        {
          "internalType": "address",
          "name": "recipient",
          "type": "address"
        },
        {
          "internalType": "uint256",
          "name": "amount",
          "type": "uint256"
        }
      ],
      "name": "transferFrom",
      "outputs": [
        {
          "internalType": "bool",
          "name": "",
          "type": "bool"
        }
      ],
      "stateMutability": "nonpayable",
      "type": "function"
    },
    {
      "inputs": [
        {
          "internalType": "address",
          "name": "newOwner",
          "type": "address"
        },
        {
          "internalType": "bool",
          "name": "direct",
          "type": "bool"
        },
        {
          "internalType": "bool",
          "name": "renounce",
          "type": "bool"
        }
      ],
      "name": "transferOwnership",
      "outputs": [],
      "stateMutability": "nonpayable",
      "type": "function"
    },
    {
      "inputs": [],
      "name": "validator",
      "outputs": [
        {
          "internalType": "address",
          "name": "",
          "type": "address"
        }
      ],
      "stateMutability": "view",
      "type": "function"
    },
    {
      "inputs": [
        {
          "internalType": "address payable[]",
          "name": "addresses",
          "type": "address[]"
        },
        {
          "internalType": "uint256[]",
          "name": "stakeWeights",
          "type": "uint256[]"
        },
        {
          "internalType": "uint256[]",
          "name": "_stakedAmount",
          "type": "uint256[]"
        }
      ],
      "name": "distribute",
      "outputs": [],
      "stateMutability": "payable",
      "type": "function"
    }
  ],
  "bytecode": "0x60e060405260078054746658dbff8b7be5e2a777d7a270063e434766786600610100600160a81b03199091161790557fcf664087a5bb0237a0bad6742852ec6c8d69a27a000000000000000000000000608081905260a0527f621b6047421fa65fa8e584fbaf0b77a5efee687300000000000000000000000060c052600980546001600160a01b031916733bcc151e980e822609c92902bf368302c1e7cfbc179055348015620000ae57600080fd5b50604051620023c0380380620023c083398181016040526040811015620000d457600080fd5b508051602091820151604080518082018252600681526544565244563360d01b8186015281518083018352600e81526d446566696f6e652056524420763360901b95810195909552600080546001600160a01b031916339081178255925194959394919392917f8be0079c531659141344cd1fd0a4f28419497f9722a3daafe3b4186f6b6457e0908290a3815162000174906005906020850190620001d9565b5080516200018a906006906020840190620001d9565b50506007805460ff1916601217905550600880546001600160a01b039384166001600160a01b031991821617909155600a80549290931691811682179092556000805490921617905562000275565b828054600181600116156101000203166002900490600052602060002090601f016020900481019282601f106200021c57805160ff19168380011785556200024c565b828001600101855582156200024c579182015b828111156200024c5782518255916020019190600101906200022f565b506200025a9291506200025e565b5090565b5b808211156200025a57600081556001016200025f565b60805160601c60a05160601c60c05160601c6120f7620002c960003980610b595280611506525080610c715280611b87525080610b355280610bfa5280610f78528061100f5280611c4e52506120f76000f3fe60806040526004361061012a5760003560e01c806370a08231116100ab578063ad5c46481161006f578063ad5c46481461043e578063c45a015514610453578063d150241f14610468578063dccc67941461047d578063dd62ed3e14610628578063e30c3978146106635761012a565b806370a082311461036f5780638da5cb5b146103a257806395d89b41146103b7578063a457c2d7146103cc578063a9059cbb146104055761012a565b806323b872dd116100f257806323b872dd1461029e578063313ce567146102e1578063395093511461030c5780633a5381b5146103455780634e71e0c81461035a5761012a565b8063017e7e581461012c57806306fdde031461015d578063078dfbe7146101e7578063095ea7b31461022a57806318160ddd14610277575b005b34801561013857600080fd5b50610141610678565b604080516001600160a01b039092168252519081900360200190f35b34801561016957600080fd5b50610172610687565b6040805160208082528351818301528351919283929083019185019080838360005b838110156101ac578181015183820152602001610194565b50505050905090810190601f1680156101d95780820380516001836020036101000a031916815260200191505b509250505060405180910390f35b3480156101f357600080fd5b5061012a6004803603606081101561020a57600080fd5b506001600160a01b0381351690602081013515159060400135151561071d565b34801561023657600080fd5b506102636004803603604081101561024d57600080fd5b506001600160a01b038135169060200135610859565b604080519115158252519081900360200190f35b34801561028357600080fd5b5061028c610877565b60408051918252519081900360200190f35b3480156102aa57600080fd5b50610263600480360360608110156102c157600080fd5b506001600160a01b0381358116916020810135909116906040013561087d565b3480156102ed57600080fd5b506102f6610904565b6040805160ff9092168252519081900360200190f35b34801561031857600080fd5b506102636004803603604081101561032f57600080fd5b506001600160a01b03813516906020013561090d565b34801561035157600080fd5b5061014161095b565b34801561036657600080fd5b5061012a61096a565b34801561037b57600080fd5b5061028c6004803603602081101561039257600080fd5b50356001600160a01b0316610a2c565b3480156103ae57600080fd5b50610141610a47565b3480156103c357600080fd5b50610172610a56565b3480156103d857600080fd5b50610263600480360360408110156103ef57600080fd5b506001600160a01b038135169060200135610ab7565b34801561041157600080fd5b506102636004803603604081101561042857600080fd5b506001600160a01b038135169060200135610b1f565b34801561044a57600080fd5b50610141610b33565b34801561045f57600080fd5b50610141610b57565b34801561047457600080fd5b50610141610b7b565b61012a6004803603606081101561049357600080fd5b8101906020810181356401000000008111156104ae57600080fd5b8201836020820111156104c057600080fd5b803590602001918460208302840111640100000000831117156104e257600080fd5b919080806020026020016040519081016040528093929190818152602001838360200280828437600092019190915250929594936020810193503591505064010000000081111561053257600080fd5b82018360208201111561054457600080fd5b8035906020019184602083028401116401000000008311171561056657600080fd5b91908080602002602001604051908101604052809392919081815260200183836020028082843760009201919091525092959493602081019350359150506401000000008111156105b657600080fd5b8201836020820111156105c857600080fd5b803590602001918460208302840111640100000000831117156105ea57600080fd5b919080806020026020016040519081016040528093929190818152602001838360200280828437600092019190915250929550610b8f945050505050565b34801561063457600080fd5b5061028c6004803603604081101561064b57600080fd5b506001600160a01b0381358116916020013516611090565b34801561066f57600080fd5b506101416110bb565b6009546001600160a01b031681565b60058054604080516020601f60026000196101006001881615020190951694909404938401819004810282018101909252828152606093909290918301828280156107135780601f106106e857610100808354040283529160200191610713565b820191906000526020600020905b8154815290600101906020018083116106f657829003601f168201915b5050505050905090565b6000546001600160a01b0316331461077c576040805162461bcd60e51b815260206004820181905260248201527f4f776e61626c653a2063616c6c6572206973206e6f7420746865206f776e6572604482015290519081900360640190fd5b8115610838576001600160a01b0383161515806107965750805b6107df576040805162461bcd60e51b81526020600482015260156024820152744f776e61626c653a207a65726f206164647265737360581b604482015290519081900360640190fd5b600080546040516001600160a01b03808716939216917f8be0079c531659141344cd1fd0a4f28419497f9722a3daafe3b4186f6b6457e091a3600080546001600160a01b0319166001600160a01b038516179055610854565b600180546001600160a01b0319166001600160a01b0385161790555b505050565b600061086d6108666110ca565b84846110ce565b5060015b92915050565b60045490565b600061088a8484846111ba565b6108fa846108966110ca565b6108f585604051806060016040528060288152602001612009602891396001600160a01b038a166000908152600360205260408120906108d46110ca565b6001600160a01b031681526020810191909152604001600020549190611317565b6110ce565b5060019392505050565b60075460ff1690565b600061086d61091a6110ca565b846108f5856003600061092b6110ca565b6001600160a01b03908116825260208083019390935260409182016000908120918c1681529252902054906113ae565b600a546001600160a01b031681565b6001546001600160a01b03163381146109ca576040805162461bcd60e51b815260206004820181905260248201527f4f776e61626c653a2063616c6c657220213d2070656e64696e67206f776e6572604482015290519081900360640190fd5b600080546040516001600160a01b03808516939216917f8be0079c531659141344cd1fd0a4f28419497f9722a3daafe3b4186f6b6457e091a3600080546001600160a01b039092166001600160a01b0319928316179055600180549091169055565b6001600160a01b031660009081526002602052604090205490565b6000546001600160a01b031681565b60068054604080516020601f60026000196101006001881615020190951694909404938401819004810282018101909252828152606093909290918301828280156107135780601f106106e857610100808354040283529160200191610713565b600061086d610ac46110ca565b846108f58560405180606001604052806025815260200161209d6025913960036000610aee6110ca565b6001600160a01b03908116825260208083019390935260409182016000908120918d16815292529020549190611317565b600061086d610b2c6110ca565b84846111ba565b7f000000000000000000000000000000000000000000000000000000000000000081565b7f000000000000000000000000000000000000000000000000000000000000000081565b60075461010090046001600160a01b031681565b6000546001600160a01b03163314610bee576040805162461bcd60e51b815260206004820181905260248201527f4f776e61626c653a2063616c6c6572206973206e6f7420746865206f776e6572604482015290519081900360640190fd5b610bf8303461140f565b7f00000000000000000000000000000000000000000000000000000000000000006001600160a01b031663d0e30db0346040518263ffffffff1660e01b81526004016000604051808303818588803b158015610c5357600080fd5b505af1158015610c67573d6000803e3d6000fd5b5050505050610cad7f0000000000000000000000000000000000000000000000000000000000000000600760019054906101000a90046001600160a01b03163430611501565b50600754600a54604080516370a0823160e01b81526001600160a01b03928316600482015290516000936101009004909216916370a0823191602480820192602092909190829003018186803b158015610d0657600080fd5b505afa158015610d1a573d6000803e3d6000fd5b505050506040513d6020811015610d3057600080fd5b5051600754600a54604080516323b872dd60e01b81526001600160a01b03928316600482015230602482015260448101859052905193945061010090920416916323b872dd916064808201926020929091908290030181600087803b158015610d9857600080fd5b505af1158015610dac573d6000803e3d6000fd5b505050506040513d6020811015610dc257600080fd5b5050600754604080516370a0823160e01b8152306004820152905160009261010090046001600160a01b0316916370a08231916024808301926020929190829003018186803b158015610e1457600080fd5b505afa158015610e28573d6000803e3d6000fd5b505050506040513d6020811015610e3e57600080fd5b50519050610e4e85858584611a55565b600754604080516370a0823160e01b815230600482015290516101009092046001600160a01b0316916370a0823191602480820192602092909190829003018186803b158015610e9d57600080fd5b505afa158015610eb1573d6000803e3d6000fd5b505050506040513d6020811015610ec757600080fd5b50516007546009546040805163a9059cbb60e01b81526001600160a01b039283166004820152602481018590529051939450610100909204169163a9059cbb916044808201926020929091908290030181600087803b158015610f2957600080fd5b505af1158015610f3d573d6000803e3d6000fd5b505050506040513d6020811015610f5357600080fd5b5050604080516370a0823160e01b815230600482015290516000916001600160a01b037f000000000000000000000000000000000000000000000000000000000000000016916370a0823191602480820192602092909190829003018186803b158015610fbf57600080fd5b505afa158015610fd3573d6000803e3d6000fd5b505050506040513d6020811015610fe957600080fd5b505160408051632e1a7d4d60e01b81526004810183905290519192506001600160a01b037f00000000000000000000000000000000000000000000000000000000000000001691632e1a7d4d9160248082019260009290919082900301818387803b15801561105757600080fd5b505af115801561106b573d6000803e3d6000fd5b505060095447925061108791506001600160a01b031682611d6c565b50505050505050565b6001600160a01b03918216600090815260036020908152604080832093909416825291909152205490565b6001546001600160a01b031681565b3390565b6001600160a01b0383166111135760405162461bcd60e51b81526004018080602001828103825260248152602001806120566024913960400191505060405180910390fd5b6001600160a01b0382166111585760405162461bcd60e51b8152600401808060200182810382526022815260200180611fa06022913960400191505060405180910390fd5b6001600160a01b03808416600081815260036020908152604080832094871680845294825291829020859055815185815291517f8c5be1e5ebec7d5bd14f71427d1e84f3dd0314c0f7b2291e5b200ac8c7c3b9259281900390910190a3505050565b6001600160a01b0383166111ff5760405162461bcd60e51b81526004018080602001828103825260258152602001806120316025913960400191505060405180910390fd5b6001600160a01b0382166112445760405162461bcd60e51b8152600401808060200182810382526023815260200180611f7d6023913960400191505060405180910390fd5b61124f838383610854565b61128c81604051806060016040528060268152602001611fc2602691396001600160a01b0386166000908152600260205260409020549190611317565b6001600160a01b0380851660009081526002602052604080822093909355908416815220546112bb90826113ae565b6001600160a01b0380841660008181526002602090815260409182902094909455805185815290519193928716927fddf252ad1be2c89b69c2b068fc378daa952ba7f163c4a11628f55a4df523b3ef92918290030190a3505050565b600081848411156113a65760405162461bcd60e51b81526004018080602001828103825283818151815260200191508051906020019080838360005b8381101561136b578181015183820152602001611353565b50505050905090810190601f1680156113985780820380516001836020036101000a031916815260200191505b509250505060405180910390fd5b505050900390565b600082820183811015611408576040805162461bcd60e51b815260206004820152601b60248201527f536166654d6174683a206164646974696f6e206f766572666c6f770000000000604482015290519081900360640190fd5b9392505050565b6001600160a01b03821661146a576040805162461bcd60e51b815260206004820152601f60248201527f45524332303a206d696e7420746f20746865207a65726f206164647265737300604482015290519081900360640190fd5b61147660008383610854565b60045461148390826113ae565b6004556001600160a01b0382166000908152600260205260409020546114a990826113ae565b6001600160a01b03831660008181526002602090815260408083209490945583518581529351929391927fddf252ad1be2c89b69c2b068fc378daa952ba7f163c4a11628f55a4df523b3ef9281900390910190a35050565b6000807f00000000000000000000000000000000000000000000000000000000000000006001600160a01b031663e6a4390587876040518363ffffffff1660e01b815260040180836001600160a01b03168152602001826001600160a01b031681526020019250505060206040518083038186803b15801561158257600080fd5b505afa158015611596573d6000803e3d6000fd5b505050506040513d60208110156115ac57600080fd5b505190506001600160a01b0381166115fc576040805162461bcd60e51b815260206004820152600e60248201526d10d85b9b9bdd0818dbdb9d995c9d60921b604482015290519081900360640190fd5b600080826001600160a01b0316630902f1ac6040518163ffffffff1660e01b815260040160606040518083038186803b15801561163857600080fd5b505afa15801561164c573d6000803e3d6000fd5b505050506040513d606081101561166257600080fd5b5080516020909101516dffffffffffffffffffffffffffff91821693501690506000611690876103e5611e5f565b9050836001600160a01b0316630dfe16816040518163ffffffff1660e01b815260040160206040518083038186803b1580156116cb57600080fd5b505afa1580156116df573d6000803e3d6000fd5b505050506040513d60208110156116f557600080fd5b50516001600160a01b038a8116911614156118b1576117208161171a856103e8611e5f565b906113ae565b611736836117308a6103e5611e5f565b90611e5f565b8161173d57fe5b049450886001600160a01b031663a9059cbb85896040518363ffffffff1660e01b815260040180836001600160a01b0316815260200182815260200192505050602060405180830381600087803b15801561179757600080fd5b505af11580156117ab573d6000803e3d6000fd5b505050506040513d60208110156117c157600080fd5b5050604080516000808252602082019283905263022c0d9f60e01b835260248201818152604483018990526001600160a01b038a81166064850152608060848501908152845160a48601819052918a169563022c0d9f958c948e9491939092909160c4850191908083838b5b8381101561184557818101518382015260200161182d565b50505050905090810190601f1680156118725780820380516001836020036101000a031916815260200191505b5095505050505050600060405180830381600087803b15801561189457600080fd5b505af11580156118a8573d6000803e3d6000fd5b50505050611a49565b6118c18161171a846103e8611e5f565b6118d1846117308a6103e5611e5f565b816118d857fe5b049450886001600160a01b031663a9059cbb85896040518363ffffffff1660e01b815260040180836001600160a01b0316815260200182815260200192505050602060405180830381600087803b15801561193257600080fd5b505af1158015611946573d6000803e3d6000fd5b505050506040513d602081101561195c57600080fd5b5050604080516000808252602082019283905263022c0d9f60e01b835260248201888152604483018290526001600160a01b038a81166064850152608060848501908152845160a48601819052918a169563022c0d9f958c95948e9491939092909160c4850191908083838a5b838110156119e15781810151838201526020016119c9565b50505050905090810190601f168015611a0e5780820380516001836020036101000a031916815260200191505b5095505050505050600060405180830381600087803b158015611a3057600080fd5b505af1158015611a44573d6000803e3d6000fd5b505050505b50505050949350505050565b835160005b81811015611d64576000868281518110611a7057fe5b602002602001015190506000868381518110611a8857fe5b6020908102919091018101516008546040805163754b270760e01b81526001600160a01b03878116600483015291519395508994600094929093169263754b270792602480840193829003018186803b158015611ae457600080fd5b505afa158015611af8573d6000803e3d6000fd5b505050506040513d6020811015611b0e57600080fd5b50518851909150600090899087908110611b2457fe5b602002602001015190506000611b556064611b4f62989680611b4f8989611e5f90919063ffffffff16565b90611eb8565b90506000611b686064611b4f8487611e5f565b90506000611bad600760019054906101000a90046001600160a01b03167f00000000000000000000000000000000000000000000000000000000000000008430611501565b90506000611bbb8484611f1f565b6007546040805163a9059cbb60e01b81526001600160a01b038d81166004830152602482018590529151939450610100909204169163a9059cbb916044808201926020929091908290030181600087803b158015611c1857600080fd5b505af1158015611c2c573d6000803e3d6000fd5b505050506040513d6020811015611c4257600080fd5b505060648614611cd4577f00000000000000000000000000000000000000000000000000000000000000006001600160a01b0316632e1a7d4d836040518263ffffffff1660e01b815260040180828152602001915050600060405180830381600087803b158015611cb257600080fd5b505af1158015611cc6573d6000803e3d6000fd5b50505050611cd48983611d6c565b60085460408051635781602160e11b81526001600160a01b038c811660048301526024820189905260448201859052606482018690529151919092169163af02c04291608480830192600092919082900301818387803b158015611d3757600080fd5b505af1158015611d4b573d6000803e3d6000fd5b50506001909b019a50611a5a9950505050505050505050565b505050505050565b604080516000808252602082019092526001600160a01b0384169083906040518082805190602001908083835b60208310611db85780518252601f199092019160209182019101611d99565b6001836020036101000a03801982511681845116808217855250505050505090500191505060006040518083038185875af1925050503d8060008114611e1a576040519150601f19603f3d011682016040523d82523d6000602084013e611e1f565b606091505b50509050806108545760405162461bcd60e51b815260040180806020018281038252602381526020018061207a6023913960400191505060405180910390fd5b600082611e6e57506000610871565b82820282848281611e7b57fe5b04146114085760405162461bcd60e51b8152600401808060200182810382526021815260200180611fe86021913960400191505060405180910390fd5b6000808211611f0e576040805162461bcd60e51b815260206004820152601a60248201527f536166654d6174683a206469766973696f6e206279207a65726f000000000000604482015290519081900360640190fd5b818381611f1757fe5b049392505050565b600082821115611f76576040805162461bcd60e51b815260206004820152601e60248201527f536166654d6174683a207375627472616374696f6e206f766572666c6f770000604482015290519081900360640190fd5b5090039056fe45524332303a207472616e7366657220746f20746865207a65726f206164647265737345524332303a20617070726f766520746f20746865207a65726f206164647265737345524332303a207472616e7366657220616d6f756e7420657863656564732062616c616e6365536166654d6174683a206d756c7469706c69636174696f6e206f766572666c6f7745524332303a207472616e7366657220616d6f756e74206578636565647320616c6c6f77616e636545524332303a207472616e736665722066726f6d20746865207a65726f206164647265737345524332303a20617070726f76652066726f6d20746865207a65726f20616464726573735472616e7366657248656c7065723a204554485f5452414e534645525f4641494c454445524332303a2064656372656173656420616c6c6f77616e63652062656c6f77207a65726fa26469706673582212208d4aca49c464010e917849599d09013aaf0498dff5c256f29863d258eb37611864736f6c634300060c0033",
  "immutableReferences": {
    "6619": [
      {
        "length": 32,
        "start": 2869
      },
      {
        "length": 32,
        "start": 3066
      },
      {
        "length": 32,
        "start": 3960
      },
      {
        "length": 32,
        "start": 4111
      },
      {
        "length": 32,
        "start": 7246
      }
    ],
    "6622": [
      {
        "length": 32,
        "start": 3185
      },
      {
        "length": 32,
        "start": 7047
      }
    ],
    "6629": [
      {
        "length": 32,
        "start": 2905
      },
      {
        "length": 32,
        "start": 5382
      }
    ]
  },
  "source": "// File: contracts/Ownable.sol\n\n// SPDX-License-Identifier: MIT\n// Audit on 5-Jan-2021 by Keno and BoringCrypto\n\n// P1 - P3: OK\npragma solidity 0.6.12;\n\n// Source: https://github.com/OpenZeppelin/openzeppelin-contracts/blob/master/contracts/access/Ownable.sol + Claimable.sol\n// Edited by BoringCrypto\n\n// T1 - T4: OK\ncontract OwnableData {\n    // V1 - V5: OK\n    address public owner;\n    // V1 - V5: OK\n    address public pendingOwner;\n}\n\n// T1 - T4: OK\ncontract Ownable is OwnableData {\n    // E1: OK\n    event OwnershipTransferred(address indexed previousOwner, address indexed newOwner);\n\n    constructor () internal {\n        owner = msg.sender;\n        emit OwnershipTransferred(address(0), msg.sender);\n    }\n\n    // F1 - F9: OK\n    // C1 - C21: OK\n    function transferOwnership(address newOwner, bool direct, bool renounce) public onlyOwner {\n        if (direct) {\n            // Checks\n            require(newOwner != address(0) || renounce, \"Ownable: zero address\");\n\n            // Effects\n            emit OwnershipTransferred(owner, newOwner);\n            owner = newOwner;\n        } else {\n            // Effects\n            pendingOwner = newOwner;\n        }\n    }\n\n    // F1 - F9: OK\n    // C1 - C21: OK\n    function claimOwnership() public {\n        address _pendingOwner = pendingOwner;\n\n        // Checks\n        require(msg.sender == _pendingOwner, \"Ownable: caller != pending owner\");\n\n        // Effects\n        emit OwnershipTransferred(owner, _pendingOwner);\n        owner = _pendingOwner;\n        pendingOwner = address(0);\n    }\n\n    // M1 - M5: OK\n    // C1 - C21: OK\n    modifier onlyOwner() {\n        require(msg.sender == owner, \"Ownable: caller is not the owner\");\n        _;\n    }\n}\n\n// File: @openzeppelin/contracts/utils/Context.sol\n\n\npragma solidity >=0.6.0 <0.8.0;\n\n/*\n * @dev Provides information about the current execution context, including the\n * sender of the transaction and its data. While these are generally available\n * via msg.sender and msg.data, they should not be accessed in such a direct\n * manner, since when dealing with GSN meta-transactions the account sending and\n * paying for execution may not be the actual sender (as far as an application\n * is concerned).\n *\n * This contract is only required for intermediate, library-like contracts.\n */\nabstract contract Context {\n    function _msgSender() internal view virtual returns (address payable) {\n        return msg.sender;\n    }\n\n    function _msgData() internal view virtual returns (bytes memory) {\n        this; // silence state mutability warning without generating bytecode - see https://github.com/ethereum/solidity/issues/2691\n        return msg.data;\n    }\n}\n\n// File: @openzeppelin/contracts/token/ERC20/IERC20.sol\n\n\npragma solidity >=0.6.0 <0.8.0;\n\n/**\n * @dev Interface of the ERC20 standard as defined in the EIP.\n */\ninterface IERC20 {\n    /**\n     * @dev Returns the amount of tokens in existence.\n     */\n    function totalSupply() external view returns (uint256);\n\n    /**\n     * @dev Returns the amount of tokens owned by `account`.\n     */\n    function balanceOf(address account) external view returns (uint256);\n\n    /**\n     * @dev Moves `amount` tokens from the caller's account to `recipient`.\n     *\n     * Returns a boolean value indicating whether the operation succeeded.\n     *\n     * Emits a {Transfer} event.\n     */\n    function transfer(address recipient, uint256 amount) external returns (bool);\n\n    /**\n     * @dev Returns the remaining number of tokens that `spender` will be\n     * allowed to spend on behalf of `owner` through {transferFrom}. This is\n     * zero by default.\n     *\n     * This value changes when {approve} or {transferFrom} are called.\n     */\n    function allowance(address owner, address spender) external view returns (uint256);\n\n    /**\n     * @dev Sets `amount` as the allowance of `spender` over the caller's tokens.\n     *\n     * Returns a boolean value indicating whether the operation succeeded.\n     *\n     * IMPORTANT: Beware that changing an allowance with this method brings the risk\n     * that someone may use both the old and the new allowance by unfortunate\n     * transaction ordering. One possible solution to mitigate this race\n     * condition is to first reduce the spender's allowance to 0 and set the\n     * desired value afterwards:\n     * https://github.com/ethereum/EIPs/issues/20#issuecomment-263524729\n     *\n     * Emits an {Approval} event.\n     */\n    function approve(address spender, uint256 amount) external returns (bool);\n\n    /**\n     * @dev Moves `amount` tokens from `sender` to `recipient` using the\n     * allowance mechanism. `amount` is then deducted from the caller's\n     * allowance.\n     *\n     * Returns a boolean value indicating whether the operation succeeded.\n     *\n     * Emits a {Transfer} event.\n     */\n    function transferFrom(address sender, address recipient, uint256 amount) external returns (bool);\n\n    /**\n     * @dev Emitted when `value` tokens are moved from one account (`from`) to\n     * another (`to`).\n     *\n     * Note that `value` may be zero.\n     */\n    event Transfer(address indexed from, address indexed to, uint256 value);\n\n    /**\n     * @dev Emitted when the allowance of a `spender` for an `owner` is set by\n     * a call to {approve}. `value` is the new allowance.\n     */\n    event Approval(address indexed owner, address indexed spender, uint256 value);\n}\n\n// File: @openzeppelin/contracts/math/SafeMath.sol\n\n\npragma solidity >=0.6.0 <0.8.0;\n\n/**\n * @dev Wrappers over Solidity's arithmetic operations with added overflow\n * checks.\n *\n * Arithmetic operations in Solidity wrap on overflow. This can easily result\n * in bugs, because programmers usually assume that an overflow raises an\n * error, which is the standard behavior in high level programming languages.\n * `SafeMath` restores this intuition by reverting the transaction when an\n * operation overflows.\n *\n * Using this library instead of the unchecked operations eliminates an entire\n * class of bugs, so it's recommended to use it always.\n */\nlibrary SafeMath {\n    /**\n     * @dev Returns the addition of two unsigned integers, with an overflow flag.\n     *\n     * _Available since v3.4._\n     */\n    function tryAdd(uint256 a, uint256 b) internal pure returns (bool, uint256) {\n        uint256 c = a + b;\n        if (c < a) return (false, 0);\n        return (true, c);\n    }\n\n    /**\n     * @dev Returns the substraction of two unsigned integers, with an overflow flag.\n     *\n     * _Available since v3.4._\n     */\n    function trySub(uint256 a, uint256 b) internal pure returns (bool, uint256) {\n        if (b > a) return (false, 0);\n        return (true, a - b);\n    }\n\n    /**\n     * @dev Returns the multiplication of two unsigned integers, with an overflow flag.\n     *\n     * _Available since v3.4._\n     */\n    function tryMul(uint256 a, uint256 b) internal pure returns (bool, uint256) {\n        // Gas optimization: this is cheaper than requiring 'a' not being zero, but the\n        // benefit is lost if 'b' is also tested.\n        // See: https://github.com/OpenZeppelin/openzeppelin-contracts/pull/522\n        if (a == 0) return (true, 0);\n        uint256 c = a * b;\n        if (c / a != b) return (false, 0);\n        return (true, c);\n    }\n\n    /**\n     * @dev Returns the division of two unsigned integers, with a division by zero flag.\n     *\n     * _Available since v3.4._\n     */\n    function tryDiv(uint256 a, uint256 b) internal pure returns (bool, uint256) {\n        if (b == 0) return (false, 0);\n        return (true, a / b);\n    }\n\n    /**\n     * @dev Returns the remainder of dividing two unsigned integers, with a division by zero flag.\n     *\n     * _Available since v3.4._\n     */\n    function tryMod(uint256 a, uint256 b) internal pure returns (bool, uint256) {\n        if (b == 0) return (false, 0);\n        return (true, a % b);\n    }\n\n    /**\n     * @dev Returns the addition of two unsigned integers, reverting on\n     * overflow.\n     *\n     * Counterpart to Solidity's `+` operator.\n     *\n     * Requirements:\n     *\n     * - Addition cannot overflow.\n     */\n    function add(uint256 a, uint256 b) internal pure returns (uint256) {\n        uint256 c = a + b;\n        require(c >= a, \"SafeMath: addition overflow\");\n        return c;\n    }\n\n    /**\n     * @dev Returns the subtraction of two unsigned integers, reverting on\n     * overflow (when the result is negative).\n     *\n     * Counterpart to Solidity's `-` operator.\n     *\n     * Requirements:\n     *\n     * - Subtraction cannot overflow.\n     */\n    function sub(uint256 a, uint256 b) internal pure returns (uint256) {\n        require(b <= a, \"SafeMath: subtraction overflow\");\n        return a - b;\n    }\n\n    /**\n     * @dev Returns the multiplication of two unsigned integers, reverting on\n     * overflow.\n     *\n     * Counterpart to Solidity's `*` operator.\n     *\n     * Requirements:\n     *\n     * - Multiplication cannot overflow.\n     */\n    function mul(uint256 a, uint256 b) internal pure returns (uint256) {\n        if (a == 0) return 0;\n        uint256 c = a * b;\n        require(c / a == b, \"SafeMath: multiplication overflow\");\n        return c;\n    }\n\n    /**\n     * @dev Returns the integer division of two unsigned integers, reverting on\n     * division by zero. The result is rounded towards zero.\n     *\n     * Counterpart to Solidity's `/` operator. Note: this function uses a\n     * `revert` opcode (which leaves remaining gas untouched) while Solidity\n     * uses an invalid opcode to revert (consuming all remaining gas).\n     *\n     * Requirements:\n     *\n     * - The divisor cannot be zero.\n     */\n    function div(uint256 a, uint256 b) internal pure returns (uint256) {\n        require(b > 0, \"SafeMath: division by zero\");\n        return a / b;\n    }\n\n    /**\n     * @dev Returns the remainder of dividing two unsigned integers. (unsigned integer modulo),\n     * reverting when dividing by zero.\n     *\n     * Counterpart to Solidity's `%` operator. This function uses a `revert`\n     * opcode (which leaves remaining gas untouched) while Solidity uses an\n     * invalid opcode to revert (consuming all remaining gas).\n     *\n     * Requirements:\n     *\n     * - The divisor cannot be zero.\n     */\n    function mod(uint256 a, uint256 b) internal pure returns (uint256) {\n        require(b > 0, \"SafeMath: modulo by zero\");\n        return a % b;\n    }\n\n    /**\n     * @dev Returns the subtraction of two unsigned integers, reverting with custom message on\n     * overflow (when the result is negative).\n     *\n     * CAUTION: This function is deprecated because it requires allocating memory for the error\n     * message unnecessarily. For custom revert reasons use {trySub}.\n     *\n     * Counterpart to Solidity's `-` operator.\n     *\n     * Requirements:\n     *\n     * - Subtraction cannot overflow.\n     */\n    function sub(uint256 a, uint256 b, string memory errorMessage) internal pure returns (uint256) {\n        require(b <= a, errorMessage);\n        return a - b;\n    }\n\n    /**\n     * @dev Returns the integer division of two unsigned integers, reverting with custom message on\n     * division by zero. The result is rounded towards zero.\n     *\n     * CAUTION: This function is deprecated because it requires allocating memory for the error\n     * message unnecessarily. For custom revert reasons use {tryDiv}.\n     *\n     * Counterpart to Solidity's `/` operator. Note: this function uses a\n     * `revert` opcode (which leaves remaining gas untouched) while Solidity\n     * uses an invalid opcode to revert (consuming all remaining gas).\n     *\n     * Requirements:\n     *\n     * - The divisor cannot be zero.\n     */\n    function div(uint256 a, uint256 b, string memory errorMessage) internal pure returns (uint256) {\n        require(b > 0, errorMessage);\n        return a / b;\n    }\n\n    /**\n     * @dev Returns the remainder of dividing two unsigned integers. (unsigned integer modulo),\n     * reverting with custom message when dividing by zero.\n     *\n     * CAUTION: This function is deprecated because it requires allocating memory for the error\n     * message unnecessarily. For custom revert reasons use {tryMod}.\n     *\n     * Counterpart to Solidity's `%` operator. This function uses a `revert`\n     * opcode (which leaves remaining gas untouched) while Solidity uses an\n     * invalid opcode to revert (consuming all remaining gas).\n     *\n     * Requirements:\n     *\n     * - The divisor cannot be zero.\n     */\n    function mod(uint256 a, uint256 b, string memory errorMessage) internal pure returns (uint256) {\n        require(b > 0, errorMessage);\n        return a % b;\n    }\n}\n\n// File: @openzeppelin/contracts/token/ERC20/ERC20.sol\n\n\npragma solidity >=0.6.0 <0.8.0;\n\n\n\n\n/**\n * @dev Implementation of the {IERC20} interface.\n *\n * This implementation is agnostic to the way tokens are created. This means\n * that a supply mechanism has to be added in a derived contract using {_mint}.\n * For a generic mechanism see {ERC20PresetMinterPauser}.\n *\n * TIP: For a detailed writeup see our guide\n * https://forum.zeppelin.solutions/t/how-to-implement-erc20-supply-mechanisms/226[How\n * to implement supply mechanisms].\n *\n * We have followed general OpenZeppelin guidelines: functions revert instead\n * of returning `false` on failure. This behavior is nonetheless conventional\n * and does not conflict with the expectations of ERC20 applications.\n *\n * Additionally, an {Approval} event is emitted on calls to {transferFrom}.\n * This allows applications to reconstruct the allowance for all accounts just\n * by listening to said events. Other implementations of the EIP may not emit\n * these events, as it isn't required by the specification.\n *\n * Finally, the non-standard {decreaseAllowance} and {increaseAllowance}\n * functions have been added to mitigate the well-known issues around setting\n * allowances. See {IERC20-approve}.\n */\ncontract ERC20 is Context, IERC20 {\n    using SafeMath for uint256;\n\n    mapping (address => uint256) private _balances;\n\n    mapping (address => mapping (address => uint256)) private _allowances;\n\n    uint256 private _totalSupply;\n\n    string private _name;\n    string private _symbol;\n    uint8 private _decimals;\n\n    /**\n     * @dev Sets the values for {name} and {symbol}, initializes {decimals} with\n     * a default value of 18.\n     *\n     * To select a different value for {decimals}, use {_setupDecimals}.\n     *\n     * All three of these values are immutable: they can only be set once during\n     * construction.\n     */\n    constructor (string memory name_, string memory symbol_) public {\n        _name = name_;\n        _symbol = symbol_;\n        _decimals = 18;\n    }\n\n    /**\n     * @dev Returns the name of the token.\n     */\n    function name() public view virtual returns (string memory) {\n        return _name;\n    }\n\n    /**\n     * @dev Returns the symbol of the token, usually a shorter version of the\n     * name.\n     */\n    function symbol() public view virtual returns (string memory) {\n        return _symbol;\n    }\n\n    /**\n     * @dev Returns the number of decimals used to get its user representation.\n     * For example, if `decimals` equals `2`, a balance of `505` tokens should\n     * be displayed to a user as `5,05` (`505 / 10 ** 2`).\n     *\n     * Tokens usually opt for a value of 18, imitating the relationship between\n     * Ether and Wei. This is the value {ERC20} uses, unless {_setupDecimals} is\n     * called.\n     *\n     * NOTE: This information is only used for _display_ purposes: it in\n     * no way affects any of the arithmetic of the contract, including\n     * {IERC20-balanceOf} and {IERC20-transfer}.\n     */\n    function decimals() public view virtual returns (uint8) {\n        return _decimals;\n    }\n\n    /**\n     * @dev See {IERC20-totalSupply}.\n     */\n    function totalSupply() public view virtual override returns (uint256) {\n        return _totalSupply;\n    }\n\n    /**\n     * @dev See {IERC20-balanceOf}.\n     */\n    function balanceOf(address account) public view virtual override returns (uint256) {\n        return _balances[account];\n    }\n\n    /**\n     * @dev See {IERC20-transfer}.\n     *\n     * Requirements:\n     *\n     * - `recipient` cannot be the zero address.\n     * - the caller must have a balance of at least `amount`.\n     */\n    function transfer(address recipient, uint256 amount) public virtual override returns (bool) {\n        _transfer(_msgSender(), recipient, amount);\n        return true;\n    }\n\n    /**\n     * @dev See {IERC20-allowance}.\n     */\n    function allowance(address owner, address spender) public view virtual override returns (uint256) {\n        return _allowances[owner][spender];\n    }\n\n    /**\n     * @dev See {IERC20-approve}.\n     *\n     * Requirements:\n     *\n     * - `spender` cannot be the zero address.\n     */\n    function approve(address spender, uint256 amount) public virtual override returns (bool) {\n        _approve(_msgSender(), spender, amount);\n        return true;\n    }\n\n    /**\n     * @dev See {IERC20-transferFrom}.\n     *\n     * Emits an {Approval} event indicating the updated allowance. This is not\n     * required by the EIP. See the note at the beginning of {ERC20}.\n     *\n     * Requirements:\n     *\n     * - `sender` and `recipient` cannot be the zero address.\n     * - `sender` must have a balance of at least `amount`.\n     * - the caller must have allowance for ``sender``'s tokens of at least\n     * `amount`.\n     */\n    function transferFrom(address sender, address recipient, uint256 amount) public virtual override returns (bool) {\n        _transfer(sender, recipient, amount);\n        _approve(sender, _msgSender(), _allowances[sender][_msgSender()].sub(amount, \"ERC20: transfer amount exceeds allowance\"));\n        return true;\n    }\n\n    /**\n     * @dev Atomically increases the allowance granted to `spender` by the caller.\n     *\n     * This is an alternative to {approve} that can be used as a mitigation for\n     * problems described in {IERC20-approve}.\n     *\n     * Emits an {Approval} event indicating the updated allowance.\n     *\n     * Requirements:\n     *\n     * - `spender` cannot be the zero address.\n     */\n    function increaseAllowance(address spender, uint256 addedValue) public virtual returns (bool) {\n        _approve(_msgSender(), spender, _allowances[_msgSender()][spender].add(addedValue));\n        return true;\n    }\n\n    /**\n     * @dev Atomically decreases the allowance granted to `spender` by the caller.\n     *\n     * This is an alternative to {approve} that can be used as a mitigation for\n     * problems described in {IERC20-approve}.\n     *\n     * Emits an {Approval} event indicating the updated allowance.\n     *\n     * Requirements:\n     *\n     * - `spender` cannot be the zero address.\n     * - `spender` must have allowance for the caller of at least\n     * `subtractedValue`.\n     */\n    function decreaseAllowance(address spender, uint256 subtractedValue) public virtual returns (bool) {\n        _approve(_msgSender(), spender, _allowances[_msgSender()][spender].sub(subtractedValue, \"ERC20: decreased allowance below zero\"));\n        return true;\n    }\n\n    /**\n     * @dev Moves tokens `amount` from `sender` to `recipient`.\n     *\n     * This is internal function is equivalent to {transfer}, and can be used to\n     * e.g. implement automatic token fees, slashing mechanisms, etc.\n     *\n     * Emits a {Transfer} event.\n     *\n     * Requirements:\n     *\n     * - `sender` cannot be the zero address.\n     * - `recipient` cannot be the zero address.\n     * - `sender` must have a balance of at least `amount`.\n     */\n    function _transfer(address sender, address recipient, uint256 amount) internal virtual {\n        require(sender != address(0), \"ERC20: transfer from the zero address\");\n        require(recipient != address(0), \"ERC20: transfer to the zero address\");\n\n        _beforeTokenTransfer(sender, recipient, amount);\n\n        _balances[sender] = _balances[sender].sub(amount, \"ERC20: transfer amount exceeds balance\");\n        _balances[recipient] = _balances[recipient].add(amount);\n        emit Transfer(sender, recipient, amount);\n    }\n\n    /** @dev Creates `amount` tokens and assigns them to `account`, increasing\n     * the total supply.\n     *\n     * Emits a {Transfer} event with `from` set to the zero address.\n     *\n     * Requirements:\n     *\n     * - `to` cannot be the zero address.\n     */\n    function _mint(address account, uint256 amount) internal virtual {\n        require(account != address(0), \"ERC20: mint to the zero address\");\n\n        _beforeTokenTransfer(address(0), account, amount);\n\n        _totalSupply = _totalSupply.add(amount);\n        _balances[account] = _balances[account].add(amount);\n        emit Transfer(address(0), account, amount);\n    }\n\n    /**\n     * @dev Destroys `amount` tokens from `account`, reducing the\n     * total supply.\n     *\n     * Emits a {Transfer} event with `to` set to the zero address.\n     *\n     * Requirements:\n     *\n     * - `account` cannot be the zero address.\n     * - `account` must have at least `amount` tokens.\n     */\n    function _burn(address account, uint256 amount) internal virtual {\n        require(account != address(0), \"ERC20: burn from the zero address\");\n\n        _beforeTokenTransfer(account, address(0), amount);\n\n        _balances[account] = _balances[account].sub(amount, \"ERC20: burn amount exceeds balance\");\n        _totalSupply = _totalSupply.sub(amount);\n        emit Transfer(account, address(0), amount);\n    }\n\n    /**\n     * @dev Sets `amount` as the allowance of `spender` over the `owner` s tokens.\n     *\n     * This internal function is equivalent to `approve`, and can be used to\n     * e.g. set automatic allowances for certain subsystems, etc.\n     *\n     * Emits an {Approval} event.\n     *\n     * Requirements:\n     *\n     * - `owner` cannot be the zero address.\n     * - `spender` cannot be the zero address.\n     */\n    function _approve(address owner, address spender, uint256 amount) internal virtual {\n        require(owner != address(0), \"ERC20: approve from the zero address\");\n        require(spender != address(0), \"ERC20: approve to the zero address\");\n\n        _allowances[owner][spender] = amount;\n        emit Approval(owner, spender, amount);\n    }\n\n    /**\n     * @dev Sets {decimals} to a value other than the default one of 18.\n     *\n     * WARNING: This function should only be called from the constructor. Most\n     * applications that interact with token contracts will not expect\n     * {decimals} to ever change, and may work incorrectly if it does.\n     */\n    function _setupDecimals(uint8 decimals_) internal virtual {\n        _decimals = decimals_;\n    }\n\n    /**\n     * @dev Hook that is called before any transfer of tokens. This includes\n     * minting and burning.\n     *\n     * Calling conditions:\n     *\n     * - when `from` and `to` are both non-zero, `amount` of ``from``'s tokens\n     * will be to transferred to `to`.\n     * - when `from` is zero, `amount` tokens will be minted for `to`.\n     * - when `to` is zero, `amount` of ``from``'s tokens will be burned.\n     * - `from` and `to` are never both zero.\n     *\n     * To learn more about hooks, head to xref:ROOT:extending-contracts.adoc#using-hooks[Using Hooks].\n     */\n    function _beforeTokenTransfer(address from, address to, uint256 amount) internal virtual { }\n}\n\n// File: contracts/interfaces/IUniswapV2Pair.sol\n\n\npragma solidity >=0.5.0;\n\ninterface IUniswapV2Pair {\n    event Approval(address indexed owner, address indexed spender, uint value);\n    event Transfer(address indexed from, address indexed to, uint value);\n\n    function name() external pure returns (string memory);\n    function symbol() external pure returns (string memory);\n    function decimals() external pure returns (uint8);\n    function totalSupply() external view returns (uint);\n    function balanceOf(address owner) external view returns (uint);\n    function allowance(address owner, address spender) external view returns (uint);\n\n    function approve(address spender, uint value) external returns (bool);\n    function transfer(address to, uint value) external returns (bool);\n    function transferFrom(address from, address to, uint value) external returns (bool);\n\n    function DOMAIN_SEPARATOR() external view returns (bytes32);\n    function PERMIT_TYPEHASH() external pure returns (bytes32);\n    function nonces(address owner) external view returns (uint);\n\n    function permit(address owner, address spender, uint value, uint deadline, uint8 v, bytes32 r, bytes32 s) external;\n\n    event Mint(address indexed sender, uint amount0, uint amount1);\n    event Burn(address indexed sender, uint amount0, uint amount1, address indexed to);\n    event Swap(\n        address indexed sender,\n        uint amount0In,\n        uint amount1In,\n        uint amount0Out,\n        uint amount1Out,\n        address indexed to\n    );\n    event Sync(uint112 reserve0, uint112 reserve1);\n\n    function MINIMUM_LIQUIDITY() external pure returns (uint);\n    function factory() external view returns (address);\n    function token0() external view returns (address);\n    function token1() external view returns (address);\n    function getReserves() external view returns (uint112 reserve0, uint112 reserve1, uint32 blockTimestampLast);\n    function price0CumulativeLast() external view returns (uint);\n    function price1CumulativeLast() external view returns (uint);\n    function kLast() external view returns (uint);\n\n    function mint(address to) external returns (uint liquidity);\n    function burn(address to) external returns (uint amount0, uint amount1);\n    function swap(uint amount0Out, uint amount1Out, address to, bytes calldata data) external;\n    function skim(address to) external;\n    function sync() external;\n\n    function initialize(address, address) external;\n}\n\n// File: contracts/interfaces/IUniswapV2Factory.sol\n\n\npragma solidity >=0.5.0;\n\ninterface IUniswapV2Factory {\n    event PairCreated(address indexed token0, address indexed token1, address pair, uint);\n\n    function feeTo() external view returns (address);\n    function feeToSetter() external view returns (address);\n\n\n    function getPair(address tokenA, address tokenB) external view returns (address pair);\n    function allPairs(uint) external view returns (address pair);\n    function allPairsLength() external view returns (uint);\n\n    function createPair(address tokenA, address tokenB) external returns (address pair);\n\n    function setFeeTo(address) external;\n    function setFeeToSetter(address) external;\n}\n\n// File: contracts/interfaces/IWETH.sol\n\n\npragma solidity >=0.5.0;\n\ninterface IWETH {\n    function deposit() external payable;\n    function transfer(address to, uint value) external returns (bool);\n    function withdraw(uint) external;\n}\n\n// File: contracts/delegateContract.sol\n\npragma solidity 0.6.12;\n\n\n\n\n\ncontract delegateContract is Ownable{\n\tusing SafeMath for uint256;\n\tmapping(address => delegatorData) public delegatorStats;\n\taddress private multiTransfer;\n\taddress public bbusd = 0x0aB43550A6915F9f67d0c454C2E90385E6497EaA;\n\taddress public done = 0x2eFb50049C2dB2309934f1Cc48fE1163C5607b77;\n\taddress public weth = 0xcF664087a5bB0237a0BAd6742852ec6c8d69A27a;\n\n\tIUniswapV2Factory public immutable factory = IUniswapV2Factory(0x621B6047421FA65fA8E584fbAf0B77A5efeE6873);\n\n\tstruct delegatorData {\n\t   address delegatorAddr;\n\t   uint256 oneStaked;\n\t   uint256 oxratio;\n\t   uint256 earnedOne;\n\t   uint256 earnedDone;\n\t   uint256 earnedUsd;\n\t}\n\n\tmodifier onlyMultiTransfer{\n\t\trequire(msg.sender == multiTransfer, \"Non.\");\n\t\t _;\n\t}\n\n\tfunction setMultiTransfer(address _contract) public onlyOwner{\n\t\tmultiTransfer = _contract;\n\t}\n\n\tfunction setRatioPercentageDefione(uint256 _ratio) public {\n\t\trequire(_ratio >= 30, \"Minimum must be 30% DONE...\");\n\t\trequire(_ratio <= 100, \"Only up to 100%. Love, dev.\");\n\t\tdelegatorData storage del = delegatorStats[tx.origin];\n\n\t\tdel.oxratio = _ratio;\n\t}\n\tfunction getRatio(address _user) public view returns(uint256){\n\t\tdelegatorData storage del = delegatorStats[_user];\n\t\tif(del.oxratio == 0)\n\t\t{\n\t\t\treturn uint256(100);\n\t\t}\n\t\telse{\n\t\t\treturn del.oxratio;\n\t\t}\t\n\t}\n\n\n\tfunction logUser(address userAddr,uint256 stakedAmount,uint256 doneAmount,uint256 oneAmount) public onlyMultiTransfer {\n\t\tdelegatorData storage del = delegatorStats[userAddr];\n\t\tuint256 usdOne;\n\t\tif(oneAmount != 0){\n\t\t\tusdOne = valueUSD(weth, bbusd, oneAmount);\n\t\t}\n\t\n\t\tuint256 usdDONE = valueUSD(done, bbusd, doneAmount);\n\t\tdel.earnedUsd = del.earnedUsd + usdDONE + usdOne;\n\n\t\tdel.earnedOne += oneAmount;\n\t\tdel.earnedDone += doneAmount;\n\n\t\tif(del.delegatorAddr == address(0)){\n\t\t\tdel.delegatorAddr = userAddr;\n\t\t}\n\n\t\tif(stakedAmount != del.oneStaked){\n\t\t\tdel.oneStaked = stakedAmount;\n\t\t}\n\n\n\t}\n\tfunction valueUSD(address fromToken,address toToken,uint256 amountIn)public returns(uint256){\n\t\t // X1 - X5: OK\n\t\tuint256 amountOut;\n        IUniswapV2Pair pair = IUniswapV2Pair(factory.getPair(fromToken, toToken));\n   \n        (uint256 reserve0, uint256 reserve1,) = pair.getReserves();\n        uint256 amountInWithFee = amountIn.mul(997);\n\n        if (fromToken == pair.token0()) {\n         amountOut = amountIn.mul(997).mul(reserve1) / reserve0.mul(1000).add(amountInWithFee);\n         } else {\n         amountOut = amountIn.mul(997).mul(reserve0) / reserve1.mul(1000).add(amountInWithFee);\n         }\n      return amountOut;\n\t}\n}\n\n// File: contracts/MultiTransfer.sol\n\npragma solidity 0.6.12;\n\n\n\n\n\n\n\n\n\ncontract MultiTransfer is Ownable, ERC20(\"DVRDV3\", \"Defione VRD v3\") {\n   using SafeMath for uint256;\n\n   ERC20 public DefioneToken = ERC20(0x6658dBFf8b7Be5e2A777d7a270063E4347667866);\n   address public immutable WETH = 0xcF664087a5bB0237a0BAd6742852ec6c8d69A27a;\n   address private immutable weth = 0xcF664087a5bB0237a0BAd6742852ec6c8d69A27a;\n   delegateContract ratioContractInstance;\n   IUniswapV2Factory public immutable factory = IUniswapV2Factory(0x621B6047421FA65fA8E584fbAf0B77A5efeE6873);\n   address payable public feeTo = 0x3BCc151e980E822609c92902bf368302c1E7cFbC;\n   address public validator;\n\n\n\n\n   constructor(delegateContract _address, address _validator) public{\n      ratioContractInstance = _address;\n      validator = _validator;\n      owner = _validator;\n   }\n\n   function distribute(address payable[] memory addresses, uint256[] memory stakeWeights,uint256[] memory _stakedAmount) external payable onlyOwner{\n      _mint(address(this), msg.value);\n      IWETH(WETH).deposit{value: msg.value}();\n      _swap(weth,address(DefioneToken), msg.value, address(this));\n      uint256 validatorBal = DefioneToken.balanceOf(validator);\n      DefioneToken.transferFrom(validator, address(this), validatorBal);\n      uint256 balanceDONE = DefioneToken.balanceOf(address(this));\n\n      _distribute(addresses, stakeWeights, _stakedAmount, balanceDONE);\n      balanceDONE = DefioneToken.balanceOf(address(this));\n      DefioneToken.transfer(feeTo, balanceDONE);\n\n      uint256 woneBal = IERC20(WETH).balanceOf(address(this));\n      IWETH(WETH).withdraw(woneBal); \n\n      uint256 balanceOne = address(this).balance;\n      safeTransferETH(feeTo, balanceOne);\n   }\n\n   fallback() external payable {}\n\n   function _distribute(address payable[] memory addresses, uint256[] memory stakeWeights,uint256[] memory stakedAmount,uint256 _balanceDONE)internal {\n      uint256 len = addresses.length;\n\n      for(uint256 i=0; i < len; i++) {\n         address payable userAddr = addresses[i];\n         uint256 weight = stakeWeights[i];\n         uint256 balanceDONE = _balanceDONE;\n         uint256 userRatio = ratioContractInstance.getRatio(userAddr);\n         uint256 staked = stakedAmount[i];\n         uint256 userShare =  balanceDONE.mul(weight).div(10000000).div(100);\n         uint256 amountIn = userShare.mul(userRatio).div(100);\n         uint256 amountOut = _swap(address(DefioneToken),weth, amountIn, address(this));\n         uint256 amountOutOX = userShare.sub(amountIn);\n         DefioneToken.transfer(userAddr, amountOutOX);\n         if(userRatio != 100){\n            IWETH(WETH).withdraw(amountOut);\n            safeTransferETH(userAddr, amountOut);\n         }\n         ratioContractInstance.logUser(userAddr,staked,amountOutOX, amountOut);\n      }\n   }\n\n   function safeTransferETH(address to, uint value) internal {\n    (bool success,) = to.call{value:value}(new bytes(0));\n    require(success, 'TransferHelper: ETH_TRANSFER_FAILED');\n   }\n\n   function _swap(address fromToken, address toToken, uint256 amountIn, address to) internal returns (uint256 amountOut) {\n     // Checks\n     // X1 - X5: OK\n     IUniswapV2Pair pair = IUniswapV2Pair(factory.getPair(fromToken, toToken));\n     require(address(pair) != address(0), \"Cannot convert\");\n\n     // Interactions\n     // X1 - X5: OK\n     (uint256 reserve0, uint256 reserve1,) = pair.getReserves();\n     uint256 amountInWithFee = amountIn.mul(997);\n     if (fromToken == pair.token0()) {\n      amountOut = amountIn.mul(997).mul(reserve1) / reserve0.mul(1000).add(amountInWithFee);\n      IERC20(fromToken).transfer(address(pair), amountIn);\n      pair.swap(0, amountOut, to, new bytes(0));\n         // TODO: Add maximum slippage?\n      } else {\n         amountOut = amountIn.mul(997).mul(reserve0) / reserve1.mul(1000).add(amountInWithFee);\n         IERC20(fromToken).transfer(address(pair), amountIn);\n         pair.swap(amountOut, 0, to, new bytes(0));\n         // TODO: Add maximum slippage?\n      }\n   }\n}",
  "sourcePath": "/opt/defione/1/defione-core/contracts/delegateContract.sol",
  "compiler": {
    "name": "solc",
    "version": "0.6.12+commit.27d51765.Emscripten.clang"
  },
  "schemaVersion": "3.2.4",
  "updatedAt": "2022-01-17T08:16:26.588Z",
  "devdoc": {
    "kind": "dev",
    "methods": {
      "allowance(address,address)": {
        "details": "See {IERC20-allowance}."
      },
      "approve(address,uint256)": {
        "details": "See {IERC20-approve}. Requirements: - `spender` cannot be the zero address."
      },
      "balanceOf(address)": {
        "details": "See {IERC20-balanceOf}."
      },
      "decimals()": {
        "details": "Returns the number of decimals used to get its user representation. For example, if `decimals` equals `2`, a balance of `505` tokens should be displayed to a user as `5,05` (`505 / 10 ** 2`). Tokens usually opt for a value of 18, imitating the relationship between Ether and Wei. This is the value {ERC20} uses, unless {_setupDecimals} is called. NOTE: This information is only used for _display_ purposes: it in no way affects any of the arithmetic of the contract, including {IERC20-balanceOf} and {IERC20-transfer}."
      },
      "decreaseAllowance(address,uint256)": {
        "details": "Atomically decreases the allowance granted to `spender` by the caller. This is an alternative to {approve} that can be used as a mitigation for problems described in {IERC20-approve}. Emits an {Approval} event indicating the updated allowance. Requirements: - `spender` cannot be the zero address. - `spender` must have allowance for the caller of at least `subtractedValue`."
      },
      "increaseAllowance(address,uint256)": {
        "details": "Atomically increases the allowance granted to `spender` by the caller. This is an alternative to {approve} that can be used as a mitigation for problems described in {IERC20-approve}. Emits an {Approval} event indicating the updated allowance. Requirements: - `spender` cannot be the zero address."
      },
      "name()": {
        "details": "Returns the name of the token."
      },
      "symbol()": {
        "details": "Returns the symbol of the token, usually a shorter version of the name."
      },
      "totalSupply()": {
        "details": "See {IERC20-totalSupply}."
      },
      "transfer(address,uint256)": {
        "details": "See {IERC20-transfer}. Requirements: - `recipient` cannot be the zero address. - the caller must have a balance of at least `amount`."
      },
      "transferFrom(address,address,uint256)": {
        "details": "See {IERC20-transferFrom}. Emits an {Approval} event indicating the updated allowance. This is not required by the EIP. See the note at the beginning of {ERC20}. Requirements: - `sender` and `recipient` cannot be the zero address. - `sender` must have a balance of at least `amount`. - the caller must have allowance for ``sender``'s tokens of at least `amount`."
      }
    },
    "version": 1
  },
  "userdoc": {
    "kind": "user",
    "methods": {},
    "version": 1
  }
}