{
  "contractName": "OwnableData",
  "abi": [
    {
      "inputs": [],
      "name": "owner",
      "outputs": [
        {
          "internalType": "address",
          "name": "",
          "type": "address"
        }
      ],
      "stateMutability": "view",
      "type": "function"
    },
    {
      "inputs": [],
      "name": "pendingOwner",
      "outputs": [
        {
          "internalType": "address",
          "name": "",
          "type": "address"
        }
      ],
      "stateMutability": "view",
      "type": "function"
    }
  ],
  "bytecode": "0x6080604052348015600f57600080fd5b5060b38061001e6000396000f3fe6080604052348015600f57600080fd5b506004361060325760003560e01c80638da5cb5b146037578063e30c3978146059575b600080fd5b603d605f565b604080516001600160a01b039092168252519081900360200190f35b603d606e565b6000546001600160a01b031681565b6001546001600160a01b03168156fea26469706673582212209fdda1603d4660ba036897ea1fd4c2fd0b4b3c4da3a2e70baa4355ddf636509764736f6c634300060c0033",
  "immutableReferences": {},
  "source": "// SPDX-License-Identifier: MIT\r\n// Audit on 5-Jan-2021 by Keno and BoringCrypto\r\n\r\n// P1 - P3: OK\r\npragma solidity 0.6.12;\r\n\r\n// Source: https://github.com/OpenZeppelin/openzeppelin-contracts/blob/master/contracts/access/Ownable.sol + Claimable.sol\r\n// Edited by BoringCrypto\r\n\r\n// T1 - T4: OK\r\ncontract OwnableData {\r\n    // V1 - V5: OK\r\n    address public owner;\r\n    // V1 - V5: OK\r\n    address public pendingOwner;\r\n}\r\n\r\n// T1 - T4: OK\r\ncontract Ownable is OwnableData {\r\n    // E1: OK\r\n    event OwnershipTransferred(address indexed previousOwner, address indexed newOwner);\r\n\r\n    constructor () internal {\r\n        owner = msg.sender;\r\n        emit OwnershipTransferred(address(0), msg.sender);\r\n    }\r\n\r\n    // F1 - F9: OK\r\n    // C1 - C21: OK\r\n    function transferOwnership(address newOwner, bool direct, bool renounce) public onlyOwner {\r\n        if (direct) {\r\n            // Checks\r\n            require(newOwner != address(0) || renounce, \"Ownable: zero address\");\r\n\r\n            // Effects\r\n            emit OwnershipTransferred(owner, newOwner);\r\n            owner = newOwner;\r\n            pendingOwner = address(0);\r\n        } else {\r\n            // Effects\r\n            pendingOwner = newOwner;\r\n        }\r\n    }\r\n\r\n    // F1 - F9: OK\r\n    // C1 - C21: OK\r\n    function claimOwnership() public {\r\n        address _pendingOwner = pendingOwner;\r\n\r\n        // Checks\r\n        require(msg.sender == _pendingOwner, \"Ownable: caller != pending owner\");\r\n\r\n        // Effects\r\n        emit OwnershipTransferred(owner, _pendingOwner);\r\n        owner = _pendingOwner;\r\n        pendingOwner = address(0);\r\n    }\r\n\r\n    // M1 - M5: OK\r\n    // C1 - C21: OK\r\n    modifier onlyOwner() {\r\n        require(msg.sender == owner, \"Ownable: caller is not the owner\");\r\n        _;\r\n    }\r\n}\r\n",
  "sourcePath": "/opt/1defione/defione-core/contracts/Ownable.sol",
  "compiler": {
    "name": "solc",
    "version": "0.6.12+commit.27d51765.Emscripten.clang"
  },
  "schemaVersion": "3.2.4",
  "updatedAt": "2022-01-20T08:05:37.001Z",
  "devdoc": {
    "kind": "dev",
    "methods": {},
    "version": 1
  },
  "userdoc": {
    "kind": "user",
    "methods": {},
    "version": 1
  }
}