{
  "contractName": "UniswapV2Pair",
  "abi": [
    {
      "inputs": [],
      "stateMutability": "nonpayable",
      "type": "constructor"
    },
    {
      "anonymous": false,
      "inputs": [
        {
          "indexed": true,
          "internalType": "address",
          "name": "owner",
          "type": "address"
        },
        {
          "indexed": true,
          "internalType": "address",
          "name": "spender",
          "type": "address"
        },
        {
          "indexed": false,
          "internalType": "uint256",
          "name": "value",
          "type": "uint256"
        }
      ],
      "name": "Approval",
      "type": "event"
    },
    {
      "anonymous": false,
      "inputs": [
        {
          "indexed": true,
          "internalType": "address",
          "name": "sender",
          "type": "address"
        },
        {
          "indexed": false,
          "internalType": "uint256",
          "name": "amount0",
          "type": "uint256"
        },
        {
          "indexed": false,
          "internalType": "uint256",
          "name": "amount1",
          "type": "uint256"
        },
        {
          "indexed": true,
          "internalType": "address",
          "name": "to",
          "type": "address"
        }
      ],
      "name": "Burn",
      "type": "event"
    },
    {
      "anonymous": false,
      "inputs": [
        {
          "indexed": true,
          "internalType": "address",
          "name": "sender",
          "type": "address"
        },
        {
          "indexed": false,
          "internalType": "uint256",
          "name": "amount0",
          "type": "uint256"
        },
        {
          "indexed": false,
          "internalType": "uint256",
          "name": "amount1",
          "type": "uint256"
        }
      ],
      "name": "Mint",
      "type": "event"
    },
    {
      "anonymous": false,
      "inputs": [
        {
          "indexed": true,
          "internalType": "address",
          "name": "sender",
          "type": "address"
        },
        {
          "indexed": false,
          "internalType": "uint256",
          "name": "amount0In",
          "type": "uint256"
        },
        {
          "indexed": false,
          "internalType": "uint256",
          "name": "amount1In",
          "type": "uint256"
        },
        {
          "indexed": false,
          "internalType": "uint256",
          "name": "amount0Out",
          "type": "uint256"
        },
        {
          "indexed": false,
          "internalType": "uint256",
          "name": "amount1Out",
          "type": "uint256"
        },
        {
          "indexed": true,
          "internalType": "address",
          "name": "to",
          "type": "address"
        }
      ],
      "name": "Swap",
      "type": "event"
    },
    {
      "anonymous": false,
      "inputs": [
        {
          "indexed": false,
          "internalType": "uint112",
          "name": "reserve0",
          "type": "uint112"
        },
        {
          "indexed": false,
          "internalType": "uint112",
          "name": "reserve1",
          "type": "uint112"
        }
      ],
      "name": "Sync",
      "type": "event"
    },
    {
      "anonymous": false,
      "inputs": [
        {
          "indexed": true,
          "internalType": "address",
          "name": "from",
          "type": "address"
        },
        {
          "indexed": true,
          "internalType": "address",
          "name": "to",
          "type": "address"
        },
        {
          "indexed": false,
          "internalType": "uint256",
          "name": "value",
          "type": "uint256"
        }
      ],
      "name": "Transfer",
      "type": "event"
    },
    {
      "inputs": [],
      "name": "DOMAIN_SEPARATOR",
      "outputs": [
        {
          "internalType": "bytes32",
          "name": "",
          "type": "bytes32"
        }
      ],
      "stateMutability": "view",
      "type": "function",
      "constant": true
    },
    {
      "inputs": [],
      "name": "MINIMUM_LIQUIDITY",
      "outputs": [
        {
          "internalType": "uint256",
          "name": "",
          "type": "uint256"
        }
      ],
      "stateMutability": "view",
      "type": "function",
      "constant": true
    },
    {
      "inputs": [],
      "name": "PERMIT_TYPEHASH",
      "outputs": [
        {
          "internalType": "bytes32",
          "name": "",
          "type": "bytes32"
        }
      ],
      "stateMutability": "view",
      "type": "function",
      "constant": true
    },
    {
      "inputs": [
        {
          "internalType": "address",
          "name": "",
          "type": "address"
        },
        {
          "internalType": "address",
          "name": "",
          "type": "address"
        }
      ],
      "name": "allowance",
      "outputs": [
        {
          "internalType": "uint256",
          "name": "",
          "type": "uint256"
        }
      ],
      "stateMutability": "view",
      "type": "function",
      "constant": true
    },
    {
      "inputs": [
        {
          "internalType": "address",
          "name": "spender",
          "type": "address"
        },
        {
          "internalType": "uint256",
          "name": "value",
          "type": "uint256"
        }
      ],
      "name": "approve",
      "outputs": [
        {
          "internalType": "bool",
          "name": "",
          "type": "bool"
        }
      ],
      "stateMutability": "nonpayable",
      "type": "function"
    },
    {
      "inputs": [
        {
          "internalType": "address",
          "name": "",
          "type": "address"
        }
      ],
      "name": "balanceOf",
      "outputs": [
        {
          "internalType": "uint256",
          "name": "",
          "type": "uint256"
        }
      ],
      "stateMutability": "view",
      "type": "function",
      "constant": true
    },
    {
      "inputs": [],
      "name": "decimals",
      "outputs": [
        {
          "internalType": "uint8",
          "name": "",
          "type": "uint8"
        }
      ],
      "stateMutability": "view",
      "type": "function",
      "constant": true
    },
    {
      "inputs": [],
      "name": "factory",
      "outputs": [
        {
          "internalType": "address",
          "name": "",
          "type": "address"
        }
      ],
      "stateMutability": "view",
      "type": "function",
      "constant": true
    },
    {
      "inputs": [],
      "name": "kLast",
      "outputs": [
        {
          "internalType": "uint256",
          "name": "",
          "type": "uint256"
        }
      ],
      "stateMutability": "view",
      "type": "function",
      "constant": true
    },
    {
      "inputs": [],
      "name": "name",
      "outputs": [
        {
          "internalType": "string",
          "name": "",
          "type": "string"
        }
      ],
      "stateMutability": "view",
      "type": "function",
      "constant": true
    },
    {
      "inputs": [
        {
          "internalType": "address",
          "name": "",
          "type": "address"
        }
      ],
      "name": "nonces",
      "outputs": [
        {
          "internalType": "uint256",
          "name": "",
          "type": "uint256"
        }
      ],
      "stateMutability": "view",
      "type": "function",
      "constant": true
    },
    {
      "inputs": [
        {
          "internalType": "address",
          "name": "owner",
          "type": "address"
        },
        {
          "internalType": "address",
          "name": "spender",
          "type": "address"
        },
        {
          "internalType": "uint256",
          "name": "value",
          "type": "uint256"
        },
        {
          "internalType": "uint256",
          "name": "deadline",
          "type": "uint256"
        },
        {
          "internalType": "uint8",
          "name": "v",
          "type": "uint8"
        },
        {
          "internalType": "bytes32",
          "name": "r",
          "type": "bytes32"
        },
        {
          "internalType": "bytes32",
          "name": "s",
          "type": "bytes32"
        }
      ],
      "name": "permit",
      "outputs": [],
      "stateMutability": "nonpayable",
      "type": "function"
    },
    {
      "inputs": [],
      "name": "price0CumulativeLast",
      "outputs": [
        {
          "internalType": "uint256",
          "name": "",
          "type": "uint256"
        }
      ],
      "stateMutability": "view",
      "type": "function",
      "constant": true
    },
    {
      "inputs": [],
      "name": "price1CumulativeLast",
      "outputs": [
        {
          "internalType": "uint256",
          "name": "",
          "type": "uint256"
        }
      ],
      "stateMutability": "view",
      "type": "function",
      "constant": true
    },
    {
      "inputs": [],
      "name": "symbol",
      "outputs": [
        {
          "internalType": "string",
          "name": "",
          "type": "string"
        }
      ],
      "stateMutability": "view",
      "type": "function",
      "constant": true
    },
    {
      "inputs": [],
      "name": "token0",
      "outputs": [
        {
          "internalType": "address",
          "name": "",
          "type": "address"
        }
      ],
      "stateMutability": "view",
      "type": "function",
      "constant": true
    },
    {
      "inputs": [],
      "name": "token1",
      "outputs": [
        {
          "internalType": "address",
          "name": "",
          "type": "address"
        }
      ],
      "stateMutability": "view",
      "type": "function",
      "constant": true
    },
    {
      "inputs": [],
      "name": "totalSupply",
      "outputs": [
        {
          "internalType": "uint256",
          "name": "",
          "type": "uint256"
        }
      ],
      "stateMutability": "view",
      "type": "function",
      "constant": true
    },
    {
      "inputs": [
        {
          "internalType": "address",
          "name": "to",
          "type": "address"
        },
        {
          "internalType": "uint256",
          "name": "value",
          "type": "uint256"
        }
      ],
      "name": "transfer",
      "outputs": [
        {
          "internalType": "bool",
          "name": "",
          "type": "bool"
        }
      ],
      "stateMutability": "nonpayable",
      "type": "function"
    },
    {
      "inputs": [
        {
          "internalType": "address",
          "name": "from",
          "type": "address"
        },
        {
          "internalType": "address",
          "name": "to",
          "type": "address"
        },
        {
          "internalType": "uint256",
          "name": "value",
          "type": "uint256"
        }
      ],
      "name": "transferFrom",
      "outputs": [
        {
          "internalType": "bool",
          "name": "",
          "type": "bool"
        }
      ],
      "stateMutability": "nonpayable",
      "type": "function"
    },
    {
      "inputs": [],
      "name": "getReserves",
      "outputs": [
        {
          "internalType": "uint112",
          "name": "_reserve0",
          "type": "uint112"
        },
        {
          "internalType": "uint112",
          "name": "_reserve1",
          "type": "uint112"
        },
        {
          "internalType": "uint32",
          "name": "_blockTimestampLast",
          "type": "uint32"
        }
      ],
      "stateMutability": "view",
      "type": "function",
      "constant": true
    },
    {
      "inputs": [
        {
          "internalType": "address",
          "name": "_token0",
          "type": "address"
        },
        {
          "internalType": "address",
          "name": "_token1",
          "type": "address"
        }
      ],
      "name": "initialize",
      "outputs": [],
      "stateMutability": "nonpayable",
      "type": "function"
    },
    {
      "inputs": [
        {
          "internalType": "address",
          "name": "to",
          "type": "address"
        }
      ],
      "name": "mint",
      "outputs": [
        {
          "internalType": "uint256",
          "name": "liquidity",
          "type": "uint256"
        }
      ],
      "stateMutability": "nonpayable",
      "type": "function"
    },
    {
      "inputs": [
        {
          "internalType": "address",
          "name": "to",
          "type": "address"
        }
      ],
      "name": "burn",
      "outputs": [
        {
          "internalType": "uint256",
          "name": "amount0",
          "type": "uint256"
        },
        {
          "internalType": "uint256",
          "name": "amount1",
          "type": "uint256"
        }
      ],
      "stateMutability": "nonpayable",
      "type": "function"
    },
    {
      "inputs": [
        {
          "internalType": "uint256",
          "name": "amount0Out",
          "type": "uint256"
        },
        {
          "internalType": "uint256",
          "name": "amount1Out",
          "type": "uint256"
        },
        {
          "internalType": "address",
          "name": "to",
          "type": "address"
        },
        {
          "internalType": "bytes",
          "name": "data",
          "type": "bytes"
        }
      ],
      "name": "swap",
      "outputs": [],
      "stateMutability": "nonpayable",
      "type": "function"
    },
    {
      "inputs": [
        {
          "internalType": "address",
          "name": "to",
          "type": "address"
        }
      ],
      "name": "skim",
      "outputs": [],
      "stateMutability": "nonpayable",
      "type": "function"
    },
    {
      "inputs": [],
      "name": "sync",
      "outputs": [],
      "stateMutability": "nonpayable",
      "type": "function"
    }
  ],
  "bytecode": "0x60806040526001600d5534801561001557600080fd5b50604080518082018252601081526f2232b334b7b732902628102a37b5b2b760811b6020918201528151808301835260018152603160f81b9082015281517f8b73c3c69bb8fe3d512ecc4cf759cc79239f7b179b0ffacaa9a75d522b39400f818301527fb3c34a52d408e700ea80e723fb2a2f5b64a0b2abbfcc98700b7d4abdb0ae41f2818401527fc89efdaa54c0f20c7adf612882df0950f5a951637e0307cdcb4c672f298b8bc660608201524660808201523060a0808301919091528351808303909101815260c09091019092528151910120600355600580546001600160a01b031916331790556126518061010e6000396000f3fe608060405234801561001057600080fd5b50600436106101a95760003560e01c80636a627842116100f9578063ba9a7a5611610097578063d21220a711610071578063d21220a714610534578063d505accf1461053c578063dd62ed3e1461058d578063fff6cae9146105bb576101a9565b8063ba9a7a56146104fe578063bc25cf7714610506578063c45a01551461052c576101a9565b80637ecebe00116100d35780637ecebe001461046557806389afcb441461048b57806395d89b41146104ca578063a9059cbb146104d2576101a9565b80636a6278421461041157806370a08231146104375780637464fc3d1461045d576101a9565b806323b872dd116101665780633644e515116101405780633644e515146103cb578063485cc955146103d35780635909c0d5146104015780635a3d549314610409576101a9565b806323b872dd1461036f57806330adf81f146103a5578063313ce567146103ad576101a9565b8063022c0d9f146101ae57806306fdde031461023c5780630902f1ac146102b9578063095ea7b3146102f15780630dfe16811461033157806318160ddd14610355575b600080fd5b61023a600480360360808110156101c457600080fd5b8135916020810135916001600160a01b0360408301351691908101906080810160608201356401000000008111156101fb57600080fd5b82018360208201111561020d57600080fd5b8035906020019184600183028401116401000000008311171561022f57600080fd5b5090925090506105c3565b005b610244610ade565b6040805160208082528351818301528351919283929083019185019080838360005b8381101561027e578181015183820152602001610266565b50505050905090810190601f1680156102ab5780820380516001836020036101000a031916815260200191505b509250505060405180910390f35b6102c1610b0a565b604080516001600160701b03948516815292909316602083015263ffffffff168183015290519081900360600190f35b61031d6004803603604081101561030757600080fd5b506001600160a01b038135169060200135610b34565b604080519115158252519081900360200190f35b610339610b4b565b604080516001600160a01b039092168252519081900360200190f35b61035d610b5a565b60408051918252519081900360200190f35b61031d6004803603606081101561038557600080fd5b506001600160a01b03813581169160208101359091169060400135610b60565b61035d610bf4565b6103b5610c18565b6040805160ff9092168252519081900360200190f35b61035d610c1d565b61023a600480360360408110156103e957600080fd5b506001600160a01b0381358116916020013516610c23565b61035d610f46565b61035d610f4c565b61035d6004803603602081101561042757600080fd5b50356001600160a01b0316610f52565b61035d6004803603602081101561044d57600080fd5b50356001600160a01b031661122d565b61035d61123f565b61035d6004803603602081101561047b57600080fd5b50356001600160a01b0316611245565b6104b1600480360360208110156104a157600080fd5b50356001600160a01b0316611257565b6040805192835260208301919091528051918290030190f35b6102446115ea565b61031d600480360360408110156104e857600080fd5b506001600160a01b038135169060200135611678565b61035d611685565b61023a6004803603602081101561051c57600080fd5b50356001600160a01b031661168b565b6103396117fc565b61033961180b565b61023a600480360360e081101561055257600080fd5b506001600160a01b03813581169160208101359091169060408101359060608101359060ff6080820135169060a08101359060c0013561181a565b61035d600480360360408110156105a357600080fd5b506001600160a01b0381358116916020013516611a1a565b61023a611a37565b600d5460011461060d576040805162461bcd60e51b815260206004820152601060248201526f1119599a5bdb99558c881313d0d2d15160821b604482015290519081900360640190fd5b6000600d55841515806106205750600084115b61065b5760405162461bcd60e51b81526004018080602001828103825260248152602001806125876024913960400191505060405180910390fd5b600080610666610b0a565b5091509150816001600160701b03168710801561068b5750806001600160701b031686105b6106dc576040805162461bcd60e51b815260206004820181905260248201527f446566696f6e65563220494e53554646494349454e545f4c4951554944495459604482015290519081900360640190fd5b60065460075460009182916001600160a01b0391821691908116908916821480159061071a5750806001600160a01b0316896001600160a01b031614155b610762576040805162461bcd60e51b8152602060048201526014602482015273446566696f6e65563220494e56414c49445f544f60601b604482015290519081900360640190fd5b8a1561077357610773828a8d611b98565b891561078457610784818a8c611b98565b861561083657886001600160a01b03166310d1e85c338d8d8c8c6040518663ffffffff1660e01b815260040180866001600160a01b03168152602001858152602001848152602001806020018281038252848482818152602001925080828437600081840152601f19601f8201169050808301925050509650505050505050600060405180830381600087803b15801561081d57600080fd5b505af1158015610831573d6000803e3d6000fd5b505050505b604080516370a0823160e01b815230600482015290516001600160a01b038416916370a08231916024808301926020929190829003018186803b15801561087c57600080fd5b505afa158015610890573d6000803e3d6000fd5b505050506040513d60208110156108a657600080fd5b5051604080516370a0823160e01b815230600482015290519195506001600160a01b038316916370a0823191602480820192602092909190829003018186803b1580156108f257600080fd5b505afa158015610906573d6000803e3d6000fd5b505050506040513d602081101561091c57600080fd5b5051925060009150506001600160701b0385168a9003831161093f57600061094e565b89856001600160701b03160383035b9050600089856001600160701b031603831161096b57600061097a565b89856001600160701b03160383035b9050600082118061098b5750600081115b6109c65760405162461bcd60e51b81526004018080602001828103825260238152602001806125ab6023913960400191505060405180910390fd5b60006109e86109d6846003611d2b565b6109e2876103e8611d2b565b90611d8e565b905060006109fa6109d6846003611d2b565b9050610a1f620f4240610a196001600160701b038b8116908b16611d2b565b90611d2b565b610a298383611d2b565b1015610a6a576040805162461bcd60e51b815260206004820152600b60248201526a446566696f6e655632204b60a81b604482015290519081900360640190fd5b5050610a7884848888611dde565b60408051838152602081018390528082018d9052606081018c905290516001600160a01b038b169133917fd78ad95fa46c994b6551d0da85fc275fe613ce37657fb8d5e3d130840159d8229181900360800190a350506001600d55505050505050505050565b6040518060400160405280601081526020016f2232b334b7b732902628102a37b5b2b760811b81525081565b6009546001600160701b0380821692600160701b830490911691600160e01b900463ffffffff1690565b6000610b41338484611f9c565b5060015b92915050565b6006546001600160a01b031681565b60005481565b6001600160a01b038316600090815260026020908152604080832033845290915281205460001914610bdf576001600160a01b0384166000908152600260209081526040808320338452909152902054610bba9083611d8e565b6001600160a01b03851660009081526002602090815260408083203384529091529020555b610bea848484611ffe565b5060019392505050565b7f6e71edae12b1b97f4d1f60370fef10105fa2faae0126114a169c64845d6126c981565b601281565b60035481565b6005546001600160a01b03163314610c78576040805162461bcd60e51b81526020600482015260136024820152722232b334b7b732ab19102327a92124a22222a760691b604482015290519081900360640190fd5b600680546001600160a01b038085166001600160a01b0319928316179283905560078054858316931692909217909155604080516395d89b4160e01b81529051606093909216916395d89b4191600480820192600092909190829003018186803b158015610ce557600080fd5b505afa158015610cf9573d6000803e3d6000fd5b505050506040513d6000823e601f3d908101601f191682016040526020811015610d2257600080fd5b8101908080516040519392919084640100000000821115610d4257600080fd5b908301906020820185811115610d5757600080fd5b8251640100000000811182820188101715610d7157600080fd5b82525081516020918201929091019080838360005b83811015610d9e578181015183820152602001610d86565b50505050905090810190601f168015610dcb5780820380516001836020036101000a031916815260200191505b5060408181526007546395d89b4160e01b835290519596506060956001600160a01b0390911694506395d89b41935060048083019350600092829003018186803b158015610e1857600080fd5b505afa158015610e2c573d6000803e3d6000fd5b505050506040513d6000823e601f3d908101601f191682016040526020811015610e5557600080fd5b8101908080516040519392919084640100000000821115610e7557600080fd5b908301906020820185811115610e8a57600080fd5b8251640100000000811182820188101715610ea457600080fd5b82525081516020918201929091019080838360005b83811015610ed1578181015183820152602001610eb9565b50505050905090810190601f168015610efe5780820380516001836020036101000a031916815260200191505b506040525050509050610f2b82604051806040016040528060018152602001602d60f81b815250836120ac565b8051610f3f916008916020909101906124f3565b5050505050565b600a5481565b600b5481565b6000600d54600114610f9e576040805162461bcd60e51b815260206004820152601060248201526f1119599a5bdb99558c881313d0d2d15160821b604482015290519081900360640190fd5b6000600d81905580610fae610b0a565b50600654604080516370a0823160e01b815230600482015290519395509193506000926001600160a01b03909116916370a08231916024808301926020929190829003018186803b15801561100257600080fd5b505afa158015611016573d6000803e3d6000fd5b505050506040513d602081101561102c57600080fd5b5051600754604080516370a0823160e01b815230600482015290519293506000926001600160a01b03909216916370a0823191602480820192602092909190829003018186803b15801561107f57600080fd5b505afa158015611093573d6000803e3d6000fd5b505050506040513d60208110156110a957600080fd5b5051905060006110c2836001600160701b038716611d8e565b905060006110d9836001600160701b038716611d8e565b905060006110e787876121b2565b6000549091508061111e5761110a6103e86109e26111058787611d2b565b6122e7565b985061111960006103e8612339565b611161565b61115e6001600160701b0389166111358684611d2b565b8161113c57fe5b046001600160701b0389166111518685611d2b565b8161115857fe5b046123c3565b98505b600089116111a05760405162461bcd60e51b81526004018080602001828103825260278152602001806125f56027913960400191505060405180910390fd5b6111aa8a8a612339565b6111b686868a8a611dde565b81156111e0576009546111dc906001600160701b0380821691600160701b900416611d2b565b600c555b6040805185815260208101859052815133927f4c209b5fc8ad50758f13e2e1088ba56a560dff690a1c6fef26394f4c03821c4f928290030190a250506001600d5550949695505050505050565b60016020526000908152604090205481565b600c5481565b60046020526000908152604090205481565b600080600d546001146112a4576040805162461bcd60e51b815260206004820152601060248201526f1119599a5bdb99558c881313d0d2d15160821b604482015290519081900360640190fd5b6000600d819055806112b4610b0a565b50600654600754604080516370a0823160e01b815230600482015290519496509294506001600160a01b039182169391169160009184916370a08231916024808301926020929190829003018186803b15801561131057600080fd5b505afa158015611324573d6000803e3d6000fd5b505050506040513d602081101561133a57600080fd5b5051604080516370a0823160e01b815230600482015290519192506000916001600160a01b038516916370a08231916024808301926020929190829003018186803b15801561138857600080fd5b505afa15801561139c573d6000803e3d6000fd5b505050506040513d60208110156113b257600080fd5b5051306000908152600160205260408120549192506113d188886121b2565b600054909150806113e28487611d2b565b816113e957fe5b049a50806113f78486611d2b565b816113fe57fe5b04995060008b118015611411575060008a115b61144c5760405162461bcd60e51b81526004018080602001828103825260278152602001806125ce6027913960400191505060405180910390fd5b61145630846123db565b611461878d8d611b98565b61146c868d8c611b98565b604080516370a0823160e01b815230600482015290516001600160a01b038916916370a08231916024808301926020929190829003018186803b1580156114b257600080fd5b505afa1580156114c6573d6000803e3d6000fd5b505050506040513d60208110156114dc57600080fd5b5051604080516370a0823160e01b815230600482015290519196506001600160a01b038816916370a0823191602480820192602092909190829003018186803b15801561152857600080fd5b505afa15801561153c573d6000803e3d6000fd5b505050506040513d602081101561155257600080fd5b5051935061156285858b8b611dde565b811561158c57600954611588906001600160701b0380821691600160701b900416611d2b565b600c555b604080518c8152602081018c905281516001600160a01b038f169233927fdccd412f0b1252819cb1fd330b93224ca42612892bb3f4f789976e6d81936496929081900390910190a35050505050505050506001600d81905550915091565b6008805460408051602060026001851615610100026000190190941693909304601f810184900484028201840190925281815292918301828280156116705780601f1061164557610100808354040283529160200191611670565b820191906000526020600020905b81548152906001019060200180831161165357829003601f168201915b505050505081565b6000610b41338484611ffe565b6103e881565b600d546001146116d5576040805162461bcd60e51b815260206004820152601060248201526f1119599a5bdb99558c881313d0d2d15160821b604482015290519081900360640190fd5b6000600d55600654600754600954604080516370a0823160e01b815230600482015290516001600160a01b03948516949093169261177e9285928792611779926001600160701b03169185916370a0823191602480820192602092909190829003018186803b15801561174757600080fd5b505afa15801561175b573d6000803e3d6000fd5b505050506040513d602081101561177157600080fd5b505190611d8e565b611b98565b6117f281846117796009600e9054906101000a90046001600160701b03166001600160701b0316856001600160a01b03166370a08231306040518263ffffffff1660e01b815260040180826001600160a01b0316815260200191505060206040518083038186803b15801561174757600080fd5b50506001600d5550565b6005546001600160a01b031681565b6007546001600160a01b031681565b42841015611862576040805162461bcd60e51b815260206004820152601060248201526f1119599a5bdb994e881156141254915160821b604482015290519081900360640190fd5b6003546001600160a01b0380891660008181526004602090815260408083208054600180820190925582517f6e71edae12b1b97f4d1f60370fef10105fa2faae0126114a169c64845d6126c98186015280840196909652958d166060860152608085018c905260a085019590955260c08085018b90528151808603909101815260e08501825280519083012061190160f01b6101008601526101028501969096526101228085019690965280518085039096018652610142840180825286519683019690962095839052610162840180825286905260ff89166101828501526101a284018890526101c28401879052519193926101e280820193601f1981019281900390910190855afa15801561197d573d6000803e3d6000fd5b5050604051601f1901519150506001600160a01b038116158015906119b35750886001600160a01b0316816001600160a01b0316145b611a04576040805162461bcd60e51b815260206004820152601a60248201527f446566696f6e653a20494e56414c49445f5349474e4154555245000000000000604482015290519081900360640190fd5b611a0f898989611f9c565b505050505050505050565b600260209081526000928352604080842090915290825290205481565b600d54600114611a81576040805162461bcd60e51b815260206004820152601060248201526f1119599a5bdb99558c881313d0d2d15160821b604482015290519081900360640190fd5b6000600d55600654604080516370a0823160e01b81523060048201529051611b91926001600160a01b0316916370a08231916024808301926020929190829003018186803b158015611ad257600080fd5b505afa158015611ae6573d6000803e3d6000fd5b505050506040513d6020811015611afc57600080fd5b5051600754604080516370a0823160e01b815230600482015290516001600160a01b03909216916370a0823191602480820192602092909190829003018186803b158015611b4957600080fd5b505afa158015611b5d573d6000803e3d6000fd5b505050506040513d6020811015611b7357600080fd5b50516009546001600160701b0380821691600160701b900416611dde565b6001600d55565b604080518082018252601981527f7472616e7366657228616464726573732c75696e74323536290000000000000060209182015281516001600160a01b0385811660248301526044808301869052845180840390910181526064909201845291810180516001600160e01b031663a9059cbb60e01b1781529251815160009460609489169392918291908083835b60208310611c455780518252601f199092019160209182019101611c26565b6001836020036101000a0380198251168184511680821785525050505050509050019150506000604051808303816000865af19150503d8060008114611ca7576040519150601f19603f3d011682016040523d82523d6000602084013e611cac565b606091505b5091509150818015611cda575080511580611cda5750808060200190516020811015611cd757600080fd5b50515b610f3f576040805162461bcd60e51b815260206004820152601960248201527f446566696f6e655632205452414e534645525f4641494c454400000000000000604482015290519081900360640190fd5b6000811580611d4657505080820282828281611d4357fe5b04145b610b45576040805162461bcd60e51b815260206004820152601460248201527364732d6d6174682d6d756c2d6f766572666c6f7760601b604482015290519081900360640190fd5b80820382811115610b45576040805162461bcd60e51b815260206004820152601560248201527464732d6d6174682d7375622d756e646572666c6f7760581b604482015290519081900360640190fd5b6001600160701b038411801590611dfc57506001600160701b038311155b611e42576040805162461bcd60e51b8152602060048201526012602482015271446566696f6e655632204f564552464c4f5760701b604482015290519081900360640190fd5b60095463ffffffff42811691600160e01b90048116820390811615801590611e7257506001600160701b03841615155b8015611e8657506001600160701b03831615155b15611ef1578063ffffffff16611eae85611e9f8661246d565b6001600160e01b03169061247f565b600a80546001600160e01b03929092169290920201905563ffffffff8116611ed984611e9f8761246d565b600b80546001600160e01b0392909216929092020190555b600980546dffffffffffffffffffffffffffff19166001600160701b03888116919091176dffffffffffffffffffffffffffff60701b1916600160701b8883168102919091176001600160e01b0316600160e01b63ffffffff871602179283905560408051848416815291909304909116602082015281517f1c411e9a96e071241c2f21f7726b17ae89e3cab4c78be50e062b03a9fffbbad1929181900390910190a1505050505050565b6001600160a01b03808416600081815260026020908152604080832094871680845294825291829020859055815185815291517f8c5be1e5ebec7d5bd14f71427d1e84f3dd0314c0f7b2291e5b200ac8c7c3b9259281900390910190a3505050565b6001600160a01b0383166000908152600160205260409020546120219082611d8e565b6001600160a01b03808516600090815260016020526040808220939093559084168152205461205090826124a4565b6001600160a01b0380841660008181526001602090815260409182902094909455805185815290519193928716927fddf252ad1be2c89b69c2b068fc378daa952ba7f163c4a11628f55a4df523b3ef92918290030190a3505050565b60608383836040516020018084805190602001908083835b602083106120e35780518252601f1990920191602091820191016120c4565b51815160209384036101000a600019018019909216911617905286519190930192860191508083835b6020831061212b5780518252601f19909201916020918201910161210c565b51815160209384036101000a600019018019909216911617905285519190930192850191508083835b602083106121735780518252601f199092019160209182019101612154565b6001836020036101000a038019825116818451168082178552505050505050905001935050505060405160208183030381529060405290509392505050565b600080600560009054906101000a90046001600160a01b03166001600160a01b031663017e7e586040518163ffffffff1660e01b815260040160206040518083038186803b15801561220357600080fd5b505afa158015612217573d6000803e3d6000fd5b505050506040513d602081101561222d57600080fd5b5051600c546001600160a01b0382161580159450919250906122d35780156122ce57600061226a6111056001600160701b03888116908816611d2b565b90506000612277836122e7565b9050808211156122cb5760006122996122908484611d8e565b60005490611d2b565b905060006122a784846124a4565b905060008183816122b457fe5b04905080156122c7576122c78782612339565b5050505b50505b6122df565b80156122df576000600c555b505092915050565b6000600382111561232a575080600160028204015b818110156123245780915060028182858161231357fe5b04018161231c57fe5b0490506122fc565b50612334565b8115612334575060015b919050565b60005461234690826124a4565b60009081556001600160a01b03831681526001602052604090205461236b90826124a4565b6001600160a01b03831660008181526001602090815260408083209490945583518581529351929391927fddf252ad1be2c89b69c2b068fc378daa952ba7f163c4a11628f55a4df523b3ef9281900390910190a35050565b60008183106123d257816123d4565b825b9392505050565b6001600160a01b0382166000908152600160205260409020546123fe9082611d8e565b6001600160a01b038316600090815260016020526040812091909155546124259082611d8e565b60009081556040805183815290516001600160a01b038516917fddf252ad1be2c89b69c2b068fc378daa952ba7f163c4a11628f55a4df523b3ef919081900360200190a35050565b6001600160701b0316600160701b0290565b60006001600160701b0382166001600160e01b0384168161249c57fe5b049392505050565b80820182811015610b45576040805162461bcd60e51b815260206004820152601460248201527364732d6d6174682d6164642d6f766572666c6f7760601b604482015290519081900360640190fd5b828054600181600116156101000203166002900490600052602060002090601f016020900481019282601f1061253457805160ff1916838001178555612561565b82800160010185558215612561579182015b82811115612561578251825591602001919060010190612546565b5061256d929150612571565b5090565b5b8082111561256d576000815560010161257256fe446566696f6e65563220494e53554646494349454e545f4f55545055545f414d4f554e54446566696f6e65563220494e53554646494349454e545f494e5055545f414d4f554e54446566696f6e65563220494e53554646494349454e545f4c49515549444954595f4255524e4544446566696f6e65563220494e53554646494349454e545f4c49515549444954595f4d494e544544a2646970667358221220881b494de805267342bc8c7124e1c58c3931314f4dacfd8d7a4fbcafd35b156364736f6c634300060c0033",
  "immutableReferences": {},
  "source": "// SPDX-License-Identifier: MIT\r\n\r\npragma solidity =0.6.12;\r\n\r\nimport './UniswapV2ERC20.sol';\r\nimport './libraries/Math.sol';\r\nimport './libraries/UQ112x112.sol';\r\nimport './interfaces/IERC20.sol';\r\n\r\nimport './interfaces/IUniswapV2Factory.sol';\r\nimport './interfaces/IUniswapV2Callee.sol';\r\n\r\n\r\n\r\n\r\ncontract UniswapV2Pair is UniswapV2ERC20 {\r\n    using SafeMathUniswap  for uint;\r\n    using UQ112x112 for uint224;\r\n\r\n    uint public constant MINIMUM_LIQUIDITY = 10**3;\r\n    bytes4 private constant SELECTOR = bytes4(keccak256(bytes('transfer(address,uint256)')));\r\n\r\n    address public factory;\r\n    address public token0;\r\n    address public token1;\r\n    string public symbol;\r\n\r\n    uint112 private reserve0;           // uses single storage slot, accessible via getReserves\r\n    uint112 private reserve1;           // uses single storage slot, accessible via getReserves\r\n    uint32  private blockTimestampLast; // uses single storage slot, accessible via getReserves\r\n\r\n    uint public price0CumulativeLast;\r\n    uint public price1CumulativeLast;\r\n    uint public kLast; // reserve0 * reserve1, as of immediately after the most recent liquidity event\r\n\r\n    uint private unlocked = 1;\r\n    modifier lock() {\r\n        require(unlocked == 1, 'DefioneV2 LOCKED');\r\n        unlocked = 0;\r\n        _;\r\n        unlocked = 1;\r\n    }\r\n\r\n    function getReserves() public view returns (uint112 _reserve0, uint112 _reserve1, uint32 _blockTimestampLast) {\r\n        _reserve0 = reserve0;\r\n        _reserve1 = reserve1;\r\n        _blockTimestampLast = blockTimestampLast;\r\n    }\r\n\r\n    function _safeTransfer(address token, address to, uint value) private {\r\n        (bool success, bytes memory data) = token.call(abi.encodeWithSelector(SELECTOR, to, value));\r\n        require(success && (data.length == 0 || abi.decode(data, (bool))), 'DefioneV2 TRANSFER_FAILED');\r\n    }\r\n\r\n    event Mint(address indexed sender, uint amount0, uint amount1);\r\n    event Burn(address indexed sender, uint amount0, uint amount1, address indexed to);\r\n    event Swap(\r\n        address indexed sender,\r\n        uint amount0In,\r\n        uint amount1In,\r\n        uint amount0Out,\r\n        uint amount1Out,\r\n        address indexed to\r\n    );\r\n    event Sync(uint112 reserve0, uint112 reserve1);\r\n\r\n    constructor() public {\r\n        factory = msg.sender;\r\n    }\r\n\r\n    // called once by the factory at time of deployment\r\n    function initialize(address _token0, address _token1) external {\r\n        require(msg.sender == factory, 'DefioneV2 FORBIDDEN'); // sufficient check\r\n        token0 = _token0;\r\n        token1 = _token1;\r\n        string memory name0 = IERC20Uniswap(token0).symbol();\r\n        string memory name1 = IERC20Uniswap(token1).symbol();\r\n        symbol = concat(name0, \"-\", name1);\r\n    }\r\n\r\n    function concat(string memory a, string memory b, string memory c) internal pure returns (string memory) {\r\n        return string(abi.encodePacked(a, b, c));\r\n    }\r\n\r\n    // update reserves and, on the first call per block, price accumulators\r\n    function _update(uint balance0, uint balance1, uint112 _reserve0, uint112 _reserve1) private {\r\n        require(balance0 <= uint112(-1) && balance1 <= uint112(-1), 'DefioneV2 OVERFLOW');\r\n        uint32 blockTimestamp = uint32(block.timestamp % 2**32);\r\n        uint32 timeElapsed = blockTimestamp - blockTimestampLast; // overflow is desired\r\n        if (timeElapsed > 0 && _reserve0 != 0 && _reserve1 != 0) {\r\n            // * never overflows, and + overflow is desired\r\n            price0CumulativeLast += uint(UQ112x112.encode(_reserve1).uqdiv(_reserve0)) * timeElapsed;\r\n            price1CumulativeLast += uint(UQ112x112.encode(_reserve0).uqdiv(_reserve1)) * timeElapsed;\r\n        }\r\n        reserve0 = uint112(balance0);\r\n        reserve1 = uint112(balance1);\r\n        blockTimestampLast = blockTimestamp;\r\n        emit Sync(reserve0, reserve1);\r\n    }\r\n\r\n    // if fee is on, mint liquidity equivalent to 1/6th of the growth in sqrt(k)\r\n    function _mintFee(uint112 _reserve0, uint112 _reserve1) private returns (bool feeOn) {\r\n        address feeTo = IUniswapV2Factory(factory).feeTo();\r\n        feeOn = feeTo != address(0);\r\n        uint _kLast = kLast; // gas savings\r\n        if (feeOn) {\r\n            if (_kLast != 0) {\r\n                uint rootK = Math.sqrt(uint(_reserve0).mul(_reserve1));\r\n                uint rootKLast = Math.sqrt(_kLast);\r\n                if (rootK > rootKLast) {\r\n                    uint numerator = totalSupply.mul(rootK.sub(rootKLast));\r\n                    uint denominator = rootK.add(rootKLast); // 1/2 of fee\r\n                    uint liquidity = numerator / denominator;\r\n                    if (liquidity > 0) _mint(feeTo, liquidity);\r\n                }\r\n            }\r\n        } else if (_kLast != 0) {\r\n            kLast = 0;\r\n        }\r\n    }\r\n\r\n    // this low-level function should be called from a contract which performs important safety checks\r\n    function mint(address to) external lock returns (uint liquidity) {\r\n        (uint112 _reserve0, uint112 _reserve1,) = getReserves(); // gas savings\r\n        uint balance0 = IERC20Uniswap(token0).balanceOf(address(this));\r\n        uint balance1 = IERC20Uniswap(token1).balanceOf(address(this));\r\n        uint amount0 = balance0.sub(_reserve0);\r\n        uint amount1 = balance1.sub(_reserve1);\r\n\r\n        bool feeOn = _mintFee(_reserve0, _reserve1);\r\n        uint _totalSupply = totalSupply; // gas savings, must be defined here since totalSupply can update in _mintFee\r\n        if (_totalSupply == 0) {\r\n            liquidity = Math.sqrt(amount0.mul(amount1)).sub(MINIMUM_LIQUIDITY);\r\n            _mint(address(0), MINIMUM_LIQUIDITY); // permanently lock the first MINIMUM_LIQUIDITY tokens \r\n        } else {\r\n            liquidity = Math.min(amount0.mul(_totalSupply) / _reserve0, amount1.mul(_totalSupply) / _reserve1);\r\n        }\r\n        require(liquidity > 0, 'DefioneV2 INSUFFICIENT_LIQUIDITY_MINTED');\r\n        _mint(to, liquidity);\r\n\r\n        _update(balance0, balance1, _reserve0, _reserve1);\r\n        if (feeOn) kLast = uint(reserve0).mul(reserve1); // reserve0 and reserve1 are up-to-date\r\n        emit Mint(msg.sender, amount0, amount1);\r\n    }\r\n\r\n    // this low-level function should be called from a contract which performs important safety checks\r\n    function burn(address to) external lock returns (uint amount0, uint amount1) {\r\n        (uint112 _reserve0, uint112 _reserve1,) = getReserves(); // gas savings\r\n        address _token0 = token0;                                // gas savings\r\n        address _token1 = token1;                                // gas savings\r\n        uint balance0 = IERC20Uniswap(_token0).balanceOf(address(this));\r\n        uint balance1 = IERC20Uniswap(_token1).balanceOf(address(this));\r\n        uint liquidity = balanceOf[address(this)];\r\n\r\n        bool feeOn = _mintFee(_reserve0, _reserve1);\r\n        uint _totalSupply = totalSupply; // gas savings, must be defined here since totalSupply can update in _mintFee\r\n        amount0 = liquidity.mul(balance0) / _totalSupply; // using balances ensures pro-rata distribution\r\n        amount1 = liquidity.mul(balance1) / _totalSupply; // using balances ensures pro-rata distribution\r\n        require(amount0 > 0 && amount1 > 0, 'DefioneV2 INSUFFICIENT_LIQUIDITY_BURNED');\r\n        _burn(address(this), liquidity);\r\n        _safeTransfer(_token0, to, amount0);\r\n        _safeTransfer(_token1, to, amount1);\r\n        balance0 = IERC20Uniswap(_token0).balanceOf(address(this));\r\n        balance1 = IERC20Uniswap(_token1).balanceOf(address(this));\r\n\r\n        _update(balance0, balance1, _reserve0, _reserve1);\r\n        if (feeOn) kLast = uint(reserve0).mul(reserve1); // reserve0 and reserve1 are up-to-date\r\n        emit Burn(msg.sender, amount0, amount1, to);\r\n    }\r\n\r\n    // this low-level function should be called from a contract which performs important safety checks\r\n    function swap(uint amount0Out, uint amount1Out, address to, bytes calldata data) external lock {\r\n        require(amount0Out > 0 || amount1Out > 0, 'DefioneV2 INSUFFICIENT_OUTPUT_AMOUNT');\r\n        (uint112 _reserve0, uint112 _reserve1,) = getReserves(); // gas savings\r\n        require(amount0Out < _reserve0 && amount1Out < _reserve1, 'DefioneV2 INSUFFICIENT_LIQUIDITY');\r\n\r\n        uint balance0;\r\n        uint balance1;\r\n        { // scope for _token{0,1}, avoids stack too deep errors\r\n        address _token0 = token0;\r\n        address _token1 = token1;\r\n        require(to != _token0 && to != _token1, 'DefioneV2 INVALID_TO');\r\n        if (amount0Out > 0) _safeTransfer(_token0, to, amount0Out); // optimistically transfer tokens\r\n        if (amount1Out > 0) _safeTransfer(_token1, to, amount1Out); // optimistically transfer tokens\r\n        if (data.length > 0) IUniswapV2Callee(to).uniswapV2Call(msg.sender, amount0Out, amount1Out, data);\r\n        balance0 = IERC20Uniswap(_token0).balanceOf(address(this));\r\n        balance1 = IERC20Uniswap(_token1).balanceOf(address(this));\r\n        }\r\n        uint amount0In = balance0 > _reserve0 - amount0Out ? balance0 - (_reserve0 - amount0Out) : 0;\r\n        uint amount1In = balance1 > _reserve1 - amount1Out ? balance1 - (_reserve1 - amount1Out) : 0;\r\n        require(amount0In > 0 || amount1In > 0, 'DefioneV2 INSUFFICIENT_INPUT_AMOUNT');\r\n        { // scope for reserve{0,1}Adjusted, avoids stack too deep errors\r\n        uint balance0Adjusted = balance0.mul(1000).sub(amount0In.mul(3));\r\n        uint balance1Adjusted = balance1.mul(1000).sub(amount1In.mul(3));\r\n        require(balance0Adjusted.mul(balance1Adjusted) >= uint(_reserve0).mul(_reserve1).mul(1000**2), 'DefioneV2 K');\r\n        }\r\n\r\n        _update(balance0, balance1, _reserve0, _reserve1);\r\n        emit Swap(msg.sender, amount0In, amount1In, amount0Out, amount1Out, to);\r\n    }\r\n\r\n    // force balances to match reserves\r\n    function skim(address to) external lock {\r\n        address _token0 = token0; // gas savings\r\n        address _token1 = token1; // gas savings\r\n        _safeTransfer(_token0, to, IERC20Uniswap(_token0).balanceOf(address(this)).sub(reserve0));\r\n        _safeTransfer(_token1, to, IERC20Uniswap(_token1).balanceOf(address(this)).sub(reserve1));\r\n    }\r\n\r\n    // force reserves to match balances\r\n    function sync() external lock {\r\n        _update(IERC20Uniswap(token0).balanceOf(address(this)), IERC20Uniswap(token1).balanceOf(address(this)), reserve0, reserve1);\r\n    }\r\n}\r\n",
  "sourcePath": "/opt/defione/defione-core/contracts/uniswapv2/UniswapV2Pair.sol",
  "compiler": {
    "name": "solc",
    "version": "0.6.12+commit.27d51765.Emscripten.clang"
  },
  "schemaVersion": "3.2.4",
  "updatedAt": "2022-01-17T07:37:00.443Z",
  "networkType": "ethereum",
  "devdoc": {
    "kind": "dev",
    "methods": {},
    "version": 1
  },
  "userdoc": {
    "kind": "user",
    "methods": {},
    "version": 1
  }
}