{
  "contractName": "UniswapV2Router02",
  "abi": [
    {
      "inputs": [
        {
          "internalType": "address",
          "name": "_factory",
          "type": "address"
        },
        {
          "internalType": "address",
          "name": "_WETH",
          "type": "address"
        }
      ],
      "stateMutability": "nonpayable",
      "type": "constructor"
    },
    {
      "inputs": [],
      "name": "WETH",
      "outputs": [
        {
          "internalType": "address",
          "name": "",
          "type": "address"
        }
      ],
      "stateMutability": "view",
      "type": "function",
      "constant": true
    },
    {
      "inputs": [],
      "name": "factory",
      "outputs": [
        {
          "internalType": "address",
          "name": "",
          "type": "address"
        }
      ],
      "stateMutability": "view",
      "type": "function",
      "constant": true
    },
    {
      "stateMutability": "payable",
      "type": "receive",
      "payable": true
    },
    {
      "inputs": [
        {
          "internalType": "address",
          "name": "tokenA",
          "type": "address"
        },
        {
          "internalType": "address",
          "name": "tokenB",
          "type": "address"
        },
        {
          "internalType": "uint256",
          "name": "amountADesired",
          "type": "uint256"
        },
        {
          "internalType": "uint256",
          "name": "amountBDesired",
          "type": "uint256"
        },
        {
          "internalType": "uint256",
          "name": "amountAMin",
          "type": "uint256"
        },
        {
          "internalType": "uint256",
          "name": "amountBMin",
          "type": "uint256"
        },
        {
          "internalType": "address",
          "name": "to",
          "type": "address"
        },
        {
          "internalType": "uint256",
          "name": "deadline",
          "type": "uint256"
        }
      ],
      "name": "addLiquidity",
      "outputs": [
        {
          "internalType": "uint256",
          "name": "amountA",
          "type": "uint256"
        },
        {
          "internalType": "uint256",
          "name": "amountB",
          "type": "uint256"
        },
        {
          "internalType": "uint256",
          "name": "liquidity",
          "type": "uint256"
        }
      ],
      "stateMutability": "nonpayable",
      "type": "function"
    },
    {
      "inputs": [
        {
          "internalType": "address",
          "name": "token",
          "type": "address"
        },
        {
          "internalType": "uint256",
          "name": "amountTokenDesired",
          "type": "uint256"
        },
        {
          "internalType": "uint256",
          "name": "amountTokenMin",
          "type": "uint256"
        },
        {
          "internalType": "uint256",
          "name": "amountETHMin",
          "type": "uint256"
        },
        {
          "internalType": "address",
          "name": "to",
          "type": "address"
        },
        {
          "internalType": "uint256",
          "name": "deadline",
          "type": "uint256"
        }
      ],
      "name": "addLiquidityETH",
      "outputs": [
        {
          "internalType": "uint256",
          "name": "amountToken",
          "type": "uint256"
        },
        {
          "internalType": "uint256",
          "name": "amountETH",
          "type": "uint256"
        },
        {
          "internalType": "uint256",
          "name": "liquidity",
          "type": "uint256"
        }
      ],
      "stateMutability": "payable",
      "type": "function",
      "payable": true
    },
    {
      "inputs": [
        {
          "internalType": "address",
          "name": "tokenA",
          "type": "address"
        },
        {
          "internalType": "address",
          "name": "tokenB",
          "type": "address"
        },
        {
          "internalType": "uint256",
          "name": "liquidity",
          "type": "uint256"
        },
        {
          "internalType": "uint256",
          "name": "amountAMin",
          "type": "uint256"
        },
        {
          "internalType": "uint256",
          "name": "amountBMin",
          "type": "uint256"
        },
        {
          "internalType": "address",
          "name": "to",
          "type": "address"
        },
        {
          "internalType": "uint256",
          "name": "deadline",
          "type": "uint256"
        }
      ],
      "name": "removeLiquidity",
      "outputs": [
        {
          "internalType": "uint256",
          "name": "amountA",
          "type": "uint256"
        },
        {
          "internalType": "uint256",
          "name": "amountB",
          "type": "uint256"
        }
      ],
      "stateMutability": "nonpayable",
      "type": "function"
    },
    {
      "inputs": [
        {
          "internalType": "address",
          "name": "token",
          "type": "address"
        },
        {
          "internalType": "uint256",
          "name": "liquidity",
          "type": "uint256"
        },
        {
          "internalType": "uint256",
          "name": "amountTokenMin",
          "type": "uint256"
        },
        {
          "internalType": "uint256",
          "name": "amountETHMin",
          "type": "uint256"
        },
        {
          "internalType": "address",
          "name": "to",
          "type": "address"
        },
        {
          "internalType": "uint256",
          "name": "deadline",
          "type": "uint256"
        }
      ],
      "name": "removeLiquidityETH",
      "outputs": [
        {
          "internalType": "uint256",
          "name": "amountToken",
          "type": "uint256"
        },
        {
          "internalType": "uint256",
          "name": "amountETH",
          "type": "uint256"
        }
      ],
      "stateMutability": "nonpayable",
      "type": "function"
    },
    {
      "inputs": [
        {
          "internalType": "address",
          "name": "tokenA",
          "type": "address"
        },
        {
          "internalType": "address",
          "name": "tokenB",
          "type": "address"
        },
        {
          "internalType": "uint256",
          "name": "liquidity",
          "type": "uint256"
        },
        {
          "internalType": "uint256",
          "name": "amountAMin",
          "type": "uint256"
        },
        {
          "internalType": "uint256",
          "name": "amountBMin",
          "type": "uint256"
        },
        {
          "internalType": "address",
          "name": "to",
          "type": "address"
        },
        {
          "internalType": "uint256",
          "name": "deadline",
          "type": "uint256"
        },
        {
          "internalType": "bool",
          "name": "approveMax",
          "type": "bool"
        },
        {
          "internalType": "uint8",
          "name": "v",
          "type": "uint8"
        },
        {
          "internalType": "bytes32",
          "name": "r",
          "type": "bytes32"
        },
        {
          "internalType": "bytes32",
          "name": "s",
          "type": "bytes32"
        }
      ],
      "name": "removeLiquidityWithPermit",
      "outputs": [
        {
          "internalType": "uint256",
          "name": "amountA",
          "type": "uint256"
        },
        {
          "internalType": "uint256",
          "name": "amountB",
          "type": "uint256"
        }
      ],
      "stateMutability": "nonpayable",
      "type": "function"
    },
    {
      "inputs": [
        {
          "internalType": "address",
          "name": "token",
          "type": "address"
        },
        {
          "internalType": "uint256",
          "name": "liquidity",
          "type": "uint256"
        },
        {
          "internalType": "uint256",
          "name": "amountTokenMin",
          "type": "uint256"
        },
        {
          "internalType": "uint256",
          "name": "amountETHMin",
          "type": "uint256"
        },
        {
          "internalType": "address",
          "name": "to",
          "type": "address"
        },
        {
          "internalType": "uint256",
          "name": "deadline",
          "type": "uint256"
        },
        {
          "internalType": "bool",
          "name": "approveMax",
          "type": "bool"
        },
        {
          "internalType": "uint8",
          "name": "v",
          "type": "uint8"
        },
        {
          "internalType": "bytes32",
          "name": "r",
          "type": "bytes32"
        },
        {
          "internalType": "bytes32",
          "name": "s",
          "type": "bytes32"
        }
      ],
      "name": "removeLiquidityETHWithPermit",
      "outputs": [
        {
          "internalType": "uint256",
          "name": "amountToken",
          "type": "uint256"
        },
        {
          "internalType": "uint256",
          "name": "amountETH",
          "type": "uint256"
        }
      ],
      "stateMutability": "nonpayable",
      "type": "function"
    },
    {
      "inputs": [
        {
          "internalType": "address",
          "name": "token",
          "type": "address"
        },
        {
          "internalType": "uint256",
          "name": "liquidity",
          "type": "uint256"
        },
        {
          "internalType": "uint256",
          "name": "amountTokenMin",
          "type": "uint256"
        },
        {
          "internalType": "uint256",
          "name": "amountETHMin",
          "type": "uint256"
        },
        {
          "internalType": "address",
          "name": "to",
          "type": "address"
        },
        {
          "internalType": "uint256",
          "name": "deadline",
          "type": "uint256"
        }
      ],
      "name": "removeLiquidityETHSupportingFeeOnTransferTokens",
      "outputs": [
        {
          "internalType": "uint256",
          "name": "amountETH",
          "type": "uint256"
        }
      ],
      "stateMutability": "nonpayable",
      "type": "function"
    },
    {
      "inputs": [
        {
          "internalType": "address",
          "name": "token",
          "type": "address"
        },
        {
          "internalType": "uint256",
          "name": "liquidity",
          "type": "uint256"
        },
        {
          "internalType": "uint256",
          "name": "amountTokenMin",
          "type": "uint256"
        },
        {
          "internalType": "uint256",
          "name": "amountETHMin",
          "type": "uint256"
        },
        {
          "internalType": "address",
          "name": "to",
          "type": "address"
        },
        {
          "internalType": "uint256",
          "name": "deadline",
          "type": "uint256"
        },
        {
          "internalType": "bool",
          "name": "approveMax",
          "type": "bool"
        },
        {
          "internalType": "uint8",
          "name": "v",
          "type": "uint8"
        },
        {
          "internalType": "bytes32",
          "name": "r",
          "type": "bytes32"
        },
        {
          "internalType": "bytes32",
          "name": "s",
          "type": "bytes32"
        }
      ],
      "name": "removeLiquidityETHWithPermitSupportingFeeOnTransferTokens",
      "outputs": [
        {
          "internalType": "uint256",
          "name": "amountETH",
          "type": "uint256"
        }
      ],
      "stateMutability": "nonpayable",
      "type": "function"
    },
    {
      "inputs": [
        {
          "internalType": "uint256",
          "name": "amountIn",
          "type": "uint256"
        },
        {
          "internalType": "uint256",
          "name": "amountOutMin",
          "type": "uint256"
        },
        {
          "internalType": "address[]",
          "name": "path",
          "type": "address[]"
        },
        {
          "internalType": "address",
          "name": "to",
          "type": "address"
        },
        {
          "internalType": "uint256",
          "name": "deadline",
          "type": "uint256"
        }
      ],
      "name": "swapExactTokensForTokens",
      "outputs": [
        {
          "internalType": "uint256[]",
          "name": "amounts",
          "type": "uint256[]"
        }
      ],
      "stateMutability": "nonpayable",
      "type": "function"
    },
    {
      "inputs": [
        {
          "internalType": "uint256",
          "name": "amountOut",
          "type": "uint256"
        },
        {
          "internalType": "uint256",
          "name": "amountInMax",
          "type": "uint256"
        },
        {
          "internalType": "address[]",
          "name": "path",
          "type": "address[]"
        },
        {
          "internalType": "address",
          "name": "to",
          "type": "address"
        },
        {
          "internalType": "uint256",
          "name": "deadline",
          "type": "uint256"
        }
      ],
      "name": "swapTokensForExactTokens",
      "outputs": [
        {
          "internalType": "uint256[]",
          "name": "amounts",
          "type": "uint256[]"
        }
      ],
      "stateMutability": "nonpayable",
      "type": "function"
    },
    {
      "inputs": [
        {
          "internalType": "uint256",
          "name": "amountOutMin",
          "type": "uint256"
        },
        {
          "internalType": "address[]",
          "name": "path",
          "type": "address[]"
        },
        {
          "internalType": "address",
          "name": "to",
          "type": "address"
        },
        {
          "internalType": "uint256",
          "name": "deadline",
          "type": "uint256"
        }
      ],
      "name": "swapExactETHForTokens",
      "outputs": [
        {
          "internalType": "uint256[]",
          "name": "amounts",
          "type": "uint256[]"
        }
      ],
      "stateMutability": "payable",
      "type": "function",
      "payable": true
    },
    {
      "inputs": [
        {
          "internalType": "uint256",
          "name": "amountOut",
          "type": "uint256"
        },
        {
          "internalType": "uint256",
          "name": "amountInMax",
          "type": "uint256"
        },
        {
          "internalType": "address[]",
          "name": "path",
          "type": "address[]"
        },
        {
          "internalType": "address",
          "name": "to",
          "type": "address"
        },
        {
          "internalType": "uint256",
          "name": "deadline",
          "type": "uint256"
        }
      ],
      "name": "swapTokensForExactETH",
      "outputs": [
        {
          "internalType": "uint256[]",
          "name": "amounts",
          "type": "uint256[]"
        }
      ],
      "stateMutability": "nonpayable",
      "type": "function"
    },
    {
      "inputs": [
        {
          "internalType": "uint256",
          "name": "amountIn",
          "type": "uint256"
        },
        {
          "internalType": "uint256",
          "name": "amountOutMin",
          "type": "uint256"
        },
        {
          "internalType": "address[]",
          "name": "path",
          "type": "address[]"
        },
        {
          "internalType": "address",
          "name": "to",
          "type": "address"
        },
        {
          "internalType": "uint256",
          "name": "deadline",
          "type": "uint256"
        }
      ],
      "name": "swapExactTokensForETH",
      "outputs": [
        {
          "internalType": "uint256[]",
          "name": "amounts",
          "type": "uint256[]"
        }
      ],
      "stateMutability": "nonpayable",
      "type": "function"
    },
    {
      "inputs": [
        {
          "internalType": "uint256",
          "name": "amountOut",
          "type": "uint256"
        },
        {
          "internalType": "address[]",
          "name": "path",
          "type": "address[]"
        },
        {
          "internalType": "address",
          "name": "to",
          "type": "address"
        },
        {
          "internalType": "uint256",
          "name": "deadline",
          "type": "uint256"
        }
      ],
      "name": "swapETHForExactTokens",
      "outputs": [
        {
          "internalType": "uint256[]",
          "name": "amounts",
          "type": "uint256[]"
        }
      ],
      "stateMutability": "payable",
      "type": "function",
      "payable": true
    },
    {
      "inputs": [
        {
          "internalType": "uint256",
          "name": "amountIn",
          "type": "uint256"
        },
        {
          "internalType": "uint256",
          "name": "amountOutMin",
          "type": "uint256"
        },
        {
          "internalType": "address[]",
          "name": "path",
          "type": "address[]"
        },
        {
          "internalType": "address",
          "name": "to",
          "type": "address"
        },
        {
          "internalType": "uint256",
          "name": "deadline",
          "type": "uint256"
        }
      ],
      "name": "swapExactTokensForTokensSupportingFeeOnTransferTokens",
      "outputs": [],
      "stateMutability": "nonpayable",
      "type": "function"
    },
    {
      "inputs": [
        {
          "internalType": "uint256",
          "name": "amountOutMin",
          "type": "uint256"
        },
        {
          "internalType": "address[]",
          "name": "path",
          "type": "address[]"
        },
        {
          "internalType": "address",
          "name": "to",
          "type": "address"
        },
        {
          "internalType": "uint256",
          "name": "deadline",
          "type": "uint256"
        }
      ],
      "name": "swapExactETHForTokensSupportingFeeOnTransferTokens",
      "outputs": [],
      "stateMutability": "payable",
      "type": "function",
      "payable": true
    },
    {
      "inputs": [
        {
          "internalType": "uint256",
          "name": "amountIn",
          "type": "uint256"
        },
        {
          "internalType": "uint256",
          "name": "amountOutMin",
          "type": "uint256"
        },
        {
          "internalType": "address[]",
          "name": "path",
          "type": "address[]"
        },
        {
          "internalType": "address",
          "name": "to",
          "type": "address"
        },
        {
          "internalType": "uint256",
          "name": "deadline",
          "type": "uint256"
        }
      ],
      "name": "swapExactTokensForETHSupportingFeeOnTransferTokens",
      "outputs": [],
      "stateMutability": "nonpayable",
      "type": "function"
    },
    {
      "inputs": [
        {
          "internalType": "uint256",
          "name": "amountA",
          "type": "uint256"
        },
        {
          "internalType": "uint256",
          "name": "reserveA",
          "type": "uint256"
        },
        {
          "internalType": "uint256",
          "name": "reserveB",
          "type": "uint256"
        }
      ],
      "name": "quote",
      "outputs": [
        {
          "internalType": "uint256",
          "name": "amountB",
          "type": "uint256"
        }
      ],
      "stateMutability": "pure",
      "type": "function",
      "constant": true
    },
    {
      "inputs": [
        {
          "internalType": "uint256",
          "name": "amountIn",
          "type": "uint256"
        },
        {
          "internalType": "uint256",
          "name": "reserveIn",
          "type": "uint256"
        },
        {
          "internalType": "uint256",
          "name": "reserveOut",
          "type": "uint256"
        }
      ],
      "name": "getAmountOut",
      "outputs": [
        {
          "internalType": "uint256",
          "name": "amountOut",
          "type": "uint256"
        }
      ],
      "stateMutability": "pure",
      "type": "function",
      "constant": true
    },
    {
      "inputs": [
        {
          "internalType": "uint256",
          "name": "amountOut",
          "type": "uint256"
        },
        {
          "internalType": "uint256",
          "name": "reserveIn",
          "type": "uint256"
        },
        {
          "internalType": "uint256",
          "name": "reserveOut",
          "type": "uint256"
        }
      ],
      "name": "getAmountIn",
      "outputs": [
        {
          "internalType": "uint256",
          "name": "amountIn",
          "type": "uint256"
        }
      ],
      "stateMutability": "pure",
      "type": "function",
      "constant": true
    },
    {
      "inputs": [
        {
          "internalType": "uint256",
          "name": "amountIn",
          "type": "uint256"
        },
        {
          "internalType": "address[]",
          "name": "path",
          "type": "address[]"
        }
      ],
      "name": "getAmountsOut",
      "outputs": [
        {
          "internalType": "uint256[]",
          "name": "amounts",
          "type": "uint256[]"
        }
      ],
      "stateMutability": "view",
      "type": "function",
      "constant": true
    },
    {
      "inputs": [
        {
          "internalType": "uint256",
          "name": "amountOut",
          "type": "uint256"
        },
        {
          "internalType": "address[]",
          "name": "path",
          "type": "address[]"
        }
      ],
      "name": "getAmountsIn",
      "outputs": [
        {
          "internalType": "uint256[]",
          "name": "amounts",
          "type": "uint256[]"
        }
      ],
      "stateMutability": "view",
      "type": "function",
      "constant": true
    }
  ],
  "bytecode": "0x60c060405234801561001057600080fd5b5060405162004733380380620047338339818101604052604081101561003557600080fd5b5080516020909101516001600160601b0319606092831b8116608052911b1660a05260805160601c60a05160601c6145ae620001856000398061015f5280610ce85280610d235280610e1e528061104552806113d7528061155c528061191352806119f75280611ad15280611ba35280611cf25280611d7a5280611fd0528061204f528061210352806121d3528061227152806122e552806127f85280612a6a5280612ac05280612af45280612b685280612cfa5280612e5c5280612ee4525080610eb55280610f8c528061110b52806111445280611283528061146e528061153a52806116ae5280611c3f5280611dac5280611f0a52806123175280612559528061277d52806127a652806127d652806129475280612a9e5280612d965280612f16528061379c52806137df5280613ab95280613c2f528061402052806140d9528061418c52506145ae6000f3fe60806040526004361061014f5760003560e01c80638803dbee116100b6578063c45a01551161006f578063c45a015514610a10578063d06ca61f14610a25578063ded9382a14610ada578063e8e3370014610b4d578063f305d71914610bcd578063fb3bdb4114610c1357610188565b80638803dbee146107df578063ad5c464814610875578063ad615dec146108a6578063af2979eb146108dc578063b6f9de951461092f578063baa2abde146109b357610188565b80634a25d94a116101085780634a25d94a146104f05780635b0d5984146105865780635c11d795146105f9578063791ac9471461068f5780637ff36ab51461072557806385f8c259146107a957610188565b806302751cec1461018d578063054d50d4146101f957806318cbafe5146102415780631f00ca74146103275780632195995c146103dc57806338ed17391461045a57610188565b3661018857336001600160a01b037f0000000000000000000000000000000000000000000000000000000000000000161461018657fe5b005b600080fd5b34801561019957600080fd5b506101e0600480360360c08110156101b057600080fd5b506001600160a01b0381358116916020810135916040820135916060810135916080820135169060a00135610c97565b6040805192835260208301919091528051918290030190f35b34801561020557600080fd5b5061022f6004803603606081101561021c57600080fd5b5080359060208101359060400135610db5565b60408051918252519081900360200190f35b34801561024d57600080fd5b506102d7600480360360a081101561026457600080fd5b813591602081013591810190606081016040820135600160201b81111561028a57600080fd5b82018360208201111561029c57600080fd5b803590602001918460208302840111600160201b831117156102bd57600080fd5b91935091506001600160a01b038135169060200135610dca565b60408051602080825283518183015283519192839290830191858101910280838360005b838110156103135781810151838201526020016102fb565b505050509050019250505060405180910390f35b34801561033357600080fd5b506102d76004803603604081101561034a57600080fd5b81359190810190604081016020820135600160201b81111561036b57600080fd5b82018360208201111561037d57600080fd5b803590602001918460208302840111600160201b8311171561039e57600080fd5b919080806020026020016040519081016040528093929190818152602001838360200280828437600092019190915250929550611104945050505050565b3480156103e857600080fd5b506101e0600480360361016081101561040057600080fd5b506001600160a01b038135811691602081013582169160408201359160608101359160808201359160a08101359091169060c08101359060e081013515159060ff610100820135169061012081013590610140013561113a565b34801561046657600080fd5b506102d7600480360360a081101561047d57600080fd5b813591602081013591810190606081016040820135600160201b8111156104a357600080fd5b8201836020820111156104b557600080fd5b803590602001918460208302840111600160201b831117156104d657600080fd5b91935091506001600160a01b038135169060200135611234565b3480156104fc57600080fd5b506102d7600480360360a081101561051357600080fd5b813591602081013591810190606081016040820135600160201b81111561053957600080fd5b82018360208201111561054b57600080fd5b803590602001918460208302840111600160201b8311171561056c57600080fd5b91935091506001600160a01b038135169060200135611383565b34801561059257600080fd5b5061022f60048036036101408110156105aa57600080fd5b506001600160a01b0381358116916020810135916040820135916060810135916080820135169060a08101359060c081013515159060ff60e08201351690610100810135906101200135611532565b34801561060557600080fd5b50610186600480360360a081101561061c57600080fd5b813591602081013591810190606081016040820135600160201b81111561064257600080fd5b82018360208201111561065457600080fd5b803590602001918460208302840111600160201b8311171561067557600080fd5b91935091506001600160a01b038135169060200135611640565b34801561069b57600080fd5b50610186600480360360a08110156106b257600080fd5b813591602081013591810190606081016040820135600160201b8111156106d857600080fd5b8201836020820111156106ea57600080fd5b803590602001918460208302840111600160201b8311171561070b57600080fd5b91935091506001600160a01b0381351690602001356118c1565b6102d76004803603608081101561073b57600080fd5b81359190810190604081016020820135600160201b81111561075c57600080fd5b82018360208201111561076e57600080fd5b803590602001918460208302840111600160201b8311171561078f57600080fd5b91935091506001600160a01b038135169060200135611b57565b3480156107b557600080fd5b5061022f600480360360608110156107cc57600080fd5b5080359060208101359060400135611eae565b3480156107eb57600080fd5b506102d7600480360360a081101561080257600080fd5b813591602081013591810190606081016040820135600160201b81111561082857600080fd5b82018360208201111561083a57600080fd5b803590602001918460208302840111600160201b8311171561085b57600080fd5b91935091506001600160a01b038135169060200135611ebb565b34801561088157600080fd5b5061088a611fce565b604080516001600160a01b039092168252519081900360200190f35b3480156108b257600080fd5b5061022f600480360360608110156108c957600080fd5b5080359060208101359060400135611ff2565b3480156108e857600080fd5b5061022f600480360360c08110156108ff57600080fd5b506001600160a01b0381358116916020810135916040820135916060810135916080820135169060a00135611fff565b6101866004803603608081101561094557600080fd5b81359190810190604081016020820135600160201b81111561096657600080fd5b82018360208201111561097857600080fd5b803590602001918460208302840111600160201b8311171561099957600080fd5b91935091506001600160a01b038135169060200135612189565b3480156109bf57600080fd5b506101e0600480360360e08110156109d657600080fd5b506001600160a01b038135811691602081013582169160408201359160608101359160808201359160a08101359091169060c00135612507565b348015610a1c57600080fd5b5061088a61277b565b348015610a3157600080fd5b506102d760048036036040811015610a4857600080fd5b81359190810190604081016020820135600160201b811115610a6957600080fd5b820183602082011115610a7b57600080fd5b803590602001918460208302840111600160201b83111715610a9c57600080fd5b91908080602002602001604051908101604052809392919081815260200183836020028082843760009201919091525092955061279f945050505050565b348015610ae657600080fd5b506101e06004803603610140811015610afe57600080fd5b506001600160a01b0381358116916020810135916040820135916060810135916080820135169060a08101359060c081013515159060ff60e082013516906101008101359061012001356127cc565b348015610b5957600080fd5b50610baf6004803603610100811015610b7157600080fd5b506001600160a01b038135811691602081013582169160408201359160608101359160808201359160a08101359160c0820135169060e001356128e0565b60408051938452602084019290925282820152519081900360600190f35b610baf600480360360c0811015610be357600080fd5b506001600160a01b0381358116916020810135916040820135916060810135916080820135169060a00135612a17565b6102d760048036036080811015610c2957600080fd5b81359190810190604081016020820135600160201b811115610c4a57600080fd5b820183602082011115610c5c57600080fd5b803590602001918460208302840111600160201b83111715610c7d57600080fd5b91935091506001600160a01b038135169060200135612cae565b6000808242811015610ce2576040805162461bcd60e51b815260206004820152600f60248201526e1119599a5bdb994811561412549151608a1b604482015290519081900360640190fd5b610d11897f00000000000000000000000000000000000000000000000000000000000000008a8a8a308a612507565b9093509150610d2189868561304a565b7f00000000000000000000000000000000000000000000000000000000000000006001600160a01b0316632e1a7d4d836040518263ffffffff1660e01b815260040180828152602001915050600060405180830381600087803b158015610d8757600080fd5b505af1158015610d9b573d6000803e3d6000fd5b50505050610da985836131b4565b50965096945050505050565b6000610dc28484846132ac565b949350505050565b60608142811015610e14576040805162461bcd60e51b815260206004820152600f60248201526e1119599a5bdb994811561412549151608a1b604482015290519081900360640190fd5b6001600160a01b037f00000000000000000000000000000000000000000000000000000000000000001686866000198101818110610e4e57fe5b905060200201356001600160a01b03166001600160a01b031614610eb0576040805162461bcd60e51b8152602060048201526014602482015273088caccd2dedcca40929cac82989288bea082a8960631b604482015290519081900360640190fd5b610f0e7f00000000000000000000000000000000000000000000000000000000000000008988888080602002602001604051908101604052809392919081815260200183836020028082843760009201919091525061338492505050565b91508682600184510381518110610f2157fe5b60200260200101511015610f665760405162461bcd60e51b81526004018080602001828103825260228152602001806144986022913960400191505060405180910390fd5b61100486866000818110610f7657fe5b905060200201356001600160a01b031633610fea7f00000000000000000000000000000000000000000000000000000000000000008a8a6000818110610fb857fe5b905060200201356001600160a01b03168b8b6001818110610fd557fe5b905060200201356001600160a01b03166134d0565b85600081518110610ff757fe5b6020026020010151613590565b611043828787808060200260200160405190810160405280939291908181526020018383602002808284376000920191909152503092506136ed915050565b7f00000000000000000000000000000000000000000000000000000000000000006001600160a01b0316632e1a7d4d8360018551038151811061108257fe5b60200260200101516040518263ffffffff1660e01b815260040180828152602001915050600060405180830381600087803b1580156110c057600080fd5b505af11580156110d4573d6000803e3d6000fd5b505050506110f984836001855103815181106110ec57fe5b60200260200101516131b4565b509695505050505050565b60606111317f0000000000000000000000000000000000000000000000000000000000000000848461392a565b90505b92915050565b600080600061116a7f00000000000000000000000000000000000000000000000000000000000000008f8f6134d0565b9050600087611179578c61117d565b6000195b6040805163d505accf60e01b815233600482015230602482015260448101839052606481018c905260ff8a16608482015260a4810189905260c4810188905290519192506001600160a01b0384169163d505accf9160e48082019260009290919082900301818387803b1580156111f357600080fd5b505af1158015611207573d6000803e3d6000fd5b5050505061121a8f8f8f8f8f8f8f612507565b809450819550505050509b509b9950505050505050505050565b6060814281101561127e576040805162461bcd60e51b815260206004820152600f60248201526e1119599a5bdb994811561412549151608a1b604482015290519081900360640190fd5b6112dc7f00000000000000000000000000000000000000000000000000000000000000008988888080602002602001604051908101604052809392919081815260200183836020028082843760009201919091525061338492505050565b915086826001845103815181106112ef57fe5b602002602001015110156113345760405162461bcd60e51b81526004018080602001828103825260228152602001806144986022913960400191505060405180910390fd5b61134486866000818110610f7657fe5b6110f9828787808060200260200160405190810160405280939291908181526020018383602002808284376000920191909152508992506136ed915050565b606081428110156113cd576040805162461bcd60e51b815260206004820152600f60248201526e1119599a5bdb994811561412549151608a1b604482015290519081900360640190fd5b6001600160a01b037f0000000000000000000000000000000000000000000000000000000000000000168686600019810181811061140757fe5b905060200201356001600160a01b03166001600160a01b031614611469576040805162461bcd60e51b8152602060048201526014602482015273088caccd2dedcca40929cac82989288bea082a8960631b604482015290519081900360640190fd5b6114c77f00000000000000000000000000000000000000000000000000000000000000008988888080602002602001604051908101604052809392919081815260200183836020028082843760009201919091525061392a92505050565b915086826000815181106114d757fe5b60200260200101511115610f66576040805162461bcd60e51b815260206004820152601e60248201527f446566696f6e65204558434553534956455f494e5055545f414d4f554e540000604482015290519081900360640190fd5b6000806115807f00000000000000000000000000000000000000000000000000000000000000008d7f00000000000000000000000000000000000000000000000000000000000000006134d0565b905060008661158f578b611593565b6000195b6040805163d505accf60e01b815233600482015230602482015260448101839052606481018b905260ff8916608482015260a4810188905260c4810187905290519192506001600160a01b0384169163d505accf9160e48082019260009290919082900301818387803b15801561160957600080fd5b505af115801561161d573d6000803e3d6000fd5b5050505061162f8d8d8d8d8d8d611fff565b9d9c50505050505050505050505050565b8042811015611688576040805162461bcd60e51b815260206004820152600f60248201526e1119599a5bdb994811561412549151608a1b604482015290519081900360640190fd5b6116fd8585600081811061169857fe5b905060200201356001600160a01b0316336116f77f0000000000000000000000000000000000000000000000000000000000000000898960008181106116da57fe5b905060200201356001600160a01b03168a8a6001818110610fd557fe5b8a613590565b60008585600019810181811061170f57fe5b905060200201356001600160a01b03166001600160a01b03166370a08231856040518263ffffffff1660e01b815260040180826001600160a01b0316815260200191505060206040518083038186803b15801561176b57600080fd5b505afa15801561177f573d6000803e3d6000fd5b505050506040513d602081101561179557600080fd5b505160408051602088810282810182019093528882529293506117d7929091899189918291850190849080828437600092019190915250889250613a62915050565b8661187a82888860001981018181106117ec57fe5b905060200201356001600160a01b03166001600160a01b03166370a08231886040518263ffffffff1660e01b815260040180826001600160a01b0316815260200191505060206040518083038186803b15801561184857600080fd5b505afa15801561185c573d6000803e3d6000fd5b505050506040513d602081101561187257600080fd5b505190613d64565b10156118b75760405162461bcd60e51b81526004018080602001828103825260228152602001806144986022913960400191505060405180910390fd5b5050505050505050565b8042811015611909576040805162461bcd60e51b815260206004820152600f60248201526e1119599a5bdb994811561412549151608a1b604482015290519081900360640190fd5b6001600160a01b037f0000000000000000000000000000000000000000000000000000000000000000168585600019810181811061194357fe5b905060200201356001600160a01b03166001600160a01b0316146119a5576040805162461bcd60e51b8152602060048201526014602482015273088caccd2dedcca40929cac82989288bea082a8960631b604482015290519081900360640190fd5b6119b58585600081811061169857fe5b6119f3858580806020026020016040519081016040528093929190818152602001838360200280828437600092019190915250309250613a62915050565b60007f00000000000000000000000000000000000000000000000000000000000000006001600160a01b03166370a08231306040518263ffffffff1660e01b815260040180826001600160a01b0316815260200191505060206040518083038186803b158015611a6257600080fd5b505afa158015611a76573d6000803e3d6000fd5b505050506040513d6020811015611a8c57600080fd5b5051905086811015611acf5760405162461bcd60e51b81526004018080602001828103825260228152602001806144986022913960400191505060405180910390fd5b7f00000000000000000000000000000000000000000000000000000000000000006001600160a01b0316632e1a7d4d826040518263ffffffff1660e01b815260040180828152602001915050600060405180830381600087803b158015611b3557600080fd5b505af1158015611b49573d6000803e3d6000fd5b505050506118b784826131b4565b60608142811015611ba1576040805162461bcd60e51b815260206004820152600f60248201526e1119599a5bdb994811561412549151608a1b604482015290519081900360640190fd5b7f00000000000000000000000000000000000000000000000000000000000000006001600160a01b031686866000818110611bd857fe5b905060200201356001600160a01b03166001600160a01b031614611c3a576040805162461bcd60e51b8152602060048201526014602482015273088caccd2dedcca40929cac82989288bea082a8960631b604482015290519081900360640190fd5b611c987f00000000000000000000000000000000000000000000000000000000000000003488888080602002602001604051908101604052809392919081815260200183836020028082843760009201919091525061338492505050565b91508682600184510381518110611cab57fe5b60200260200101511015611cf05760405162461bcd60e51b81526004018080602001828103825260228152602001806144986022913960400191505060405180910390fd5b7f00000000000000000000000000000000000000000000000000000000000000006001600160a01b031663d0e30db083600081518110611d2c57fe5b60200260200101516040518263ffffffff1660e01b81526004016000604051808303818588803b158015611d5f57600080fd5b505af1158015611d73573d6000803e3d6000fd5b50505050507f00000000000000000000000000000000000000000000000000000000000000006001600160a01b031663a9059cbb611dd87f0000000000000000000000000000000000000000000000000000000000000000898960008181106116da57fe5b84600081518110611de557fe5b60200260200101516040518363ffffffff1660e01b815260040180836001600160a01b0316815260200182815260200192505050602060405180830381600087803b158015611e3357600080fd5b505af1158015611e47573d6000803e3d6000fd5b505050506040513d6020811015611e5d57600080fd5b5051611e6557fe5b611ea4828787808060200260200160405190810160405280939291908181526020018383602002808284376000920191909152508992506136ed915050565b5095945050505050565b6000610dc2848484613db4565b60608142811015611f05576040805162461bcd60e51b815260206004820152600f60248201526e1119599a5bdb994811561412549151608a1b604482015290519081900360640190fd5b611f637f00000000000000000000000000000000000000000000000000000000000000008988888080602002602001604051908101604052809392919081815260200183836020028082843760009201919091525061392a92505050565b91508682600081518110611f7357fe5b60200260200101511115611334576040805162461bcd60e51b815260206004820152601e60248201527f446566696f6e65204558434553534956455f494e5055545f414d4f554e540000604482015290519081900360640190fd5b7f000000000000000000000000000000000000000000000000000000000000000081565b6000610dc2848484613e8c565b60008142811015612049576040805162461bcd60e51b815260206004820152600f60248201526e1119599a5bdb994811561412549151608a1b604482015290519081900360640190fd5b612078887f00000000000000000000000000000000000000000000000000000000000000008989893089612507565b90508092505061210188858a6001600160a01b03166370a08231306040518263ffffffff1660e01b815260040180826001600160a01b0316815260200191505060206040518083038186803b1580156120d057600080fd5b505afa1580156120e4573d6000803e3d6000fd5b505050506040513d60208110156120fa57600080fd5b505161304a565b7f00000000000000000000000000000000000000000000000000000000000000006001600160a01b0316632e1a7d4d836040518263ffffffff1660e01b815260040180828152602001915050600060405180830381600087803b15801561216757600080fd5b505af115801561217b573d6000803e3d6000fd5b505050506110f984836131b4565b80428110156121d1576040805162461bcd60e51b815260206004820152600f60248201526e1119599a5bdb994811561412549151608a1b604482015290519081900360640190fd5b7f00000000000000000000000000000000000000000000000000000000000000006001600160a01b03168585600081811061220857fe5b905060200201356001600160a01b03166001600160a01b03161461226a576040805162461bcd60e51b8152602060048201526014602482015273088caccd2dedcca40929cac82989288bea082a8960631b604482015290519081900360640190fd5b60003490507f00000000000000000000000000000000000000000000000000000000000000006001600160a01b031663d0e30db0826040518263ffffffff1660e01b81526004016000604051808303818588803b1580156122ca57600080fd5b505af11580156122de573d6000803e3d6000fd5b50505050507f00000000000000000000000000000000000000000000000000000000000000006001600160a01b031663a9059cbb6123437f0000000000000000000000000000000000000000000000000000000000000000898960008181106116da57fe5b836040518363ffffffff1660e01b815260040180836001600160a01b0316815260200182815260200192505050602060405180830381600087803b15801561238a57600080fd5b505af115801561239e573d6000803e3d6000fd5b505050506040513d60208110156123b457600080fd5b50516123bc57fe5b6000868660001981018181106123ce57fe5b905060200201356001600160a01b03166001600160a01b03166370a08231866040518263ffffffff1660e01b815260040180826001600160a01b0316815260200191505060206040518083038186803b15801561242a57600080fd5b505afa15801561243e573d6000803e3d6000fd5b505050506040513d602081101561245457600080fd5b505160408051602089810282810182019093528982529293506124969290918a918a918291850190849080828437600092019190915250899250613a62915050565b8761187a82898960001981018181106124ab57fe5b905060200201356001600160a01b03166001600160a01b03166370a08231896040518263ffffffff1660e01b815260040180826001600160a01b0316815260200191505060206040518083038186803b15801561184857600080fd5b6000808242811015612552576040805162461bcd60e51b815260206004820152600f60248201526e1119599a5bdb994811561412549151608a1b604482015290519081900360640190fd5b600061257f7f00000000000000000000000000000000000000000000000000000000000000008c8c6134d0565b604080516323b872dd60e01b81523360048201526001600160a01b03831660248201819052604482018d9052915192935090916323b872dd916064808201926020929091908290030181600087803b1580156125da57600080fd5b505af11580156125ee573d6000803e3d6000fd5b505050506040513d602081101561260457600080fd5b50506040805163226bf2d160e21b81526001600160a01b03888116600483015282516000938493928616926389afcb44926024808301939282900301818787803b15801561265157600080fd5b505af1158015612665573d6000803e3d6000fd5b505050506040513d604081101561267b57600080fd5b508051602090910151909250905060006126958e8e613f32565b509050806001600160a01b03168e6001600160a01b0316146126b85781836126bb565b82825b90975095508a871015612715576040805162461bcd60e51b815260206004820152601d60248201527f446566696f6e6520494e53554646494349454e545f415f414d4f554e54000000604482015290519081900360640190fd5b8986101561276a576040805162461bcd60e51b815260206004820152601d60248201527f446566696f6e6520494e53554646494349454e545f425f414d4f554e54000000604482015290519081900360640190fd5b505050505097509795505050505050565b7f000000000000000000000000000000000000000000000000000000000000000081565b60606111317f00000000000000000000000000000000000000000000000000000000000000008484613384565b600080600061281c7f00000000000000000000000000000000000000000000000000000000000000008e7f00000000000000000000000000000000000000000000000000000000000000006134d0565b905060008761282b578c61282f565b6000195b6040805163d505accf60e01b815233600482015230602482015260448101839052606481018c905260ff8a16608482015260a4810189905260c4810188905290519192506001600160a01b0384169163d505accf9160e48082019260009290919082900301818387803b1580156128a557600080fd5b505af11580156128b9573d6000803e3d6000fd5b505050506128cb8e8e8e8e8e8e610c97565b909f909e509c50505050505050505050505050565b6000806000834281101561292d576040805162461bcd60e51b815260206004820152600f60248201526e1119599a5bdb994811561412549151608a1b604482015290519081900360640190fd5b61293b8c8c8c8c8c8c614010565b9094509250600061296d7f00000000000000000000000000000000000000000000000000000000000000008e8e6134d0565b905061297b8d338388613590565b6129878c338387613590565b806001600160a01b0316636a627842886040518263ffffffff1660e01b815260040180826001600160a01b03168152602001915050602060405180830381600087803b1580156129d657600080fd5b505af11580156129ea573d6000803e3d6000fd5b505050506040513d6020811015612a0057600080fd5b5051949d939c50939a509198505050505050505050565b60008060008342811015612a64576040805162461bcd60e51b815260206004820152600f60248201526e1119599a5bdb994811561412549151608a1b604482015290519081900360640190fd5b612a928a7f00000000000000000000000000000000000000000000000000000000000000008b348c8c614010565b90945092506000612ae47f00000000000000000000000000000000000000000000000000000000000000008c7f00000000000000000000000000000000000000000000000000000000000000006134d0565b9050612af28b338388613590565b7f00000000000000000000000000000000000000000000000000000000000000006001600160a01b031663d0e30db0856040518263ffffffff1660e01b81526004016000604051808303818588803b158015612b4d57600080fd5b505af1158015612b61573d6000803e3d6000fd5b50505050507f00000000000000000000000000000000000000000000000000000000000000006001600160a01b031663a9059cbb82866040518363ffffffff1660e01b815260040180836001600160a01b0316815260200182815260200192505050602060405180830381600087803b158015612bdd57600080fd5b505af1158015612bf1573d6000803e3d6000fd5b505050506040513d6020811015612c0757600080fd5b5051612c0f57fe5b806001600160a01b0316636a627842886040518263ffffffff1660e01b815260040180826001600160a01b03168152602001915050602060405180830381600087803b158015612c5e57600080fd5b505af1158015612c72573d6000803e3d6000fd5b505050506040513d6020811015612c8857600080fd5b5051925034841015612ca057612ca0338534036131b4565b505096509650969350505050565b60608142811015612cf8576040805162461bcd60e51b815260206004820152600f60248201526e1119599a5bdb994811561412549151608a1b604482015290519081900360640190fd5b7f00000000000000000000000000000000000000000000000000000000000000006001600160a01b031686866000818110612d2f57fe5b905060200201356001600160a01b03166001600160a01b031614612d91576040805162461bcd60e51b8152602060048201526014602482015273088caccd2dedcca40929cac82989288bea082a8960631b604482015290519081900360640190fd5b612def7f00000000000000000000000000000000000000000000000000000000000000008888888080602002602001604051908101604052809392919081815260200183836020028082843760009201919091525061392a92505050565b91503482600081518110612dff57fe5b60200260200101511115612e5a576040805162461bcd60e51b815260206004820152601e60248201527f446566696f6e65204558434553534956455f494e5055545f414d4f554e540000604482015290519081900360640190fd5b7f00000000000000000000000000000000000000000000000000000000000000006001600160a01b031663d0e30db083600081518110612e9657fe5b60200260200101516040518263ffffffff1660e01b81526004016000604051808303818588803b158015612ec957600080fd5b505af1158015612edd573d6000803e3d6000fd5b50505050507f00000000000000000000000000000000000000000000000000000000000000006001600160a01b031663a9059cbb612f427f0000000000000000000000000000000000000000000000000000000000000000898960008181106116da57fe5b84600081518110612f4f57fe5b60200260200101516040518363ffffffff1660e01b815260040180836001600160a01b0316815260200182815260200192505050602060405180830381600087803b158015612f9d57600080fd5b505af1158015612fb1573d6000803e3d6000fd5b505050506040513d6020811015612fc757600080fd5b5051612fcf57fe5b61300e828787808060200260200160405190810160405280939291908181526020018383602002808284376000920191909152508992506136ed915050565b8160008151811061301b57fe5b6020026020010151341115611ea457611ea4338360008151811061303b57fe5b602002602001015134036131b4565b604080516001600160a01b038481166024830152604480830185905283518084039091018152606490920183526020820180516001600160e01b031663a9059cbb60e01b178152925182516000946060949389169392918291908083835b602083106130c75780518252601f1990920191602091820191016130a8565b6001836020036101000a0380198251168184511680821785525050505050509050019150506000604051808303816000865af19150503d8060008114613129576040519150601f19603f3d011682016040523d82523d6000602084013e61312e565b606091505b509150915081801561315c57508051158061315c575080806020019051602081101561315957600080fd5b50515b6131ad576040805162461bcd60e51b815260206004820152601f60248201527f5472616e7366657248656c7065723a205452414e534645525f4641494c454400604482015290519081900360640190fd5b5050505050565b604080516000808252602082019092526001600160a01b0384169083906040518082805190602001908083835b602083106132005780518252601f1990920191602091820191016131e1565b6001836020036101000a03801982511681845116808217855250505050505090500191505060006040518083038185875af1925050503d8060008114613262576040519150601f19603f3d011682016040523d82523d6000602084013e613267565b606091505b50509050806132a75760405162461bcd60e51b81526004018080602001828103825260238152602001806145076023913960400191505060405180910390fd5b505050565b60008084116132ec5760405162461bcd60e51b815260040180806020018281038252602b81526020018061454e602b913960400191505060405180910390fd5b6000831180156132fc5750600082115b6133375760405162461bcd60e51b81526004018080602001828103825260288152602001806144ba6028913960400191505060405180910390fd5b6000613345856103e56142cd565b9050600061335382856142cd565b9050600061336d83613367886103e86142cd565b90614330565b905080828161337857fe5b04979650505050505050565b60606002825110156133dd576040805162461bcd60e51b815260206004820152601e60248201527f556e697377617056324c6962726172793a20494e56414c49445f504154480000604482015290519081900360640190fd5b815167ffffffffffffffff811180156133f557600080fd5b5060405190808252806020026020018201604052801561341f578160200160208202803683370190505b509050828160008151811061343057fe5b60200260200101818152505060005b60018351038110156134c8576000806134828786858151811061345e57fe5b602002602001015187866001018151811061347557fe5b602002602001015161437f565b915091506134a484848151811061349557fe5b602002602001015183836132ac565b8484600101815181106134b357fe5b6020908102919091010152505060010161343f565b509392505050565b60008060006134df8585613f32565b604080516bffffffffffffffffffffffff19606094851b811660208084019190915293851b81166034830152825160288184030181526048830184528051908501206001600160f81b031960688401529a90941b9093166069840152607d8301989098527fee4d3ae31af9cf8fd99aafbe0ea4a1d6250073c404d12b6d8f2f32b4fb4ab83f609d808401919091528851808403909101815260bd909201909752805196019590952095945050505050565b604080516001600160a01b0385811660248301528481166044830152606480830185905283518084039091018152608490920183526020820180516001600160e01b03166323b872dd60e01b17815292518251600094606094938a169392918291908083835b602083106136155780518252601f1990920191602091820191016135f6565b6001836020036101000a0380198251168184511680821785525050505050509050019150506000604051808303816000865af19150503d8060008114613677576040519150601f19603f3d011682016040523d82523d6000602084013e61367c565b606091505b50915091508180156136aa5750805115806136aa57508080602001905160208110156136a757600080fd5b50515b6136e55760405162461bcd60e51b815260040180806020018281038252602481526020018061452a6024913960400191505060405180910390fd5b505050505050565b60005b60018351038110156139245760008084838151811061370b57fe5b602002602001015185846001018151811061372257fe5b602002602001015191509150600061373a8383613f32565b509050600087856001018151811061374e57fe5b60200260200101519050600080836001600160a01b0316866001600160a01b03161461377c57826000613780565b6000835b91509150600060028a5103881061379757886137d8565b6137d87f0000000000000000000000000000000000000000000000000000000000000000878c8b600201815181106137cb57fe5b60200260200101516134d0565b90506138057f000000000000000000000000000000000000000000000000000000000000000088886134d0565b6001600160a01b031663022c0d9f84848460006040519080825280601f01601f191660200182016040528015613842576020820181803683370190505b506040518563ffffffff1660e01b815260040180858152602001848152602001836001600160a01b0316815260200180602001828103825283818151815260200191508051906020019080838360005b838110156138aa578181015183820152602001613892565b50505050905090810190601f1680156138d75780820380516001836020036101000a031916815260200191505b5095505050505050600060405180830381600087803b1580156138f957600080fd5b505af115801561390d573d6000803e3d6000fd5b5050600190990198506136f0975050505050505050565b50505050565b6060600282511015613983576040805162461bcd60e51b815260206004820152601e60248201527f556e697377617056324c6962726172793a20494e56414c49445f504154480000604482015290519081900360640190fd5b815167ffffffffffffffff8111801561399b57600080fd5b506040519080825280602002602001820160405280156139c5578160200160208202803683370190505b50905082816001835103815181106139d957fe5b60209081029190910101528151600019015b80156134c857600080613a1b87866001860381518110613a0757fe5b602002602001015187868151811061347557fe5b91509150613a3d848481518110613a2e57fe5b60200260200101518383613db4565b846001850381518110613a4c57fe5b60209081029190910101525050600019016139eb565b60005b60018351038110156132a757600080848381518110613a8057fe5b6020026020010151858460010181518110613a9757fe5b6020026020010151915091506000613aaf8383613f32565b5090506000613adf7f000000000000000000000000000000000000000000000000000000000000000085856134d0565b9050600080600080846001600160a01b0316630902f1ac6040518163ffffffff1660e01b815260040160606040518083038186803b158015613b2057600080fd5b505afa158015613b34573d6000803e3d6000fd5b505050506040513d6060811015613b4a57600080fd5b5080516020909101516001600160701b0391821693501690506000806001600160a01b038a811690891614613b80578284613b83565b83835b91509150613bd8828b6001600160a01b03166370a082318a6040518263ffffffff1660e01b815260040180826001600160a01b0316815260200191505060206040518083038186803b15801561184857600080fd5b9550613be58683836132ac565b945050505050600080856001600160a01b0316886001600160a01b031614613c0f57826000613c13565b6000835b91509150600060028c51038a10613c2a578a613c5e565b613c5e7f0000000000000000000000000000000000000000000000000000000000000000898e8d600201815181106137cb57fe5b604080516000808252602082019283905263022c0d9f60e01b835260248201878152604483018790526001600160a01b038086166064850152608060848501908152845160a48601819052969750908c169563022c0d9f958a958a958a9591949193919260c486019290918190849084905b83811015613ce8578181015183820152602001613cd0565b50505050905090810190601f168015613d155780820380516001836020036101000a031916815260200191505b5095505050505050600060405180830381600087803b158015613d3757600080fd5b505af1158015613d4b573d6000803e3d6000fd5b50506001909b019a50613a659950505050505050505050565b80820382811115611134576040805162461bcd60e51b815260206004820152601560248201527464732d6d6174682d7375622d756e646572666c6f7760581b604482015290519081900360640190fd5b6000808411613df45760405162461bcd60e51b815260040180806020018281038252602c815260200180614447602c913960400191505060405180910390fd5b600083118015613e045750600082115b613e3f5760405162461bcd60e51b81526004018080602001828103825260288152602001806144ba6028913960400191505060405180910390fd5b6000613e576103e8613e5186886142cd565b906142cd565b90506000613e6b6103e5613e518689613d64565b9050613e826001828481613e7b57fe5b0490614330565b9695505050505050565b6000808411613ecc5760405162461bcd60e51b81526004018080602001828103825260258152602001806144e26025913960400191505060405180910390fd5b600083118015613edc5750600082115b613f175760405162461bcd60e51b81526004018080602001828103825260288152602001806144ba6028913960400191505060405180910390fd5b82613f2285846142cd565b81613f2957fe5b04949350505050565b600080826001600160a01b0316846001600160a01b03161415613f865760405162461bcd60e51b81526004018080602001828103825260258152602001806144736025913960400191505060405180910390fd5b826001600160a01b0316846001600160a01b031610613fa6578284613fa9565b83835b90925090506001600160a01b038216614009576040805162461bcd60e51b815260206004820152601e60248201527f556e697377617056324c6962726172793a205a45524f5f414444524553530000604482015290519081900360640190fd5b9250929050565b60008060006001600160a01b03167f00000000000000000000000000000000000000000000000000000000000000006001600160a01b031663e6a439058a8a6040518363ffffffff1660e01b815260040180836001600160a01b03168152602001826001600160a01b031681526020019250505060206040518083038186803b15801561409c57600080fd5b505afa1580156140b0573d6000803e3d6000fd5b505050506040513d60208110156140c657600080fd5b50516001600160a01b03161415614184577f00000000000000000000000000000000000000000000000000000000000000006001600160a01b031663c9c6539689896040518363ffffffff1660e01b815260040180836001600160a01b03168152602001826001600160a01b0316815260200192505050602060405180830381600087803b15801561415757600080fd5b505af115801561416b573d6000803e3d6000fd5b505050506040513d602081101561418157600080fd5b50505b6000806141b27f00000000000000000000000000000000000000000000000000000000000000008b8b61437f565b915091508160001480156141c4575080155b156141d4578793508692506142c0565b60006141e1898484613e8c565b905087811161424a578581101561423f576040805162461bcd60e51b815260206004820152601d60248201527f446566696f6e6520494e53554646494349454e545f425f414d4f554e54000000604482015290519081900360640190fd5b8894509250826142be565b6000614257898486613e8c565b90508981111561426357fe5b878110156142b8576040805162461bcd60e51b815260206004820152601d60248201527f446566696f6e6520494e53554646494349454e545f415f414d4f554e54000000604482015290519081900360640190fd5b94508793505b505b5050965096945050505050565b60008115806142e8575050808202828282816142e557fe5b04145b611134576040805162461bcd60e51b815260206004820152601460248201527364732d6d6174682d6d756c2d6f766572666c6f7760601b604482015290519081900360640190fd5b80820182811015611134576040805162461bcd60e51b815260206004820152601460248201527364732d6d6174682d6164642d6f766572666c6f7760601b604482015290519081900360640190fd5b600080600061438e8585613f32565b50905060008061439f8888886134d0565b6001600160a01b0316630902f1ac6040518163ffffffff1660e01b815260040160606040518083038186803b1580156143d757600080fd5b505afa1580156143eb573d6000803e3d6000fd5b505050506040513d606081101561440157600080fd5b5080516020909101516001600160701b0391821693501690506001600160a01b0387811690841614614434578082614437565b81815b9099909850965050505050505056fe556e697377617056324c6962726172793a20494e53554646494349454e545f4f55545055545f414d4f554e54556e697377617056324c6962726172793a204944454e544943414c5f414444524553534553446566696f6e6520494e53554646494349454e545f4f55545055545f414d4f554e54556e697377617056324c6962726172793a20494e53554646494349454e545f4c4951554944495459556e697377617056324c6962726172793a20494e53554646494349454e545f414d4f554e545472616e7366657248656c7065723a204554485f5452414e534645525f4641494c45445472616e7366657248656c7065723a205452414e534645525f46524f4d5f4641494c4544556e697377617056324c6962726172793a20494e53554646494349454e545f494e5055545f414d4f554e54a26469706673582212208a79b2f9937bd5cb94d3c1c51c36bf0915cd3d5ec95c1175848b66ee2c8cc49064736f6c634300060c0033",
  "immutableReferences": {
    "7107": [
      {
        "length": 32,
        "start": 3765
      },
      {
        "length": 32,
        "start": 3980
      },
      {
        "length": 32,
        "start": 4363
      },
      {
        "length": 32,
        "start": 4420
      },
      {
        "length": 32,
        "start": 4739
      },
      {
        "length": 32,
        "start": 5230
      },
      {
        "length": 32,
        "start": 5434
      },
      {
        "length": 32,
        "start": 5806
      },
      {
        "length": 32,
        "start": 7231
      },
      {
        "length": 32,
        "start": 7596
      },
      {
        "length": 32,
        "start": 7946
      },
      {
        "length": 32,
        "start": 8983
      },
      {
        "length": 32,
        "start": 9561
      },
      {
        "length": 32,
        "start": 10109
      },
      {
        "length": 32,
        "start": 10150
      },
      {
        "length": 32,
        "start": 10198
      },
      {
        "length": 32,
        "start": 10567
      },
      {
        "length": 32,
        "start": 10910
      },
      {
        "length": 32,
        "start": 11670
      },
      {
        "length": 32,
        "start": 12054
      },
      {
        "length": 32,
        "start": 14236
      },
      {
        "length": 32,
        "start": 14303
      },
      {
        "length": 32,
        "start": 15033
      },
      {
        "length": 32,
        "start": 15407
      },
      {
        "length": 32,
        "start": 16416
      },
      {
        "length": 32,
        "start": 16601
      },
      {
        "length": 32,
        "start": 16780
      }
    ],
    "7110": [
      {
        "length": 32,
        "start": 351
      },
      {
        "length": 32,
        "start": 3304
      },
      {
        "length": 32,
        "start": 3363
      },
      {
        "length": 32,
        "start": 3614
      },
      {
        "length": 32,
        "start": 4165
      },
      {
        "length": 32,
        "start": 5079
      },
      {
        "length": 32,
        "start": 5468
      },
      {
        "length": 32,
        "start": 6419
      },
      {
        "length": 32,
        "start": 6647
      },
      {
        "length": 32,
        "start": 6865
      },
      {
        "length": 32,
        "start": 7075
      },
      {
        "length": 32,
        "start": 7410
      },
      {
        "length": 32,
        "start": 7546
      },
      {
        "length": 32,
        "start": 8144
      },
      {
        "length": 32,
        "start": 8271
      },
      {
        "length": 32,
        "start": 8451
      },
      {
        "length": 32,
        "start": 8659
      },
      {
        "length": 32,
        "start": 8817
      },
      {
        "length": 32,
        "start": 8933
      },
      {
        "length": 32,
        "start": 10232
      },
      {
        "length": 32,
        "start": 10858
      },
      {
        "length": 32,
        "start": 10944
      },
      {
        "length": 32,
        "start": 10996
      },
      {
        "length": 32,
        "start": 11112
      },
      {
        "length": 32,
        "start": 11514
      },
      {
        "length": 32,
        "start": 11868
      },
      {
        "length": 32,
        "start": 12004
      }
    ]
  },
  "source": "// SPDX-License-Identifier: MIT\r\n\r\npragma solidity =0.6.12;\r\n\r\n\r\nimport './libraries/UniswapV2Library.sol';\r\nimport './libraries/SafeMath.sol';\r\nimport './libraries/TransferHelper.sol';\r\nimport './interfaces/IUniswapV2Router02.sol';\r\nimport './interfaces/IUniswapV2Factory.sol';\r\nimport './interfaces/IERC20.sol';\r\nimport './interfaces/IWETH.sol';\r\n\r\ncontract UniswapV2Router02 is IUniswapV2Router02 {\r\n    using SafeMathUniswap for uint;\r\n\r\n    address public immutable override factory;\r\n    address public immutable override WETH;\r\n\r\n    modifier ensure(uint deadline) {\r\n        require(deadline >= block.timestamp, 'Defione EXPIRED');\r\n        _;\r\n    }\r\n\r\n    constructor(address _factory, address _WETH) public {\r\n        factory = _factory;\r\n        WETH = _WETH;\r\n    }\r\n\r\n    receive() external payable {\r\n        assert(msg.sender == WETH); // only accept ETH via fallback from the WETH contract\r\n    }\r\n\r\n    // **** ADD LIQUIDITY ****\r\n    function _addLiquidity(\r\n        address tokenA,\r\n        address tokenB,\r\n        uint amountADesired,\r\n        uint amountBDesired,\r\n        uint amountAMin,\r\n        uint amountBMin\r\n    ) internal virtual returns (uint amountA, uint amountB) {\r\n        // create the pair if it doesn't exist yet\r\n        if (IUniswapV2Factory(factory).getPair(tokenA, tokenB) == address(0)) {\r\n            IUniswapV2Factory(factory).createPair(tokenA, tokenB);\r\n        }\r\n        (uint reserveA, uint reserveB) = UniswapV2Library.getReserves(factory, tokenA, tokenB);\r\n        if (reserveA == 0 && reserveB == 0) {\r\n            (amountA, amountB) = (amountADesired, amountBDesired);\r\n        } else {\r\n            uint amountBOptimal = UniswapV2Library.quote(amountADesired, reserveA, reserveB);\r\n            if (amountBOptimal <= amountBDesired) {\r\n                require(amountBOptimal >= amountBMin, 'Defione INSUFFICIENT_B_AMOUNT');\r\n                (amountA, amountB) = (amountADesired, amountBOptimal);\r\n            } else {\r\n                uint amountAOptimal = UniswapV2Library.quote(amountBDesired, reserveB, reserveA);\r\n                assert(amountAOptimal <= amountADesired);\r\n                require(amountAOptimal >= amountAMin, 'Defione INSUFFICIENT_A_AMOUNT');\r\n                (amountA, amountB) = (amountAOptimal, amountBDesired);\r\n            }\r\n        }\r\n    }\r\n    function addLiquidity(\r\n        address tokenA,\r\n        address tokenB,\r\n        uint amountADesired,\r\n        uint amountBDesired,\r\n        uint amountAMin,\r\n        uint amountBMin,\r\n        address to,\r\n        uint deadline\r\n    ) external virtual override ensure(deadline) returns (uint amountA, uint amountB, uint liquidity) {\r\n        (amountA, amountB) = _addLiquidity(tokenA, tokenB, amountADesired, amountBDesired, amountAMin, amountBMin);\r\n        address pair = UniswapV2Library.pairFor(factory, tokenA, tokenB);\r\n        TransferHelper.safeTransferFrom(tokenA, msg.sender, pair, amountA);\r\n        TransferHelper.safeTransferFrom(tokenB, msg.sender, pair, amountB);\r\n        liquidity = IUniswapV2Pair(pair).mint(to);\r\n    }\r\n    function addLiquidityETH(\r\n        address token,\r\n        uint amountTokenDesired,\r\n        uint amountTokenMin,\r\n        uint amountETHMin,\r\n        address to,\r\n        uint deadline\r\n    ) external virtual override payable ensure(deadline) returns (uint amountToken, uint amountETH, uint liquidity) {\r\n        (amountToken, amountETH) = _addLiquidity(\r\n            token,\r\n            WETH,\r\n            amountTokenDesired,\r\n            msg.value,\r\n            amountTokenMin,\r\n            amountETHMin\r\n        );\r\n        address pair = UniswapV2Library.pairFor(factory, token, WETH);\r\n        TransferHelper.safeTransferFrom(token, msg.sender, pair, amountToken);\r\n        IWETH(WETH).deposit{value: amountETH}();\r\n        assert(IWETH(WETH).transfer(pair, amountETH));\r\n        liquidity = IUniswapV2Pair(pair).mint(to);\r\n        // refund dust eth, if any\r\n        if (msg.value > amountETH) TransferHelper.safeTransferETH(msg.sender, msg.value - amountETH);\r\n    }\r\n\r\n    // **** REMOVE LIQUIDITY ****\r\n    function removeLiquidity(\r\n        address tokenA,\r\n        address tokenB,\r\n        uint liquidity,\r\n        uint amountAMin,\r\n        uint amountBMin,\r\n        address to,\r\n        uint deadline\r\n    ) public virtual override ensure(deadline) returns (uint amountA, uint amountB) {\r\n        address pair = UniswapV2Library.pairFor(factory, tokenA, tokenB);\r\n        IUniswapV2Pair(pair).transferFrom(msg.sender, pair, liquidity); // send liquidity to pair\r\n        (uint amount0, uint amount1) = IUniswapV2Pair(pair).burn(to);\r\n        (address token0,) = UniswapV2Library.sortTokens(tokenA, tokenB);\r\n        (amountA, amountB) = tokenA == token0 ? (amount0, amount1) : (amount1, amount0);\r\n        require(amountA >= amountAMin, 'Defione INSUFFICIENT_A_AMOUNT');\r\n        require(amountB >= amountBMin, 'Defione INSUFFICIENT_B_AMOUNT');\r\n    }\r\n    function removeLiquidityETH(\r\n        address token,\r\n        uint liquidity,\r\n        uint amountTokenMin,\r\n        uint amountETHMin,\r\n        address to,\r\n        uint deadline\r\n    ) public virtual override ensure(deadline) returns (uint amountToken, uint amountETH) {\r\n        (amountToken, amountETH) = removeLiquidity(\r\n            token,\r\n            WETH,\r\n            liquidity,\r\n            amountTokenMin,\r\n            amountETHMin,\r\n            address(this),\r\n            deadline\r\n        );\r\n        TransferHelper.safeTransfer(token, to, amountToken);\r\n        IWETH(WETH).withdraw(amountETH);\r\n        TransferHelper.safeTransferETH(to, amountETH);\r\n    }\r\n    function removeLiquidityWithPermit(\r\n        address tokenA,\r\n        address tokenB,\r\n        uint liquidity,\r\n        uint amountAMin,\r\n        uint amountBMin,\r\n        address to,\r\n        uint deadline,\r\n        bool approveMax, uint8 v, bytes32 r, bytes32 s\r\n    ) external virtual override returns (uint amountA, uint amountB) {\r\n        address pair = UniswapV2Library.pairFor(factory, tokenA, tokenB);\r\n        uint value = approveMax ? uint(-1) : liquidity;\r\n        IUniswapV2Pair(pair).permit(msg.sender, address(this), value, deadline, v, r, s);\r\n        (amountA, amountB) = removeLiquidity(tokenA, tokenB, liquidity, amountAMin, amountBMin, to, deadline);\r\n    }\r\n    function removeLiquidityETHWithPermit(\r\n        address token,\r\n        uint liquidity,\r\n        uint amountTokenMin,\r\n        uint amountETHMin,\r\n        address to,\r\n        uint deadline,\r\n        bool approveMax, uint8 v, bytes32 r, bytes32 s\r\n    ) external virtual override returns (uint amountToken, uint amountETH) {\r\n        address pair = UniswapV2Library.pairFor(factory, token, WETH);\r\n        uint value = approveMax ? uint(-1) : liquidity;\r\n        IUniswapV2Pair(pair).permit(msg.sender, address(this), value, deadline, v, r, s);\r\n        (amountToken, amountETH) = removeLiquidityETH(token, liquidity, amountTokenMin, amountETHMin, to, deadline);\r\n    }\r\n\r\n    // **** REMOVE LIQUIDITY (supporting fee-on-transfer tokens) ****\r\n    function removeLiquidityETHSupportingFeeOnTransferTokens(\r\n        address token,\r\n        uint liquidity,\r\n        uint amountTokenMin,\r\n        uint amountETHMin,\r\n        address to,\r\n        uint deadline\r\n    ) public virtual override ensure(deadline) returns (uint amountETH) {\r\n        (, amountETH) = removeLiquidity(\r\n            token,\r\n            WETH,\r\n            liquidity,\r\n            amountTokenMin,\r\n            amountETHMin,\r\n            address(this),\r\n            deadline\r\n        );\r\n        TransferHelper.safeTransfer(token, to, IERC20Uniswap(token).balanceOf(address(this)));\r\n        IWETH(WETH).withdraw(amountETH);\r\n        TransferHelper.safeTransferETH(to, amountETH);\r\n    }\r\n    function removeLiquidityETHWithPermitSupportingFeeOnTransferTokens(\r\n        address token,\r\n        uint liquidity,\r\n        uint amountTokenMin,\r\n        uint amountETHMin,\r\n        address to,\r\n        uint deadline,\r\n        bool approveMax, uint8 v, bytes32 r, bytes32 s\r\n    ) external virtual override returns (uint amountETH) {\r\n        address pair = UniswapV2Library.pairFor(factory, token, WETH);\r\n        uint value = approveMax ? uint(-1) : liquidity;\r\n        IUniswapV2Pair(pair).permit(msg.sender, address(this), value, deadline, v, r, s);\r\n        amountETH = removeLiquidityETHSupportingFeeOnTransferTokens(\r\n            token, liquidity, amountTokenMin, amountETHMin, to, deadline\r\n        );\r\n    }\r\n\r\n    // **** SWAP ****\r\n    // requires the initial amount to have already been sent to the first pair\r\n    function _swap(uint[] memory amounts, address[] memory path, address _to) internal virtual {\r\n        for (uint i; i < path.length - 1; i++) {\r\n            (address input, address output) = (path[i], path[i + 1]);\r\n            (address token0,) = UniswapV2Library.sortTokens(input, output);\r\n            uint amountOut = amounts[i + 1];\r\n            (uint amount0Out, uint amount1Out) = input == token0 ? (uint(0), amountOut) : (amountOut, uint(0));\r\n            address to = i < path.length - 2 ? UniswapV2Library.pairFor(factory, output, path[i + 2]) : _to;\r\n            IUniswapV2Pair(UniswapV2Library.pairFor(factory, input, output)).swap(\r\n                amount0Out, amount1Out, to, new bytes(0)\r\n            );\r\n        }\r\n    }\r\n    function swapExactTokensForTokens(\r\n        uint amountIn,\r\n        uint amountOutMin,\r\n        address[] calldata path,\r\n        address to,\r\n        uint deadline\r\n    ) external virtual override ensure(deadline) returns (uint[] memory amounts) {\r\n        amounts = UniswapV2Library.getAmountsOut(factory, amountIn, path);\r\n        require(amounts[amounts.length - 1] >= amountOutMin, 'Defione INSUFFICIENT_OUTPUT_AMOUNT');\r\n        TransferHelper.safeTransferFrom(\r\n            path[0], msg.sender, UniswapV2Library.pairFor(factory, path[0], path[1]), amounts[0]\r\n        );\r\n        _swap(amounts, path, to);\r\n    }\r\n    function swapTokensForExactTokens(\r\n        uint amountOut,\r\n        uint amountInMax,\r\n        address[] calldata path,\r\n        address to,\r\n        uint deadline\r\n    ) external virtual override ensure(deadline) returns (uint[] memory amounts) {\r\n        amounts = UniswapV2Library.getAmountsIn(factory, amountOut, path);\r\n        require(amounts[0] <= amountInMax, 'Defione EXCESSIVE_INPUT_AMOUNT');\r\n        TransferHelper.safeTransferFrom(\r\n            path[0], msg.sender, UniswapV2Library.pairFor(factory, path[0], path[1]), amounts[0]\r\n        );\r\n        _swap(amounts, path, to);\r\n    }\r\n    function swapExactETHForTokens(uint amountOutMin, address[] calldata path, address to, uint deadline)\r\n        external\r\n        virtual\r\n        override\r\n        payable\r\n        ensure(deadline)\r\n        returns (uint[] memory amounts)\r\n    {\r\n        require(path[0] == WETH, 'Defione INVALID_PATH');\r\n        amounts = UniswapV2Library.getAmountsOut(factory, msg.value, path);\r\n        require(amounts[amounts.length - 1] >= amountOutMin, 'Defione INSUFFICIENT_OUTPUT_AMOUNT');\r\n        IWETH(WETH).deposit{value: amounts[0]}();\r\n        assert(IWETH(WETH).transfer(UniswapV2Library.pairFor(factory, path[0], path[1]), amounts[0]));\r\n        _swap(amounts, path, to);\r\n    }\r\n    function swapTokensForExactETH(uint amountOut, uint amountInMax, address[] calldata path, address to, uint deadline)\r\n        external\r\n        virtual\r\n        override\r\n        ensure(deadline)\r\n        returns (uint[] memory amounts)\r\n    {\r\n        require(path[path.length - 1] == WETH, 'Defione INVALID_PATH');\r\n        amounts = UniswapV2Library.getAmountsIn(factory, amountOut, path);\r\n        require(amounts[0] <= amountInMax, 'Defione EXCESSIVE_INPUT_AMOUNT');\r\n        TransferHelper.safeTransferFrom(\r\n            path[0], msg.sender, UniswapV2Library.pairFor(factory, path[0], path[1]), amounts[0]\r\n        );\r\n        _swap(amounts, path, address(this));\r\n        IWETH(WETH).withdraw(amounts[amounts.length - 1]);\r\n        TransferHelper.safeTransferETH(to, amounts[amounts.length - 1]);\r\n    }\r\n    function swapExactTokensForETH(uint amountIn, uint amountOutMin, address[] calldata path, address to, uint deadline)\r\n        external\r\n        virtual\r\n        override\r\n        ensure(deadline)\r\n        returns (uint[] memory amounts)\r\n    {\r\n        require(path[path.length - 1] == WETH, 'Defione INVALID_PATH');\r\n        amounts = UniswapV2Library.getAmountsOut(factory, amountIn, path);\r\n        require(amounts[amounts.length - 1] >= amountOutMin, 'Defione INSUFFICIENT_OUTPUT_AMOUNT');\r\n        TransferHelper.safeTransferFrom(\r\n            path[0], msg.sender, UniswapV2Library.pairFor(factory, path[0], path[1]), amounts[0]\r\n        );\r\n        _swap(amounts, path, address(this));\r\n        IWETH(WETH).withdraw(amounts[amounts.length - 1]);\r\n        TransferHelper.safeTransferETH(to, amounts[amounts.length - 1]);\r\n    }\r\n    function swapETHForExactTokens(uint amountOut, address[] calldata path, address to, uint deadline)\r\n        external\r\n        virtual\r\n        override\r\n        payable\r\n        ensure(deadline)\r\n        returns (uint[] memory amounts)\r\n    {\r\n        require(path[0] == WETH, 'Defione INVALID_PATH');\r\n        amounts = UniswapV2Library.getAmountsIn(factory, amountOut, path);\r\n        require(amounts[0] <= msg.value, 'Defione EXCESSIVE_INPUT_AMOUNT');\r\n        IWETH(WETH).deposit{value: amounts[0]}();\r\n        assert(IWETH(WETH).transfer(UniswapV2Library.pairFor(factory, path[0], path[1]), amounts[0]));\r\n        _swap(amounts, path, to);\r\n        // refund dust eth, if any\r\n        if (msg.value > amounts[0]) TransferHelper.safeTransferETH(msg.sender, msg.value - amounts[0]);\r\n    }\r\n\r\n    // **** SWAP (supporting fee-on-transfer tokens) ****\r\n    // requires the initial amount to have already been sent to the first pair\r\n    function _swapSupportingFeeOnTransferTokens(address[] memory path, address _to) internal virtual {\r\n        for (uint i; i < path.length - 1; i++) {\r\n            (address input, address output) = (path[i], path[i + 1]);\r\n            (address token0,) = UniswapV2Library.sortTokens(input, output);\r\n            IUniswapV2Pair pair = IUniswapV2Pair(UniswapV2Library.pairFor(factory, input, output));\r\n            uint amountInput;\r\n            uint amountOutput;\r\n            { // scope to avoid stack too deep errors\r\n            (uint reserve0, uint reserve1,) = pair.getReserves();\r\n            (uint reserveInput, uint reserveOutput) = input == token0 ? (reserve0, reserve1) : (reserve1, reserve0);\r\n            amountInput = IERC20Uniswap(input).balanceOf(address(pair)).sub(reserveInput);\r\n            amountOutput = UniswapV2Library.getAmountOut(amountInput, reserveInput, reserveOutput);\r\n            }\r\n            (uint amount0Out, uint amount1Out) = input == token0 ? (uint(0), amountOutput) : (amountOutput, uint(0));\r\n            address to = i < path.length - 2 ? UniswapV2Library.pairFor(factory, output, path[i + 2]) : _to;\r\n            pair.swap(amount0Out, amount1Out, to, new bytes(0));\r\n        }\r\n    }\r\n    function swapExactTokensForTokensSupportingFeeOnTransferTokens(\r\n        uint amountIn,\r\n        uint amountOutMin,\r\n        address[] calldata path,\r\n        address to,\r\n        uint deadline\r\n    ) external virtual override ensure(deadline) {\r\n        TransferHelper.safeTransferFrom(\r\n            path[0], msg.sender, UniswapV2Library.pairFor(factory, path[0], path[1]), amountIn\r\n        );\r\n        uint balanceBefore = IERC20Uniswap(path[path.length - 1]).balanceOf(to);\r\n        _swapSupportingFeeOnTransferTokens(path, to);\r\n        require(\r\n            IERC20Uniswap(path[path.length - 1]).balanceOf(to).sub(balanceBefore) >= amountOutMin,\r\n            'Defione INSUFFICIENT_OUTPUT_AMOUNT'\r\n        );\r\n    }\r\n    function swapExactETHForTokensSupportingFeeOnTransferTokens(\r\n        uint amountOutMin,\r\n        address[] calldata path,\r\n        address to,\r\n        uint deadline\r\n    )\r\n        external\r\n        virtual\r\n        override\r\n        payable\r\n        ensure(deadline)\r\n    {\r\n        require(path[0] == WETH, 'Defione INVALID_PATH');\r\n        uint amountIn = msg.value;\r\n        IWETH(WETH).deposit{value: amountIn}();\r\n        assert(IWETH(WETH).transfer(UniswapV2Library.pairFor(factory, path[0], path[1]), amountIn));\r\n        uint balanceBefore = IERC20Uniswap(path[path.length - 1]).balanceOf(to);\r\n        _swapSupportingFeeOnTransferTokens(path, to);\r\n        require(\r\n            IERC20Uniswap(path[path.length - 1]).balanceOf(to).sub(balanceBefore) >= amountOutMin,\r\n            'Defione INSUFFICIENT_OUTPUT_AMOUNT'\r\n        );\r\n    }\r\n    function swapExactTokensForETHSupportingFeeOnTransferTokens(\r\n        uint amountIn,\r\n        uint amountOutMin,\r\n        address[] calldata path,\r\n        address to,\r\n        uint deadline\r\n    )\r\n        external\r\n        virtual\r\n        override\r\n        ensure(deadline)\r\n    {\r\n        require(path[path.length - 1] == WETH, 'Defione INVALID_PATH');\r\n        TransferHelper.safeTransferFrom(\r\n            path[0], msg.sender, UniswapV2Library.pairFor(factory, path[0], path[1]), amountIn\r\n        );\r\n        _swapSupportingFeeOnTransferTokens(path, address(this));\r\n        uint amountOut = IERC20Uniswap(WETH).balanceOf(address(this));\r\n        require(amountOut >= amountOutMin, 'Defione INSUFFICIENT_OUTPUT_AMOUNT');\r\n        IWETH(WETH).withdraw(amountOut);\r\n        TransferHelper.safeTransferETH(to, amountOut);\r\n    }\r\n\r\n    // **** LIBRARY FUNCTIONS ****\r\n    function quote(uint amountA, uint reserveA, uint reserveB) public pure virtual override returns (uint amountB) {\r\n        return UniswapV2Library.quote(amountA, reserveA, reserveB);\r\n    }\r\n\r\n    function getAmountOut(uint amountIn, uint reserveIn, uint reserveOut)\r\n        public\r\n        pure\r\n        virtual\r\n        override\r\n        returns (uint amountOut)\r\n    {\r\n        return UniswapV2Library.getAmountOut(amountIn, reserveIn, reserveOut);\r\n    }\r\n\r\n    function getAmountIn(uint amountOut, uint reserveIn, uint reserveOut)\r\n        public\r\n        pure\r\n        virtual\r\n        override\r\n        returns (uint amountIn)\r\n    {\r\n        return UniswapV2Library.getAmountIn(amountOut, reserveIn, reserveOut);\r\n    }\r\n\r\n    function getAmountsOut(uint amountIn, address[] memory path)\r\n        public\r\n        view\r\n        virtual\r\n        override\r\n        returns (uint[] memory amounts)\r\n    {\r\n        return UniswapV2Library.getAmountsOut(factory, amountIn, path);\r\n    }\r\n\r\n    function getAmountsIn(uint amountOut, address[] memory path)\r\n        public\r\n        view\r\n        virtual\r\n        override\r\n        returns (uint[] memory amounts)\r\n    {\r\n        return UniswapV2Library.getAmountsIn(factory, amountOut, path);\r\n    }\r\n}\r\n",
  "sourcePath": "/opt/defione/defione-core/contracts/uniswapv2/UniswapV2Router02.sol",
  "compiler": {
    "name": "solc",
    "version": "0.6.12+commit.27d51765.Emscripten.clang"
  },
  "schemaVersion": "3.2.4",
  "updatedAt": "2022-01-17T07:37:00.410Z",
  "networkType": "ethereum",
  "devdoc": {
    "kind": "dev",
    "methods": {},
    "version": 1
  },
  "userdoc": {
    "kind": "user",
    "methods": {},
    "version": 1
  }
}